{
  "address": "0x5FbDB2315678afecb367f032d93F642f64180aa3",
  "abi": [
    {
      "inputs": [],
      "stateMutability": "nonpayable",
      "type": "constructor"
    },
    {
      "inputs": [],
      "name": "Dca__NothingToWithdraw",
      "type": "error"
    },
    {
      "inputs": [],
      "name": "Dca__WithdrawError",
      "type": "error"
    },
    {
      "inputs": [],
      "name": "fund",
      "outputs": [],
      "stateMutability": "payable",
      "type": "function"
    },
    {
      "inputs": [
        {
          "internalType": "address",
          "name": "investor",
          "type": "address"
        }
      ],
      "name": "getAmountInvestedForAddress",
      "outputs": [
        {
          "internalType": "uint256",
          "name": "",
          "type": "uint256"
        }
      ],
      "stateMutability": "view",
      "type": "function"
    },
    {
      "inputs": [],
      "name": "withdraw",
      "outputs": [],
      "stateMutability": "nonpayable",
      "type": "function"
    }
  ],
  "transactionHash": "0x0b2c0aa877768012163c123f2d1f69d74cb2af88bb64f761b2dfac9086f5456e",
  "args": [],
  "numDeployments": 1,
  "solcInputHash": "9ccd1ba2f41a86743a3302930ef8cb42",
  "bytecode": "0x608060405234801561001057600080fd5b50610441806100206000396000f3fe6080604052600436106100345760003560e01c8063351b1524146100395780633ccfd60b14610076578063b60d42881461008d575b600080fd5b34801561004557600080fd5b50610060600480360381019061005b9190610301565b610097565b60405161006d9190610347565b60405180910390f35b34801561008257600080fd5b5061008b6100df565b005b610095610247565b005b60008060008373ffffffffffffffffffffffffffffffffffffffff1673ffffffffffffffffffffffffffffffffffffffff168152602001908152602001600020549050919050565b60008060003373ffffffffffffffffffffffffffffffffffffffff1673ffffffffffffffffffffffffffffffffffffffff1681526020019081526020016000205490506000811161015c576040517f57dcbf2d00000000000000000000000000000000000000000000000000000000815260040160405180910390fd5b60008060003373ffffffffffffffffffffffffffffffffffffffff1673ffffffffffffffffffffffffffffffffffffffff1681526020019081526020016000208190555060003373ffffffffffffffffffffffffffffffffffffffff16826040516101c690610393565b60006040518083038185875af1925050503d8060008114610203576040519150601f19603f3d011682016040523d82523d6000602084013e610208565b606091505b5050905080610243576040517fd8c980eb00000000000000000000000000000000000000000000000000000000815260040160405180910390fd5b5050565b346000803373ffffffffffffffffffffffffffffffffffffffff1673ffffffffffffffffffffffffffffffffffffffff168152602001908152602001600020600082825461029591906103d7565b92505081905550565b600080fd5b600073ffffffffffffffffffffffffffffffffffffffff82169050919050565b60006102ce826102a3565b9050919050565b6102de816102c3565b81146102e957600080fd5b50565b6000813590506102fb816102d5565b92915050565b6000602082840312156103175761031661029e565b5b6000610325848285016102ec565b91505092915050565b6000819050919050565b6103418161032e565b82525050565b600060208201905061035c6000830184610338565b92915050565b600081905092915050565b50565b600061037d600083610362565b91506103888261036d565b600082019050919050565b600061039e82610370565b9150819050919050565b7f4e487b7100000000000000000000000000000000000000000000000000000000600052601160045260246000fd5b60006103e28261032e565b91506103ed8361032e565b9250828201905080821115610405576104046103a8565b5b9291505056fea2646970667358221220dcc3d2d2abf735e85cc0d361d9ca4f134b74bec4b18ad391c29db34f4742927264736f6c63430008110033",
  "devdoc": {
    "kind": "dev",
    "methods": {},
    "version": 1
  },
  "userdoc": {
    "kind": "user",
    "methods": {},
    "version": 1
  },
  "storageLayout": {
    "storage": [
      {
        "astId": 10,
        "contract": "contracts/Dca.sol:Dca",
        "label": "s_addressToAmountInvested",
        "offset": 0,
        "slot": "0",
        "type": "t_mapping(t_address,t_uint256)"
      }
    ],
    "types": {
      "t_address": {
        "encoding": "inplace",
        "label": "address",
        "numberOfBytes": "20"
      },
      "t_mapping(t_address,t_uint256)": {
        "encoding": "mapping",
        "key": "t_address",
        "label": "mapping(address => uint256)",
        "numberOfBytes": "32",
        "value": "t_uint256"
      },
      "t_uint256": {
        "encoding": "inplace",
        "label": "uint256",
        "numberOfBytes": "32"
      }
    }
  }
}