{
  "address": "0x2d13826359803522cCe7a4Cfa2c1b582303DD0B4",
  "abi": [
    {
      "inputs": [
        {
          "internalType": "address",
          "name": "usdcAddress",
          "type": "address"
        },
        {
          "internalType": "uint256",
          "name": "_keepersUpdateInterval",
          "type": "uint256"
        },
        {
          "internalType": "address",
          "name": "_swapperAddress",
          "type": "address"
        }
      ],
      "stateMutability": "nonpayable",
      "type": "constructor"
    },
    {
      "inputs": [],
      "name": "Dca__UpkeepNotNeeded",
      "type": "error"
    },
    {
      "inputs": [],
      "name": "Dca__WithdrawError",
      "type": "error"
    },
    {
      "inputs": [
        {
          "internalType": "bytes",
          "name": "",
          "type": "bytes"
        }
      ],
      "name": "checkUpkeep",
      "outputs": [
        {
          "internalType": "bool",
          "name": "upkeepNeeded",
          "type": "bool"
        },
        {
          "internalType": "bytes",
          "name": "",
          "type": "bytes"
        }
      ],
      "stateMutability": "view",
      "type": "function"
    },
    {
      "inputs": [
        {
          "internalType": "uint256",
          "name": "depositAmount",
          "type": "uint256"
        }
      ],
      "name": "deposit",
      "outputs": [],
      "stateMutability": "nonpayable",
      "type": "function"
    },
    {
      "inputs": [
        {
          "internalType": "address",
          "name": "investor",
          "type": "address"
        }
      ],
      "name": "getAmountInvestedForAddress",
      "outputs": [
        {
          "internalType": "uint256",
          "name": "",
          "type": "uint256"
        }
      ],
      "stateMutability": "view",
      "type": "function"
    },
    {
      "inputs": [],
      "name": "getKeepersUpdateInterval",
      "outputs": [
        {
          "internalType": "uint256",
          "name": "",
          "type": "uint256"
        }
      ],
      "stateMutability": "view",
      "type": "function"
    },
    {
      "inputs": [],
      "name": "keepersUpdateInterval",
      "outputs": [
        {
          "internalType": "uint256",
          "name": "",
          "type": "uint256"
        }
      ],
      "stateMutability": "view",
      "type": "function"
    },
    {
      "inputs": [],
      "name": "lastTimeStamp",
      "outputs": [
        {
          "internalType": "uint256",
          "name": "",
          "type": "uint256"
        }
      ],
      "stateMutability": "view",
      "type": "function"
    },
    {
      "inputs": [
        {
          "internalType": "bytes",
          "name": "",
          "type": "bytes"
        }
      ],
      "name": "performUpkeep",
      "outputs": [],
      "stateMutability": "nonpayable",
      "type": "function"
    },
    {
      "inputs": [],
      "name": "withdraw",
      "outputs": [],
      "stateMutability": "nonpayable",
      "type": "function"
    }
  ],
  "transactionHash": "0xb18ae91e732aa041969b4a8ce885698e40f00f5abbd7f137a793d53ea8341cb5",
  "args": [
    "0xB7ca895F81F20e05A5eb11B05Cbaab3DAe5e23cd",
    "60",
    "0xd0EC100F1252a53322051a95CF05c32f0C174354"
  ],
  "numDeployments": 1,
  "solcInputHash": "27d886a3bcb39940e7c38b3dc0c24c32",
  "bytecode": "0x60c06040523480156200001157600080fd5b506040516200139e3803806200139e833981810160405281019062000037919062000169565b82600160006101000a81548173ffffffffffffffffffffffffffffffffffffffff021916908373ffffffffffffffffffffffffffffffffffffffff1602179055508160808181525050426002819055508073ffffffffffffffffffffffffffffffffffffffff1660a08173ffffffffffffffffffffffffffffffffffffffff1681525050505050620001c5565b600080fd5b600073ffffffffffffffffffffffffffffffffffffffff82169050919050565b6000620000f682620000c9565b9050919050565b6200010881620000e9565b81146200011457600080fd5b50565b6000815190506200012881620000fd565b92915050565b6000819050919050565b62000143816200012e565b81146200014f57600080fd5b50565b600081519050620001638162000138565b92915050565b600080600060608486031215620001855762000184620000c4565b5b6000620001958682870162000117565b9350506020620001a88682870162000152565b9250506040620001bb8682870162000117565b9150509250925092565b60805160a05161119e62000200600039600081816103f1015261047401526000818161051d01528181610545015261057e015261119e6000f3fe608060405234801561001057600080fd5b50600436106100885760003560e01c80635962ddac1161005b5780635962ddac146101015780636e04ff0d1461011f578063aad9d8a014610150578063b6b55f251461016e57610088565b8063351b15241461008d5780633ccfd60b146100bd5780633f3b3b27146100c75780634585e33b146100e5575b600080fd5b6100a760048036038101906100a29190610984565b61018a565b6040516100b491906109ca565b60405180910390f35b6100c56101d2565b005b6100cf610337565b6040516100dc91906109ca565b60405180910390f35b6100ff60048036038101906100fa9190610a4a565b61033d565b005b61010961051b565b60405161011691906109ca565b60405180910390f35b61013960048036038101906101349190610bd8565b61053f565b604051610147929190610cbb565b60405180910390f35b61015861057a565b60405161016591906109ca565b60405180910390f35b61018860048036038101906101839190610d17565b6105a2565b005b60008060008373ffffffffffffffffffffffffffffffffffffffff1673ffffffffffffffffffffffffffffffffffffffff168152602001908152602001600020549050919050565b60008060003373ffffffffffffffffffffffffffffffffffffffff1673ffffffffffffffffffffffffffffffffffffffff1681526020019081526020016000205490506000811161024f576040517fd8c980eb00000000000000000000000000000000000000000000000000000000815260040160405180910390fd5b60008060003373ffffffffffffffffffffffffffffffffffffffff1673ffffffffffffffffffffffffffffffffffffffff16815260200190815260200160002081905550600160009054906101000a900473ffffffffffffffffffffffffffffffffffffffff1673ffffffffffffffffffffffffffffffffffffffff1663a9059cbb33836040518363ffffffff1660e01b81526004016102f0929190610d53565b6020604051808303816000875af115801561030f573d6000803e3d6000fd5b505050506040513d601f19601f820116820180604052508101906103339190610da8565b5050565b60025481565b60006103576040518060200160405280600081525061053f565b50905080610391576040517f5fb3ae8100000000000000000000000000000000000000000000000000000000815260040160405180910390fd5b42600281905550600073a0b86991c6218b36c1d19d4a2e9eb0ce3606eb489050600073c02aaa39b223fe8d0a0e5c4f27ead9083c756cc2905060006305f5e10090508273ffffffffffffffffffffffffffffffffffffffff1663095ea7b37f0000000000000000000000000000000000000000000000000000000000000000836040518363ffffffff1660e01b815260040161042e929190610d53565b6020604051808303816000875af115801561044d573d6000803e3d6000fd5b505050506040513d601f19601f820116820180604052508101906104719190610da8565b507f000000000000000000000000000000000000000000000000000000000000000073ffffffffffffffffffffffffffffffffffffffff16632b7f09238285856040518463ffffffff1660e01b81526004016104cf93929190610dd5565b6020604051808303816000875af11580156104ee573d6000803e3d6000fd5b505050506040513d601f19601f820116820180604052508101906105129190610e21565b50505050505050565b7f000000000000000000000000000000000000000000000000000000000000000081565b600060607f0000000000000000000000000000000000000000000000000000000000000000600254426105729190610e7d565b119150915091565b60007f0000000000000000000000000000000000000000000000000000000000000000905090565b6105e06040518060400160405280600f81526020017f43616c6c696e67206465706f7369740000000000000000000000000000000000815250610850565b60008111610623576040517f08c379a000000000000000000000000000000000000000000000000000000000815260040161061a90610f34565b60405180910390fd5b80600160009054906101000a900473ffffffffffffffffffffffffffffffffffffffff1673ffffffffffffffffffffffffffffffffffffffff1663dd62ed3e33306040518363ffffffff1660e01b8152600401610681929190610f54565b602060405180830381865afa15801561069e573d6000803e3d6000fd5b505050506040513d601f19601f820116820180604052508101906106c29190610e21565b1015610703576040517f08c379a00000000000000000000000000000000000000000000000000000000081526004016106fa90610fc9565b60405180910390fd5b6000620f4240826107149190610fe9565b9050600160009054906101000a900473ffffffffffffffffffffffffffffffffffffffff1673ffffffffffffffffffffffffffffffffffffffff166323b872dd3330846040518463ffffffff1660e01b81526004016107759392919061102b565b6020604051808303816000875af1158015610794573d6000803e3d6000fd5b505050506040513d601f19601f820116820180604052508101906107b89190610da8565b6107f7576040517f08c379a00000000000000000000000000000000000000000000000000000000081526004016107ee906110ae565b60405180910390fd5b806000803373ffffffffffffffffffffffffffffffffffffffff1673ffffffffffffffffffffffffffffffffffffffff168152602001908152602001600020600082825461084591906110ce565b925050819055505050565b6108e6816040516024016108649190611146565b6040516020818303038152906040527f41304fac000000000000000000000000000000000000000000000000000000007bffffffffffffffffffffffffffffffffffffffffffffffffffffffff19166020820180517bffffffffffffffffffffffffffffffffffffffffffffffffffffffff83818316178352505050506108e9565b50565b60008151905060006a636f6e736f6c652e6c6f679050602083016000808483855afa5050505050565b6000604051905090565b600080fd5b600080fd5b600073ffffffffffffffffffffffffffffffffffffffff82169050919050565b600061095182610926565b9050919050565b61096181610946565b811461096c57600080fd5b50565b60008135905061097e81610958565b92915050565b60006020828403121561099a5761099961091c565b5b60006109a88482850161096f565b91505092915050565b6000819050919050565b6109c4816109b1565b82525050565b60006020820190506109df60008301846109bb565b92915050565b600080fd5b600080fd5b600080fd5b60008083601f840112610a0a57610a096109e5565b5b8235905067ffffffffffffffff811115610a2757610a266109ea565b5b602083019150836001820283011115610a4357610a426109ef565b5b9250929050565b60008060208385031215610a6157610a6061091c565b5b600083013567ffffffffffffffff811115610a7f57610a7e610921565b5b610a8b858286016109f4565b92509250509250929050565b600080fd5b6000601f19601f8301169050919050565b7f4e487b7100000000000000000000000000000000000000000000000000000000600052604160045260246000fd5b610ae582610a9c565b810181811067ffffffffffffffff82111715610b0457610b03610aad565b5b80604052505050565b6000610b17610912565b9050610b238282610adc565b919050565b600067ffffffffffffffff821115610b4357610b42610aad565b5b610b4c82610a9c565b9050602081019050919050565b82818337600083830152505050565b6000610b7b610b7684610b28565b610b0d565b905082815260208101848484011115610b9757610b96610a97565b5b610ba2848285610b59565b509392505050565b600082601f830112610bbf57610bbe6109e5565b5b8135610bcf848260208601610b68565b91505092915050565b600060208284031215610bee57610bed61091c565b5b600082013567ffffffffffffffff811115610c0c57610c0b610921565b5b610c1884828501610baa565b91505092915050565b60008115159050919050565b610c3681610c21565b82525050565b600081519050919050565b600082825260208201905092915050565b60005b83811015610c76578082015181840152602081019050610c5b565b60008484015250505050565b6000610c8d82610c3c565b610c978185610c47565b9350610ca7818560208601610c58565b610cb081610a9c565b840191505092915050565b6000604082019050610cd06000830185610c2d565b8181036020830152610ce28184610c82565b90509392505050565b610cf4816109b1565b8114610cff57600080fd5b50565b600081359050610d1181610ceb565b92915050565b600060208284031215610d2d57610d2c61091c565b5b6000610d3b84828501610d02565b91505092915050565b610d4d81610946565b82525050565b6000604082019050610d686000830185610d44565b610d7560208301846109bb565b9392505050565b610d8581610c21565b8114610d9057600080fd5b50565b600081519050610da281610d7c565b92915050565b600060208284031215610dbe57610dbd61091c565b5b6000610dcc84828501610d93565b91505092915050565b6000606082019050610dea60008301866109bb565b610df76020830185610d44565b610e046040830184610d44565b949350505050565b600081519050610e1b81610ceb565b92915050565b600060208284031215610e3757610e3661091c565b5b6000610e4584828501610e0c565b91505092915050565b7f4e487b7100000000000000000000000000000000000000000000000000000000600052601160045260246000fd5b6000610e88826109b1565b9150610e93836109b1565b9250828203905081811115610eab57610eaa610e4e565b5b92915050565b600082825260208201905092915050565b7f6465706f7369743a20416d6f756e74206d75737420626520677265617465722060008201527f7468616e207a65726f0000000000000000000000000000000000000000000000602082015250565b6000610f1e602983610eb1565b9150610f2982610ec2565b604082019050919050565b60006020820190508181036000830152610f4d81610f11565b9050919050565b6000604082019050610f696000830185610d44565b610f766020830184610d44565b9392505050565b7f6465706f7369743a20496e73756666696369656e7420616c6c6f77616e636500600082015250565b6000610fb3601f83610eb1565b9150610fbe82610f7d565b602082019050919050565b60006020820190508181036000830152610fe281610fa6565b9050919050565b6000610ff4826109b1565b9150610fff836109b1565b925082820261100d816109b1565b9150828204841483151761102457611023610e4e565b5b5092915050565b60006060820190506110406000830186610d44565b61104d6020830185610d44565b61105a60408301846109bb565b949350505050565b7f6465706f7369743a207472616e7366657246726f6d206661696c656400000000600082015250565b6000611098601c83610eb1565b91506110a382611062565b602082019050919050565b600060208201905081810360008301526110c78161108b565b9050919050565b60006110d9826109b1565b91506110e4836109b1565b92508282019050808211156110fc576110fb610e4e565b5b92915050565b600081519050919050565b600061111882611102565b6111228185610eb1565b9350611132818560208601610c58565b61113b81610a9c565b840191505092915050565b60006020820190508181036000830152611160818461110d565b90509291505056fea26469706673582212207bccaea27cab4a7a6e23cf9a4c3b64d496ae16aa798fce4303de5680a3fe01cf64736f6c63430008110033",
  "devdoc": {
    "kind": "dev",
    "methods": {},
    "version": 1
  },
  "userdoc": {
    "kind": "user",
    "methods": {},
    "version": 1
  },
  "storageLayout": {
    "storage": [
      {
        "astId": 438,
        "contract": "contracts/Dca.sol:Dca",
        "label": "s_addressToAmountDeposited",
        "offset": 0,
        "slot": "0",
        "type": "t_mapping(t_address,t_uint256)"
      },
      {
        "astId": 441,
        "contract": "contracts/Dca.sol:Dca",
        "label": "s_usdc",
        "offset": 0,
        "slot": "1",
        "type": "t_contract(IERC20)135"
      },
      {
        "astId": 445,
        "contract": "contracts/Dca.sol:Dca",
        "label": "lastTimeStamp",
        "offset": 0,
        "slot": "2",
        "type": "t_uint256"
      }
    ],
    "types": {
      "t_address": {
        "encoding": "inplace",
        "label": "address",
        "numberOfBytes": "20"
      },
      "t_contract(IERC20)135": {
        "encoding": "inplace",
        "label": "contract IERC20",
        "numberOfBytes": "20"
      },
      "t_mapping(t_address,t_uint256)": {
        "encoding": "mapping",
        "key": "t_address",
        "label": "mapping(address => uint256)",
        "numberOfBytes": "32",
        "value": "t_uint256"
      },
      "t_uint256": {
        "encoding": "inplace",
        "label": "uint256",
        "numberOfBytes": "32"
      }
    }
  }
}