{
  "address": "0x2d13826359803522cCe7a4Cfa2c1b582303DD0B4",
  "abi": [
    {
      "inputs": [
        {
          "internalType": "address",
          "name": "_usdcAddress",
          "type": "address"
        },
        {
          "internalType": "uint256",
          "name": "_keepersUpdateInterval",
          "type": "uint256"
        },
        {
          "internalType": "address",
          "name": "_swapperAddress",
          "type": "address"
        }
      ],
      "stateMutability": "nonpayable",
      "type": "constructor"
    },
    {
      "inputs": [],
      "name": "Dca__UpkeepNotNeeded",
      "type": "error"
    },
    {
      "inputs": [],
      "name": "Dca__WithdrawError",
      "type": "error"
    },
    {
      "anonymous": false,
      "inputs": [
        {
          "indexed": false,
          "internalType": "string",
          "name": "message",
          "type": "string"
        }
      ],
      "name": "Log",
      "type": "event"
    },
    {
      "anonymous": false,
      "inputs": [
        {
          "indexed": false,
          "internalType": "bytes",
          "name": "data",
          "type": "bytes"
        }
      ],
      "name": "LogBytes",
      "type": "event"
    },
    {
      "inputs": [],
      "name": "USDC_DECIMALS",
      "outputs": [
        {
          "internalType": "uint256",
          "name": "",
          "type": "uint256"
        }
      ],
      "stateMutability": "view",
      "type": "function"
    },
    {
      "inputs": [
        {
          "internalType": "bytes",
          "name": "",
          "type": "bytes"
        }
      ],
      "name": "checkUpkeep",
      "outputs": [
        {
          "internalType": "bool",
          "name": "upkeepNeeded",
          "type": "bool"
        },
        {
          "internalType": "bytes",
          "name": "",
          "type": "bytes"
        }
      ],
      "stateMutability": "view",
      "type": "function"
    },
    {
      "inputs": [
        {
          "internalType": "uint256",
          "name": "depositAmount",
          "type": "uint256"
        },
        {
          "internalType": "address",
          "name": "tokenToBuyAddress",
          "type": "address"
        },
        {
          "internalType": "uint256",
          "name": "amountToBuy",
          "type": "uint256"
        },
        {
          "internalType": "uint256",
          "name": "buyInterval",
          "type": "uint256"
        }
      ],
      "name": "deposit",
      "outputs": [],
      "stateMutability": "nonpayable",
      "type": "function"
    },
    {
      "inputs": [
        {
          "internalType": "address",
          "name": "investor",
          "type": "address"
        }
      ],
      "name": "getAmountInvestedForAddress",
      "outputs": [
        {
          "internalType": "uint256",
          "name": "",
          "type": "uint256"
        }
      ],
      "stateMutability": "view",
      "type": "function"
    },
    {
      "inputs": [
        {
          "internalType": "address",
          "name": "investor",
          "type": "address"
        }
      ],
      "name": "getAmountToBuyForAddress",
      "outputs": [
        {
          "internalType": "uint256",
          "name": "",
          "type": "uint256"
        }
      ],
      "stateMutability": "view",
      "type": "function"
    },
    {
      "inputs": [
        {
          "internalType": "address",
          "name": "investor",
          "type": "address"
        }
      ],
      "name": "getBuyIntervalForAddress",
      "outputs": [
        {
          "internalType": "uint256",
          "name": "",
          "type": "uint256"
        }
      ],
      "stateMutability": "view",
      "type": "function"
    },
    {
      "inputs": [],
      "name": "getInvestors",
      "outputs": [
        {
          "internalType": "address[]",
          "name": "",
          "type": "address[]"
        }
      ],
      "stateMutability": "view",
      "type": "function"
    },
    {
      "inputs": [],
      "name": "getKeepersUpdateInterval",
      "outputs": [
        {
          "internalType": "uint256",
          "name": "",
          "type": "uint256"
        }
      ],
      "stateMutability": "view",
      "type": "function"
    },
    {
      "inputs": [
        {
          "internalType": "address",
          "name": "investor",
          "type": "address"
        }
      ],
      "name": "getNextBuyTimestampForAddress",
      "outputs": [
        {
          "internalType": "uint256",
          "name": "",
          "type": "uint256"
        }
      ],
      "stateMutability": "view",
      "type": "function"
    },
    {
      "inputs": [
        {
          "internalType": "address",
          "name": "investor",
          "type": "address"
        }
      ],
      "name": "getTokenToBuyForAddress",
      "outputs": [
        {
          "internalType": "address",
          "name": "",
          "type": "address"
        }
      ],
      "stateMutability": "view",
      "type": "function"
    },
    {
      "inputs": [
        {
          "internalType": "address",
          "name": "investor",
          "type": "address"
        }
      ],
      "name": "isInvestor",
      "outputs": [
        {
          "internalType": "bool",
          "name": "",
          "type": "bool"
        }
      ],
      "stateMutability": "view",
      "type": "function"
    },
    {
      "inputs": [],
      "name": "keepersUpdateInterval",
      "outputs": [
        {
          "internalType": "uint256",
          "name": "",
          "type": "uint256"
        }
      ],
      "stateMutability": "view",
      "type": "function"
    },
    {
      "inputs": [],
      "name": "lastTimeStamp",
      "outputs": [
        {
          "internalType": "uint256",
          "name": "",
          "type": "uint256"
        }
      ],
      "stateMutability": "view",
      "type": "function"
    },
    {
      "inputs": [
        {
          "internalType": "bytes",
          "name": "",
          "type": "bytes"
        }
      ],
      "name": "performUpkeep",
      "outputs": [],
      "stateMutability": "nonpayable",
      "type": "function"
    },
    {
      "inputs": [],
      "name": "withdraw",
      "outputs": [],
      "stateMutability": "nonpayable",
      "type": "function"
    }
  ],
  "transactionHash": "0x609ff01df729e3d8d46d122dbe2359a9db8c92d466c315838e0d363bf37aac85",
  "args": [
    "0xA0b86991c6218b36c1d19D4a2e9Eb0cE3606eB48",
    "60",
    "0xd0EC100F1252a53322051a95CF05c32f0C174354"
  ],
  "numDeployments": 1,
  "solcInputHash": "219ab1adc16976f5158b99541b2cd525",
  "bytecode": "0x60c06040523480156200001157600080fd5b5060405162002f2238038062002f22833981810160405281019062000037919062000345565b82600260006101000a81548173ffffffffffffffffffffffffffffffffffffffff021916908373ffffffffffffffffffffffffffffffffffffffff1602179055508160808181525050426003819055508073ffffffffffffffffffffffffffffffffffffffff1660a08173ffffffffffffffffffffffffffffffffffffffff1681525050600067ffffffffffffffff811115620000d957620000d8620003a1565b5b604051908082528060200260200182016040528015620001085781602001602082028036833780820191505090505b506001908051906020019062000120929190620001f2565b50600260009054906101000a900473ffffffffffffffffffffffffffffffffffffffff1673ffffffffffffffffffffffffffffffffffffffff1663095ea7b360a0517fffffffffffffffffffffffffffffffffffffffffffffffffffffffffffffffff6040518363ffffffff1660e01b8152600401620001a2929190620003f2565b6020604051808303816000875af1158015620001c2573d6000803e3d6000fd5b505050506040513d601f19601f82011682018060405250810190620001e891906200045c565b505050506200048e565b8280548282559060005260206000209081019282156200026e579160200282015b828111156200026d5782518260006101000a81548173ffffffffffffffffffffffffffffffffffffffff021916908373ffffffffffffffffffffffffffffffffffffffff1602179055509160200191906001019062000213565b5b5090506200027d919062000281565b5090565b5b808211156200029c57600081600090555060010162000282565b5090565b600080fd5b600073ffffffffffffffffffffffffffffffffffffffff82169050919050565b6000620002d282620002a5565b9050919050565b620002e481620002c5565b8114620002f057600080fd5b50565b6000815190506200030481620002d9565b92915050565b6000819050919050565b6200031f816200030a565b81146200032b57600080fd5b50565b6000815190506200033f8162000314565b92915050565b600080600060608486031215620003615762000360620002a0565b5b60006200037186828701620002f3565b935050602062000384868287016200032e565b92505060406200039786828701620002f3565b9150509250925092565b7f4e487b7100000000000000000000000000000000000000000000000000000000600052604160045260246000fd5b620003db81620002c5565b82525050565b620003ec816200030a565b82525050565b6000604082019050620004096000830185620003d0565b620004186020830184620003e1565b9392505050565b60008115159050919050565b62000436816200041f565b81146200044257600080fd5b50565b60008151905062000456816200042b565b92915050565b600060208284031215620004755762000474620002a0565b5b6000620004858482850162000445565b91505092915050565b60805160a051612a60620004c26000396000610841015260008181610bb701528181610bdf01526112c30152612a606000f3fe608060405234801561001057600080fd5b50600436106100f55760003560e01c80636f0372af11610097578063b2f5a54c11610066578063b2f5a54c14610287578063c1419def146102a5578063cee2a9cf146102c3578063fa615781146102f3576100f5565b80636f0372af146101ed57806370324949146102095780637227317814610239578063aad9d8a014610269576100f5565b80633f3b3b27116100d35780633f3b3b27146101645780634585e33b146101825780635962ddac1461019e5780636e04ff0d146101bc576100f5565b80631fa5dc46146100fa578063351b15241461012a5780633ccfd60b1461015a575b600080fd5b610114600480360381019061010f9190611b2c565b610323565b6040516101219190611b68565b60405180910390f35b610144600480360381019061013f9190611b2c565b61038e565b6040516101519190611b9c565b60405180910390f35b6101626103d9565b005b61016c610602565b6040516101799190611b9c565b60405180910390f35b61019c60048036038101906101979190611c1c565b610608565b005b6101a6610bb5565b6040516101b39190611b9c565b60405180910390f35b6101d660048036038101906101d19190611daa565b610bd9565b6040516101e4929190611e8d565b60405180910390f35b61020760048036038101906102029190611ee9565b610c14565b005b610223600480360381019061021e9190611b2c565b611229565b6040516102309190611b9c565b60405180910390f35b610253600480360381019061024e9190611b2c565b611274565b6040516102609190611b9c565b60405180910390f35b6102716112bf565b60405161027e9190611b9c565b60405180910390f35b61028f6112e7565b60405161029c919061200e565b60405180910390f35b6102ad611375565b6040516102ba9190611b9c565b60405180910390f35b6102dd60048036038101906102d89190611b2c565b61137a565b6040516102ea9190612030565b60405180910390f35b61030d60048036038101906103089190611b2c565b611436565b60405161031a9190611b9c565b60405180910390f35b60008060008373ffffffffffffffffffffffffffffffffffffffff1673ffffffffffffffffffffffffffffffffffffffff16815260200190815260200160002060000160009054906101000a900473ffffffffffffffffffffffffffffffffffffffff169050919050565b60008060008373ffffffffffffffffffffffffffffffffffffffff1673ffffffffffffffffffffffffffffffffffffffff168152602001908152602001600020600401549050919050565b60008060003373ffffffffffffffffffffffffffffffffffffffff1673ffffffffffffffffffffffffffffffffffffffff1681526020019081526020016000206040518060e00160405290816000820160009054906101000a900473ffffffffffffffffffffffffffffffffffffffff1673ffffffffffffffffffffffffffffffffffffffff1673ffffffffffffffffffffffffffffffffffffffff16815260200160018201548152602001600282015481526020016003820154815260200160048201548152602001600582015481526020016006820160009054906101000a900460ff16151515158152505090506000816080015190506000811161050c576040517fd8c980eb00000000000000000000000000000000000000000000000000000000815260040160405180910390fd5b60008060003373ffffffffffffffffffffffffffffffffffffffff1673ffffffffffffffffffffffffffffffffffffffff1681526020019081526020016000206004018190555061055c33611481565b50600260009054906101000a900473ffffffffffffffffffffffffffffffffffffffff1673ffffffffffffffffffffffffffffffffffffffff1663a9059cbb33836040518363ffffffff1660e01b81526004016105ba92919061204b565b6020604051808303816000875af11580156105d9573d6000803e3d6000fd5b505050506040513d601f19601f820116820180604052508101906105fd91906120a0565b505050565b60035481565b600061062260405180602001604052806000815250610bd9565b5090508061065c576040517f5fb3ae8100000000000000000000000000000000000000000000000000000000815260040160405180910390fd5b4260038190555060005b600180549050811015610baf57600060018281548110610689576106886120cd565b5b9060005260206000200160009054906101000a900473ffffffffffffffffffffffffffffffffffffffff1690506106d86040518060600160405280602781526020016129636027913982611769565b60008060008373ffffffffffffffffffffffffffffffffffffffff1673ffffffffffffffffffffffffffffffffffffffff1681526020019081526020016000206040518060e00160405290816000820160009054906101000a900473ffffffffffffffffffffffffffffffffffffffff1673ffffffffffffffffffffffffffffffffffffffff1673ffffffffffffffffffffffffffffffffffffffff16815260200160018201548152602001600282015481526020016003820154815260200160048201548152602001600582015481526020016006820160009054906101000a900460ff16151515158152505090504281606001511115610802576107fb6040518060600160405280603c81526020016129ef603c9139826060015142611805565b5050610b9c565b6000610816826020015183608001516118a4565b905061083f6040518060600160405280602b815260200161298a602b91398360000151836118bd565b7f000000000000000000000000000000000000000000000000000000000000000073ffffffffffffffffffffffffffffffffffffffff166310e2df9b82600260009054906101000a900473ffffffffffffffffffffffffffffffffffffffff1685600001518760056040518663ffffffff1660e01b81526004016108c79594939291906120fc565b6020604051808303816000875af192505050801561090357506040513d601f19601f820116820180604052508101906109009190612164565b60015b610a215761090f61219e565b806308c379a0036109ad57506109236121c0565b8061092e57506109af565b61096d6040518060400160405280601081526020017f53776170206661696c6564203a20256f000000000000000000000000000000008152508261195c565b7fcf34ef537ac33ee1ac626ca1587a0a7e8e51561e5514f8cb36afa1c5102b3bab8160405161099c91906122a5565b60405180910390a150505050610b9c565b505b3d80600081146109db576040519150601f19603f3d011682016040523d82523d6000602084013e6109e0565b606091505b507f532fd6ea96cfb78bb46e09279a26828b8b493de1a2b8b1ee1face527978a15a581604051610a1091906122c7565b60405180910390a150505050610b9c565b60008103610a7057610a676040518060400160405280600b81526020017f53776170206661696c65640000000000000000000000000000000000000000008152506119f8565b50505050610b9c565b816000808673ffffffffffffffffffffffffffffffffffffffff1673ffffffffffffffffffffffffffffffffffffffff1681526020019081526020016000206004016000828254610ac19190612318565b9250508190555060008060008673ffffffffffffffffffffffffffffffffffffffff1673ffffffffffffffffffffffffffffffffffffffff1681526020019081526020016000206004015411610b4157610b326040518060600160405280603a81526020016129b5603a91396119f8565b610b3b84611481565b50610b97565b826040015142610b51919061234c565b6000808673ffffffffffffffffffffffffffffffffffffffff1673ffffffffffffffffffffffffffffffffffffffff168152602001908152602001600020600301819055505b505050505b8080610ba790612380565b915050610666565b50505050565b7f000000000000000000000000000000000000000000000000000000000000000081565b600060607f000000000000000000000000000000000000000000000000000000000000000060035442610c0c9190612318565b119150915091565b60008411610c57576040517f08c379a0000000000000000000000000000000000000000000000000000000008152600401610c4e9061243a565b60405180910390fd5b83600260009054906101000a900473ffffffffffffffffffffffffffffffffffffffff1673ffffffffffffffffffffffffffffffffffffffff1663dd62ed3e33306040518363ffffffff1660e01b8152600401610cb592919061245a565b602060405180830381865afa158015610cd2573d6000803e3d6000fd5b505050506040513d601f19601f82011682018060405250810190610cf69190612164565b1015610d37576040517f08c379a0000000000000000000000000000000000000000000000000000000008152600401610d2e906124cf565b60405180910390fd5b60006006600a610d479190612622565b85610d52919061266d565b9050600260009054906101000a900473ffffffffffffffffffffffffffffffffffffffff1673ffffffffffffffffffffffffffffffffffffffff166323b872dd3330846040518463ffffffff1660e01b8152600401610db3939291906126af565b6020604051808303816000875af1158015610dd2573d6000803e3d6000fd5b505050506040513d601f19601f82011682018060405250810190610df691906120a0565b610e35576040517f08c379a0000000000000000000000000000000000000000000000000000000008152600401610e2c90612732565b60405180910390fd5b60008060003373ffffffffffffffffffffffffffffffffffffffff1673ffffffffffffffffffffffffffffffffffffffff1681526020019081526020016000206040518060e00160405290816000820160009054906101000a900473ffffffffffffffffffffffffffffffffffffffff1673ffffffffffffffffffffffffffffffffffffffff1673ffffffffffffffffffffffffffffffffffffffff16815260200160018201548152602001600282015481526020016003820154815260200160048201548152602001600582015481526020016006820160009054906101000a900460ff16151515158152505090508060c00151610f92576001339080600181540180825580915050600190039060005260206000200160009091909190916101000a81548173ffffffffffffffffffffffffffffffffffffffff021916908373ffffffffffffffffffffffffffffffffffffffff1602179055505b60008342610fa0919061234c565b90506006600a610fb09190612622565b85610fbb919061266d565b9450600060018080549050610fd09190612318565b90506000848460800151610fe4919061234c565b9050876000803373ffffffffffffffffffffffffffffffffffffffff1673ffffffffffffffffffffffffffffffffffffffff16815260200190815260200160002060000160006101000a81548173ffffffffffffffffffffffffffffffffffffffff021916908373ffffffffffffffffffffffffffffffffffffffff160217905550866000803373ffffffffffffffffffffffffffffffffffffffff1673ffffffffffffffffffffffffffffffffffffffff16815260200190815260200160002060010181905550856000803373ffffffffffffffffffffffffffffffffffffffff1673ffffffffffffffffffffffffffffffffffffffff16815260200190815260200160002060020181905550826000803373ffffffffffffffffffffffffffffffffffffffff1673ffffffffffffffffffffffffffffffffffffffff16815260200190815260200160002060030181905550806000803373ffffffffffffffffffffffffffffffffffffffff1673ffffffffffffffffffffffffffffffffffffffff16815260200190815260200160002060040181905550816000803373ffffffffffffffffffffffffffffffffffffffff1673ffffffffffffffffffffffffffffffffffffffff1681526020019081526020016000206005018190555060016000803373ffffffffffffffffffffffffffffffffffffffff1673ffffffffffffffffffffffffffffffffffffffff16815260200190815260200160002060060160006101000a81548160ff021916908315150217905550505050505050505050565b60008060008373ffffffffffffffffffffffffffffffffffffffff1673ffffffffffffffffffffffffffffffffffffffff168152602001908152602001600020600201549050919050565b60008060008373ffffffffffffffffffffffffffffffffffffffff1673ffffffffffffffffffffffffffffffffffffffff168152602001908152602001600020600101549050919050565b60007f0000000000000000000000000000000000000000000000000000000000000000905090565b6060600180548060200260200160405190810160405280929190818152602001828054801561136b57602002820191906000526020600020905b8160009054906101000a900473ffffffffffffffffffffffffffffffffffffffff1673ffffffffffffffffffffffffffffffffffffffff1681526020019060010190808311611321575b5050505050905090565b600681565b6000806000808473ffffffffffffffffffffffffffffffffffffffff1673ffffffffffffffffffffffffffffffffffffffff1681526020019081526020016000206005015490508273ffffffffffffffffffffffffffffffffffffffff16600182815481106113ec576113eb6120cd565b5b9060005260206000200160009054906101000a900473ffffffffffffffffffffffffffffffffffffffff1673ffffffffffffffffffffffffffffffffffffffff1614915050919050565b60008060008373ffffffffffffffffffffffffffffffffffffffff1673ffffffffffffffffffffffffffffffffffffffff168152602001908152602001600020600301549050919050565b6000806000808473ffffffffffffffffffffffffffffffffffffffff1673ffffffffffffffffffffffffffffffffffffffff1681526020019081526020016000206040518060e00160405290816000820160009054906101000a900473ffffffffffffffffffffffffffffffffffffffff1673ffffffffffffffffffffffffffffffffffffffff1673ffffffffffffffffffffffffffffffffffffffff16815260200160018201548152602001600282015481526020016003820154815260200160048201548152602001600582015481526020016006820160009054906101000a900460ff16151515158152505090508060c001516115b6576040517f08c379a00000000000000000000000000000000000000000000000000000000081526004016115ad9061279e565b60405180910390fd5b6000816080015111156115fe576040517f08c379a00000000000000000000000000000000000000000000000000000000081526004016115f590612830565b60405180910390fd5b6001808054905061160f9190612318565b8160a0015114611718576000600180808054905061162d9190612318565b8154811061163e5761163d6120cd565b5b9060005260206000200160009054906101000a900473ffffffffffffffffffffffffffffffffffffffff1690508060018360a0015181548110611684576116836120cd565b5b9060005260206000200160006101000a81548173ffffffffffffffffffffffffffffffffffffffff021916908373ffffffffffffffffffffffffffffffffffffffff1602179055508160a001516000808373ffffffffffffffffffffffffffffffffffffffff1673ffffffffffffffffffffffffffffffffffffffff16815260200190815260200160002060050181905550505b600180548061172a57611729612850565b5b6001900381819060005260206000200160006101000a81549073ffffffffffffffffffffffffffffffffffffffff021916905590556001915050919050565b611801828260405160240161177f92919061287f565b6040516020818303038152906040527f319af333000000000000000000000000000000000000000000000000000000007bffffffffffffffffffffffffffffffffffffffffffffffffffffffff19166020820180517bffffffffffffffffffffffffffffffffffffffffffffffffffffffff8381831617835250505050611a91565b5050565b61189f83838360405160240161181d939291906128af565b6040516020818303038152906040527fca47c4eb000000000000000000000000000000000000000000000000000000007bffffffffffffffffffffffffffffffffffffffffffffffffffffffff19166020820180517bffffffffffffffffffffffffffffffffffffffffffffffffffffffff8381831617835250505050611a91565b505050565b60008183106118b357816118b5565b825b905092915050565b6119578383836040516024016118d5939291906128ed565b6040516020818303038152906040527f0d26b925000000000000000000000000000000000000000000000000000000007bffffffffffffffffffffffffffffffffffffffffffffffffffffffff19166020820180517bffffffffffffffffffffffffffffffffffffffffffffffffffffffff8381831617835250505050611a91565b505050565b6119f4828260405160240161197292919061292b565b6040516020818303038152906040527f4b5c4277000000000000000000000000000000000000000000000000000000007bffffffffffffffffffffffffffffffffffffffffffffffffffffffff19166020820180517bffffffffffffffffffffffffffffffffffffffffffffffffffffffff8381831617835250505050611a91565b5050565b611a8e81604051602401611a0c91906122a5565b6040516020818303038152906040527f41304fac000000000000000000000000000000000000000000000000000000007bffffffffffffffffffffffffffffffffffffffffffffffffffffffff19166020820180517bffffffffffffffffffffffffffffffffffffffffffffffffffffffff8381831617835250505050611a91565b50565b60008151905060006a636f6e736f6c652e6c6f679050602083016000808483855afa5050505050565b6000604051905090565b600080fd5b600080fd5b600073ffffffffffffffffffffffffffffffffffffffff82169050919050565b6000611af982611ace565b9050919050565b611b0981611aee565b8114611b1457600080fd5b50565b600081359050611b2681611b00565b92915050565b600060208284031215611b4257611b41611ac4565b5b6000611b5084828501611b17565b91505092915050565b611b6281611aee565b82525050565b6000602082019050611b7d6000830184611b59565b92915050565b6000819050919050565b611b9681611b83565b82525050565b6000602082019050611bb16000830184611b8d565b92915050565b600080fd5b600080fd5b600080fd5b60008083601f840112611bdc57611bdb611bb7565b5b8235905067ffffffffffffffff811115611bf957611bf8611bbc565b5b602083019150836001820283011115611c1557611c14611bc1565b5b9250929050565b60008060208385031215611c3357611c32611ac4565b5b600083013567ffffffffffffffff811115611c5157611c50611ac9565b5b611c5d85828601611bc6565b92509250509250929050565b600080fd5b6000601f19601f8301169050919050565b7f4e487b7100000000000000000000000000000000000000000000000000000000600052604160045260246000fd5b611cb782611c6e565b810181811067ffffffffffffffff82111715611cd657611cd5611c7f565b5b80604052505050565b6000611ce9611aba565b9050611cf58282611cae565b919050565b600067ffffffffffffffff821115611d1557611d14611c7f565b5b611d1e82611c6e565b9050602081019050919050565b82818337600083830152505050565b6000611d4d611d4884611cfa565b611cdf565b905082815260208101848484011115611d6957611d68611c69565b5b611d74848285611d2b565b509392505050565b600082601f830112611d9157611d90611bb7565b5b8135611da1848260208601611d3a565b91505092915050565b600060208284031215611dc057611dbf611ac4565b5b600082013567ffffffffffffffff811115611dde57611ddd611ac9565b5b611dea84828501611d7c565b91505092915050565b60008115159050919050565b611e0881611df3565b82525050565b600081519050919050565b600082825260208201905092915050565b60005b83811015611e48578082015181840152602081019050611e2d565b60008484015250505050565b6000611e5f82611e0e565b611e698185611e19565b9350611e79818560208601611e2a565b611e8281611c6e565b840191505092915050565b6000604082019050611ea26000830185611dff565b8181036020830152611eb48184611e54565b90509392505050565b611ec681611b83565b8114611ed157600080fd5b50565b600081359050611ee381611ebd565b92915050565b60008060008060808587031215611f0357611f02611ac4565b5b6000611f1187828801611ed4565b9450506020611f2287828801611b17565b9350506040611f3387828801611ed4565b9250506060611f4487828801611ed4565b91505092959194509250565b600081519050919050565b600082825260208201905092915050565b6000819050602082019050919050565b611f8581611aee565b82525050565b6000611f978383611f7c565b60208301905092915050565b6000602082019050919050565b6000611fbb82611f50565b611fc58185611f5b565b9350611fd083611f6c565b8060005b83811015612001578151611fe88882611f8b565b9750611ff383611fa3565b925050600181019050611fd4565b5085935050505092915050565b600060208201905081810360008301526120288184611fb0565b905092915050565b60006020820190506120456000830184611dff565b92915050565b60006040820190506120606000830185611b59565b61206d6020830184611b8d565b9392505050565b61207d81611df3565b811461208857600080fd5b50565b60008151905061209a81612074565b92915050565b6000602082840312156120b6576120b5611ac4565b5b60006120c48482850161208b565b91505092915050565b7f4e487b7100000000000000000000000000000000000000000000000000000000600052603260045260246000fd5b600060a0820190506121116000830188611b8d565b61211e6020830187611b59565b61212b6040830186611b59565b6121386060830185611b59565b6121456080830184611b8d565b9695505050505050565b60008151905061215e81611ebd565b92915050565b60006020828403121561217a57612179611ac4565b5b60006121888482850161214f565b91505092915050565b60008160e01c9050919050565b600060033d11156121bd5760046000803e6121ba600051612191565b90505b90565b600060443d1061224d576121d2611aba565b60043d036004823e80513d602482011167ffffffffffffffff821117156121fa57505061224d565b808201805167ffffffffffffffff811115612218575050505061224d565b80602083010160043d03850181111561223557505050505061224d565b61224482602001850186611cae565b82955050505050505b90565b600081519050919050565b600082825260208201905092915050565b600061227782612250565b612281818561225b565b9350612291818560208601611e2a565b61229a81611c6e565b840191505092915050565b600060208201905081810360008301526122bf818461226c565b905092915050565b600060208201905081810360008301526122e18184611e54565b905092915050565b7f4e487b7100000000000000000000000000000000000000000000000000000000600052601160045260246000fd5b600061232382611b83565b915061232e83611b83565b9250828203905081811115612346576123456122e9565b5b92915050565b600061235782611b83565b915061236283611b83565b925082820190508082111561237a576123796122e9565b5b92915050565b600061238b82611b83565b91507fffffffffffffffffffffffffffffffffffffffffffffffffffffffffffffffff82036123bd576123bc6122e9565b5b600182019050919050565b7f6465706f7369743a20416d6f756e74206d75737420626520677265617465722060008201527f7468616e207a65726f0000000000000000000000000000000000000000000000602082015250565b600061242460298361225b565b915061242f826123c8565b604082019050919050565b6000602082019050818103600083015261245381612417565b9050919050565b600060408201905061246f6000830185611b59565b61247c6020830184611b59565b9392505050565b7f6465706f7369743a20496e73756666696369656e7420616c6c6f77616e636500600082015250565b60006124b9601f8361225b565b91506124c482612483565b602082019050919050565b600060208201905081810360008301526124e8816124ac565b9050919050565b60008160011c9050919050565b6000808291508390505b600185111561254657808604811115612522576125216122e9565b5b60018516156125315780820291505b808102905061253f856124ef565b9450612506565b94509492505050565b60008261255f576001905061261b565b8161256d576000905061261b565b8160018114612583576002811461258d576125bc565b600191505061261b565b60ff84111561259f5761259e6122e9565b5b8360020a9150848211156125b6576125b56122e9565b5b5061261b565b5060208310610133831016604e8410600b84101617156125f15782820a9050838111156125ec576125eb6122e9565b5b61261b565b6125fe84848460016124fc565b92509050818404811115612615576126146122e9565b5b81810290505b9392505050565b600061262d82611b83565b915061263883611b83565b92506126657fffffffffffffffffffffffffffffffffffffffffffffffffffffffffffffffff848461254f565b905092915050565b600061267882611b83565b915061268383611b83565b925082820261269181611b83565b915082820484148315176126a8576126a76122e9565b5b5092915050565b60006060820190506126c46000830186611b59565b6126d16020830185611b59565b6126de6040830184611b8d565b949350505050565b7f6465706f7369743a207472616e7366657246726f6d206661696c656400000000600082015250565b600061271c601c8361225b565b9150612727826126e6565b602082019050919050565b6000602082019050818103600083015261274b8161270f565b9050919050565b7f496e766573746f7220646f6573206e6f74206578697374000000000000000000600082015250565b600061278860178361225b565b915061279382612752565b602082019050919050565b600060208201905081810360008301526127b78161277b565b9050919050565b7f43616e6e6f742072656d6f766520616e20696e766573746f722077697468206160008201527f20706f7369746976652062616c616e6365000000000000000000000000000000602082015250565b600061281a60318361225b565b9150612825826127be565b604082019050919050565b600060208201905081810360008301526128498161280d565b9050919050565b7f4e487b7100000000000000000000000000000000000000000000000000000000600052603160045260246000fd5b60006040820190508181036000830152612899818561226c565b90506128a86020830184611b59565b9392505050565b600060608201905081810360008301526128c9818661226c565b90506128d86020830185611b8d565b6128e56040830184611b8d565b949350505050565b60006060820190508181036000830152612907818661226c565b90506129166020830185611b59565b6129236040830184611b8d565b949350505050565b60006040820190508181036000830152612945818561226c565b90508181036020830152612959818461226c565b9050939250505056fe436865636b2069662053776170206966206e65656420666f722061646472657373203a20256f2053776170205553444320666f7220546f6b656e203a20256f202c207769746820616d6f756e74203a20256f4e6f206d6f72652066756e6420746f20737761702c2072656d6f76696e6720616464726573732066726f6d20696e766573746f7273206c6973744e657874206275792074696d657374616d70206e6f742072656163686564203a20256f202c2063757272656e74207469656d7374616d70203a20256fa264697066735822122039e0f748e9630bb2987476be7ba5d277c704a06c5c364412b65425fabced833864736f6c63430008110033",
  "devdoc": {
    "kind": "dev",
    "methods": {},
    "version": 1
  },
  "userdoc": {
    "kind": "user",
    "methods": {},
    "version": 1
  },
  "storageLayout": {
    "storage": [
      {
        "astId": 2474,
        "contract": "contracts/Dca.sol:Dca",
        "label": "s_addressToInvestConfig",
        "offset": 0,
        "slot": "0",
        "type": "t_mapping(t_address,t_struct(InvestConfig)2492_storage)"
      },
      {
        "astId": 2477,
        "contract": "contracts/Dca.sol:Dca",
        "label": "s_investors",
        "offset": 0,
        "slot": "1",
        "type": "t_array(t_address)dyn_storage"
      },
      {
        "astId": 2495,
        "contract": "contracts/Dca.sol:Dca",
        "label": "s_usdc",
        "offset": 0,
        "slot": "2",
        "type": "t_contract(IERC20)722"
      },
      {
        "astId": 2499,
        "contract": "contracts/Dca.sol:Dca",
        "label": "lastTimeStamp",
        "offset": 0,
        "slot": "3",
        "type": "t_uint256"
      }
    ],
    "types": {
      "t_address": {
        "encoding": "inplace",
        "label": "address",
        "numberOfBytes": "20"
      },
      "t_array(t_address)dyn_storage": {
        "base": "t_address",
        "encoding": "dynamic_array",
        "label": "address[]",
        "numberOfBytes": "32"
      },
      "t_bool": {
        "encoding": "inplace",
        "label": "bool",
        "numberOfBytes": "1"
      },
      "t_contract(IERC20)722": {
        "encoding": "inplace",
        "label": "contract IERC20",
        "numberOfBytes": "20"
      },
      "t_mapping(t_address,t_struct(InvestConfig)2492_storage)": {
        "encoding": "mapping",
        "key": "t_address",
        "label": "mapping(address => struct Dca.InvestConfig)",
        "numberOfBytes": "32",
        "value": "t_struct(InvestConfig)2492_storage"
      },
      "t_struct(InvestConfig)2492_storage": {
        "encoding": "inplace",
        "label": "struct Dca.InvestConfig",
        "members": [
          {
            "astId": 2479,
            "contract": "contracts/Dca.sol:Dca",
            "label": "tokenToBuy",
            "offset": 0,
            "slot": "0",
            "type": "t_address"
          },
          {
            "astId": 2481,
            "contract": "contracts/Dca.sol:Dca",
            "label": "amountToBuy",
            "offset": 0,
            "slot": "1",
            "type": "t_uint256"
          },
          {
            "astId": 2483,
            "contract": "contracts/Dca.sol:Dca",
            "label": "buyInterval",
            "offset": 0,
            "slot": "2",
            "type": "t_uint256"
          },
          {
            "astId": 2485,
            "contract": "contracts/Dca.sol:Dca",
            "label": "nextBuyTimestamp",
            "offset": 0,
            "slot": "3",
            "type": "t_uint256"
          },
          {
            "astId": 2487,
            "contract": "contracts/Dca.sol:Dca",
            "label": "amountDeposited",
            "offset": 0,
            "slot": "4",
            "type": "t_uint256"
          },
          {
            "astId": 2489,
            "contract": "contracts/Dca.sol:Dca",
            "label": "index",
            "offset": 0,
            "slot": "5",
            "type": "t_uint256"
          },
          {
            "astId": 2491,
            "contract": "contracts/Dca.sol:Dca",
            "label": "exists",
            "offset": 0,
            "slot": "6",
            "type": "t_bool"
          }
        ],
        "numberOfBytes": "224"
      },
      "t_uint256": {
        "encoding": "inplace",
        "label": "uint256",
        "numberOfBytes": "32"
      }
    }
  }
}