{
  "address": "0x2BB8B93F585B43b06F3d523bf30C203d3B6d4BD4",
  "abi": [
    {
      "inputs": [
        {
          "internalType": "address",
          "name": "usdcAddress",
          "type": "address"
        },
        {
          "internalType": "contract ISwapRouter",
          "name": "_swapRouter",
          "type": "address"
        }
      ],
      "stateMutability": "nonpayable",
      "type": "constructor"
    },
    {
      "inputs": [],
      "name": "DAI",
      "outputs": [
        {
          "internalType": "address",
          "name": "",
          "type": "address"
        }
      ],
      "stateMutability": "view",
      "type": "function"
    },
    {
      "inputs": [],
      "name": "WETH9",
      "outputs": [
        {
          "internalType": "address",
          "name": "",
          "type": "address"
        }
      ],
      "stateMutability": "view",
      "type": "function"
    },
    {
      "inputs": [
        {
          "internalType": "uint256",
          "name": "depositAmount",
          "type": "uint256"
        }
      ],
      "name": "deposit",
      "outputs": [],
      "stateMutability": "nonpayable",
      "type": "function"
    },
    {
      "inputs": [],
      "name": "feeTier",
      "outputs": [
        {
          "internalType": "uint24",
          "name": "",
          "type": "uint24"
        }
      ],
      "stateMutability": "view",
      "type": "function"
    },
    {
      "inputs": [
        {
          "internalType": "address",
          "name": "investor",
          "type": "address"
        }
      ],
      "name": "getAmountInvestedForAddress",
      "outputs": [
        {
          "internalType": "uint256",
          "name": "",
          "type": "uint256"
        }
      ],
      "stateMutability": "view",
      "type": "function"
    },
    {
      "inputs": [],
      "name": "swapRouter",
      "outputs": [
        {
          "internalType": "contract ISwapRouter",
          "name": "",
          "type": "address"
        }
      ],
      "stateMutability": "view",
      "type": "function"
    },
    {
      "inputs": [
        {
          "internalType": "uint256",
          "name": "amountIn",
          "type": "uint256"
        }
      ],
      "name": "swapWETHForDAI",
      "outputs": [
        {
          "internalType": "uint256",
          "name": "amountOut",
          "type": "uint256"
        }
      ],
      "stateMutability": "nonpayable",
      "type": "function"
    },
    {
      "inputs": [],
      "name": "withdraw",
      "outputs": [],
      "stateMutability": "nonpayable",
      "type": "function"
    }
  ],
  "transactionHash": "0xa64c97cb87fae311cbbb6571134a3b17bdb8168264ce4384351fe40168d94704",
  "args": [
    "0x7A28cf37763279F774916b85b5ef8b64AB421f79",
    "0x0000000000000000000000000000000000000000"
  ],
  "numDeployments": 1,
  "solcInputHash": "e743e6ddc71ac9040dfe01118d3af51b",
  "bytecode": "0x60a06040523480156200001157600080fd5b506040516200157838038062001578833981810160405281019062000037919062000163565b81600160006101000a81548173ffffffffffffffffffffffffffffffffffffffff021916908373ffffffffffffffffffffffffffffffffffffffff1602179055508073ffffffffffffffffffffffffffffffffffffffff1660808173ffffffffffffffffffffffffffffffffffffffff16815250505050620001aa565b600080fd5b600073ffffffffffffffffffffffffffffffffffffffff82169050919050565b6000620000e682620000b9565b9050919050565b620000f881620000d9565b81146200010457600080fd5b50565b6000815190506200011881620000ed565b92915050565b60006200012b82620000d9565b9050919050565b6200013d816200011e565b81146200014957600080fd5b50565b6000815190506200015d8162000132565b92915050565b600080604083850312156200017d576200017c620000b4565b5b60006200018d8582860162000107565b9250506020620001a0858286016200014c565b9150509250929050565b6080516113a4620001d4600039600081816101c7015281816102b601526107aa01526113a46000f3fe608060405234801561001057600080fd5b50600436106100885760003560e01c806372f5d98a1161005b57806372f5d98a14610115578063b6b55f2514610133578063c31c9c071461014f578063e0bab4c41461016d57610088565b80632ed5016f1461008d578063351b1524146100bd5780633ccfd60b146100ed5780634aa4a4fc146100f7575b600080fd5b6100a760048036038101906100a29190610b8e565b61018b565b6040516100b49190610bca565b60405180910390f35b6100d760048036038101906100d29190610c43565b61035a565b6040516100e49190610bca565b60405180910390f35b6100f56103a2565b005b6100ff6104dc565b60405161010c9190610c7f565b60405180910390f35b61011d6104f4565b60405161012a9190610cb8565b60405180910390f35b61014d60048036038101906101489190610b8e565b6104fa565b005b6101576107a8565b6040516101649190610d32565b60405180910390f35b6101756107cc565b6040516101829190610c7f565b60405180910390f35b60006101ad73c02aaa39b223fe8d0a0e5c4f27ead9083c756cc23330856107e4565b6101ec73c02aaa39b223fe8d0a0e5c4f27ead9083c756cc27f00000000000000000000000000000000000000000000000000000000000000008461093c565b600080600060405180610100016040528073c02aaa39b223fe8d0a0e5c4f27ead9083c756cc273ffffffffffffffffffffffffffffffffffffffff16815260200173c02aaa39b223fe8d0a0e5c4f27ead9083c756cc273ffffffffffffffffffffffffffffffffffffffff168152602001610bb862ffffff1681526020013373ffffffffffffffffffffffffffffffffffffffff1681526020014281526020018681526020018481526020018373ffffffffffffffffffffffffffffffffffffffff1681525090507f000000000000000000000000000000000000000000000000000000000000000073ffffffffffffffffffffffffffffffffffffffff1663414bf389826040518263ffffffff1660e01b815260040161030d9190610e2b565b6020604051808303816000875af115801561032c573d6000803e3d6000fd5b505050506040513d601f19601f820116820180604052508101906103509190610e5c565b9350505050919050565b60008060008373ffffffffffffffffffffffffffffffffffffffff1673ffffffffffffffffffffffffffffffffffffffff168152602001908152602001600020549050919050565b60008060003373ffffffffffffffffffffffffffffffffffffffff1673ffffffffffffffffffffffffffffffffffffffff168152602001908152602001600020549050600081116103f357506104da565b60008060003373ffffffffffffffffffffffffffffffffffffffff1673ffffffffffffffffffffffffffffffffffffffff16815260200190815260200160002081905550600160009054906101000a900473ffffffffffffffffffffffffffffffffffffffff1673ffffffffffffffffffffffffffffffffffffffff1663a9059cbb33836040518363ffffffff1660e01b8152600401610494929190610e89565b6020604051808303816000875af11580156104b3573d6000803e3d6000fd5b505050506040513d601f19601f820116820180604052508101906104d79190610eea565b50505b565b73c02aaa39b223fe8d0a0e5c4f27ead9083c756cc281565b610bb881565b6105386040518060400160405280600f81526020017f43616c6c696e67206465706f7369740000000000000000000000000000000000815250610a91565b6000811161057b576040517f08c379a000000000000000000000000000000000000000000000000000000000815260040161057290610f9a565b60405180910390fd5b80600160009054906101000a900473ffffffffffffffffffffffffffffffffffffffff1673ffffffffffffffffffffffffffffffffffffffff1663dd62ed3e33306040518363ffffffff1660e01b81526004016105d9929190610fba565b602060405180830381865afa1580156105f6573d6000803e3d6000fd5b505050506040513d601f19601f8201168201806040525081019061061a9190610e5c565b101561065b576040517f08c379a00000000000000000000000000000000000000000000000000000000081526004016106529061102f565b60405180910390fd5b6000620f42408261066c919061107e565b9050600160009054906101000a900473ffffffffffffffffffffffffffffffffffffffff1673ffffffffffffffffffffffffffffffffffffffff166323b872dd3330846040518463ffffffff1660e01b81526004016106cd939291906110c0565b6020604051808303816000875af11580156106ec573d6000803e3d6000fd5b505050506040513d601f19601f820116820180604052508101906107109190610eea565b61074f576040517f08c379a000000000000000000000000000000000000000000000000000000000815260040161074690611143565b60405180910390fd5b806000803373ffffffffffffffffffffffffffffffffffffffff1673ffffffffffffffffffffffffffffffffffffffff168152602001908152602001600020600082825461079d9190611163565b925050819055505050565b7f000000000000000000000000000000000000000000000000000000000000000081565b73c02aaa39b223fe8d0a0e5c4f27ead9083c756cc281565b6000808573ffffffffffffffffffffffffffffffffffffffff166323b872dd60e01b86868660405160240161081b939291906110c0565b604051602081830303815290604052907bffffffffffffffffffffffffffffffffffffffffffffffffffffffff19166020820180517bffffffffffffffffffffffffffffffffffffffffffffffffffffffff83818316178352505050506040516108859190611208565b6000604051808303816000865af19150503d80600081146108c2576040519150601f19603f3d011682016040523d82523d6000602084013e6108c7565b606091505b50915091508180156108f557506000815114806108f45750808060200190518101906108f39190610eea565b5b5b610934576040517f08c379a000000000000000000000000000000000000000000000000000000000815260040161092b9061126b565b60405180910390fd5b505050505050565b6000808473ffffffffffffffffffffffffffffffffffffffff1663095ea7b360e01b8585604051602401610971929190610e89565b604051602081830303815290604052907bffffffffffffffffffffffffffffffffffffffffffffffffffffffff19166020820180517bffffffffffffffffffffffffffffffffffffffffffffffffffffffff83818316178352505050506040516109db9190611208565b6000604051808303816000865af19150503d8060008114610a18576040519150601f19603f3d011682016040523d82523d6000602084013e610a1d565b606091505b5091509150818015610a4b5750600081511480610a4a575080806020019051810190610a499190610eea565b5b5b610a8a576040517f08c379a0000000000000000000000000000000000000000000000000000000008152600401610a81906112d7565b60405180910390fd5b5050505050565b610b2781604051602401610aa5919061134c565b6040516020818303038152906040527f41304fac000000000000000000000000000000000000000000000000000000007bffffffffffffffffffffffffffffffffffffffffffffffffffffffff19166020820180517bffffffffffffffffffffffffffffffffffffffffffffffffffffffff8381831617835250505050610b2a565b50565b60008151905060006a636f6e736f6c652e6c6f679050602083016000808483855afa5050505050565b600080fd5b6000819050919050565b610b6b81610b58565b8114610b7657600080fd5b50565b600081359050610b8881610b62565b92915050565b600060208284031215610ba457610ba3610b53565b5b6000610bb284828501610b79565b91505092915050565b610bc481610b58565b82525050565b6000602082019050610bdf6000830184610bbb565b92915050565b600073ffffffffffffffffffffffffffffffffffffffff82169050919050565b6000610c1082610be5565b9050919050565b610c2081610c05565b8114610c2b57600080fd5b50565b600081359050610c3d81610c17565b92915050565b600060208284031215610c5957610c58610b53565b5b6000610c6784828501610c2e565b91505092915050565b610c7981610c05565b82525050565b6000602082019050610c946000830184610c70565b92915050565b600062ffffff82169050919050565b610cb281610c9a565b82525050565b6000602082019050610ccd6000830184610ca9565b92915050565b6000819050919050565b6000610cf8610cf3610cee84610be5565b610cd3565b610be5565b9050919050565b6000610d0a82610cdd565b9050919050565b6000610d1c82610cff565b9050919050565b610d2c81610d11565b82525050565b6000602082019050610d476000830184610d23565b92915050565b610d5681610c05565b82525050565b610d6581610c9a565b82525050565b610d7481610b58565b82525050565b610d8381610be5565b82525050565b61010082016000820151610da06000850182610d4d565b506020820151610db36020850182610d4d565b506040820151610dc66040850182610d5c565b506060820151610dd96060850182610d4d565b506080820151610dec6080850182610d6b565b5060a0820151610dff60a0850182610d6b565b5060c0820151610e1260c0850182610d6b565b5060e0820151610e2560e0850182610d7a565b50505050565b600061010082019050610e416000830184610d89565b92915050565b600081519050610e5681610b62565b92915050565b600060208284031215610e7257610e71610b53565b5b6000610e8084828501610e47565b91505092915050565b6000604082019050610e9e6000830185610c70565b610eab6020830184610bbb565b9392505050565b60008115159050919050565b610ec781610eb2565b8114610ed257600080fd5b50565b600081519050610ee481610ebe565b92915050565b600060208284031215610f0057610eff610b53565b5b6000610f0e84828501610ed5565b91505092915050565b600082825260208201905092915050565b7f6465706f7369743a20416d6f756e74206d75737420626520677265617465722060008201527f7468616e207a65726f0000000000000000000000000000000000000000000000602082015250565b6000610f84602983610f17565b9150610f8f82610f28565b604082019050919050565b60006020820190508181036000830152610fb381610f77565b9050919050565b6000604082019050610fcf6000830185610c70565b610fdc6020830184610c70565b9392505050565b7f6465706f7369743a20496e73756666696369656e7420616c6c6f77616e636500600082015250565b6000611019601f83610f17565b915061102482610fe3565b602082019050919050565b600060208201905081810360008301526110488161100c565b9050919050565b7f4e487b7100000000000000000000000000000000000000000000000000000000600052601160045260246000fd5b600061108982610b58565b915061109483610b58565b92508282026110a281610b58565b915082820484148315176110b9576110b861104f565b5b5092915050565b60006060820190506110d56000830186610c70565b6110e26020830185610c70565b6110ef6040830184610bbb565b949350505050565b7f6465706f7369743a207472616e7366657246726f6d206661696c656400000000600082015250565b600061112d601c83610f17565b9150611138826110f7565b602082019050919050565b6000602082019050818103600083015261115c81611120565b9050919050565b600061116e82610b58565b915061117983610b58565b92508282019050808211156111915761119061104f565b5b92915050565b600081519050919050565b600081905092915050565b60005b838110156111cb5780820151818401526020810190506111b0565b60008484015250505050565b60006111e282611197565b6111ec81856111a2565b93506111fc8185602086016111ad565b80840191505092915050565b600061121482846111d7565b915081905092915050565b7f5354460000000000000000000000000000000000000000000000000000000000600082015250565b6000611255600383610f17565b91506112608261121f565b602082019050919050565b6000602082019050818103600083015261128481611248565b9050919050565b7f5341000000000000000000000000000000000000000000000000000000000000600082015250565b60006112c1600283610f17565b91506112cc8261128b565b602082019050919050565b600060208201905081810360008301526112f0816112b4565b9050919050565b600081519050919050565b6000601f19601f8301169050919050565b600061131e826112f7565b6113288185610f17565b93506113388185602086016111ad565b61134181611302565b840191505092915050565b600060208201905081810360008301526113668184611313565b90509291505056fea264697066735822122061ab8a103fe43bd0bcbd01275eb05cbf5ef1f27b5ca98844ab994580eaf6f0bb64736f6c63430008110033",
  "devdoc": {
    "kind": "dev",
    "methods": {},
    "version": 1
  },
  "userdoc": {
    "kind": "user",
    "methods": {},
    "version": 1
  },
  "storageLayout": {
    "storage": [
      {
        "astId": 1122,
        "contract": "contracts/Dca.sol:Dca",
        "label": "s_addressToAmountDeposited",
        "offset": 0,
        "slot": "0",
        "type": "t_mapping(t_address,t_uint256)"
      },
      {
        "astId": 1125,
        "contract": "contracts/Dca.sol:Dca",
        "label": "s_usdc",
        "offset": 0,
        "slot": "1",
        "type": "t_contract(IERC20)777"
      }
    ],
    "types": {
      "t_address": {
        "encoding": "inplace",
        "label": "address",
        "numberOfBytes": "20"
      },
      "t_contract(IERC20)777": {
        "encoding": "inplace",
        "label": "contract IERC20",
        "numberOfBytes": "20"
      },
      "t_mapping(t_address,t_uint256)": {
        "encoding": "mapping",
        "key": "t_address",
        "label": "mapping(address => uint256)",
        "numberOfBytes": "32",
        "value": "t_uint256"
      },
      "t_uint256": {
        "encoding": "inplace",
        "label": "uint256",
        "numberOfBytes": "32"
      }
    }
  }
}