{
  "address": "0x2BB8B93F585B43b06F3d523bf30C203d3B6d4BD4",
  "abi": [
    {
      "inputs": [
        {
          "internalType": "address",
          "name": "usdcAddress",
          "type": "address"
        },
        {
          "internalType": "contract ISwapRouter",
          "name": "_swapRouter",
          "type": "address"
        }
      ],
      "stateMutability": "nonpayable",
      "type": "constructor"
    },
    {
      "inputs": [],
      "name": "Dca__WithdrawError",
      "type": "error"
    },
    {
      "inputs": [],
      "name": "DAI",
      "outputs": [
        {
          "internalType": "address",
          "name": "",
          "type": "address"
        }
      ],
      "stateMutability": "view",
      "type": "function"
    },
    {
      "inputs": [],
      "name": "WETH9",
      "outputs": [
        {
          "internalType": "address",
          "name": "",
          "type": "address"
        }
      ],
      "stateMutability": "view",
      "type": "function"
    },
    {
      "inputs": [
        {
          "internalType": "uint256",
          "name": "depositAmount",
          "type": "uint256"
        }
      ],
      "name": "deposit",
      "outputs": [],
      "stateMutability": "nonpayable",
      "type": "function"
    },
    {
      "inputs": [],
      "name": "feeTier",
      "outputs": [
        {
          "internalType": "uint24",
          "name": "",
          "type": "uint24"
        }
      ],
      "stateMutability": "view",
      "type": "function"
    },
    {
      "inputs": [
        {
          "internalType": "address",
          "name": "investor",
          "type": "address"
        }
      ],
      "name": "getAmountInvestedForAddress",
      "outputs": [
        {
          "internalType": "uint256",
          "name": "",
          "type": "uint256"
        }
      ],
      "stateMutability": "view",
      "type": "function"
    },
    {
      "inputs": [],
      "name": "swapRouter",
      "outputs": [
        {
          "internalType": "contract ISwapRouter",
          "name": "",
          "type": "address"
        }
      ],
      "stateMutability": "view",
      "type": "function"
    },
    {
      "inputs": [
        {
          "internalType": "uint256",
          "name": "amountIn",
          "type": "uint256"
        }
      ],
      "name": "swapWETHForDAI",
      "outputs": [
        {
          "internalType": "uint256",
          "name": "amountOut",
          "type": "uint256"
        }
      ],
      "stateMutability": "nonpayable",
      "type": "function"
    },
    {
      "inputs": [],
      "name": "withdraw",
      "outputs": [],
      "stateMutability": "nonpayable",
      "type": "function"
    }
  ],
  "transactionHash": "0x8368043d90f6d3e43963870092c10857c6f3bef659d240cb5a75725035090adb",
  "args": [
    "0x7A28cf37763279F774916b85b5ef8b64AB421f79",
    "0x0000000000000000000000000000000000000000"
  ],
  "numDeployments": 1,
  "solcInputHash": "a62f47c1e8a949fd26077b3952826114",
  "bytecode": "0x60a06040523480156200001157600080fd5b50604051620015a3380380620015a3833981810160405281019062000037919062000163565b81600160006101000a81548173ffffffffffffffffffffffffffffffffffffffff021916908373ffffffffffffffffffffffffffffffffffffffff1602179055508073ffffffffffffffffffffffffffffffffffffffff1660808173ffffffffffffffffffffffffffffffffffffffff16815250505050620001aa565b600080fd5b600073ffffffffffffffffffffffffffffffffffffffff82169050919050565b6000620000e682620000b9565b9050919050565b620000f881620000d9565b81146200010457600080fd5b50565b6000815190506200011881620000ed565b92915050565b60006200012b82620000d9565b9050919050565b6200013d816200011e565b81146200014957600080fd5b50565b6000815190506200015d8162000132565b92915050565b600080604083850312156200017d576200017c620000b4565b5b60006200018d8582860162000107565b9250506020620001a0858286016200014c565b9150509250929050565b6080516113cf620001d4600039600081816101c7015281816102b601526107d501526113cf6000f3fe608060405234801561001057600080fd5b50600436106100885760003560e01c806372f5d98a1161005b57806372f5d98a14610115578063b6b55f2514610133578063c31c9c071461014f578063e0bab4c41461016d57610088565b80632ed5016f1461008d578063351b1524146100bd5780633ccfd60b146100ed5780634aa4a4fc146100f7575b600080fd5b6100a760048036038101906100a29190610bb9565b61018b565b6040516100b49190610bf5565b60405180910390f35b6100d760048036038101906100d29190610c6e565b61035a565b6040516100e49190610bf5565b60405180910390f35b6100f56103a2565b005b6100ff610507565b60405161010c9190610caa565b60405180910390f35b61011d61051f565b60405161012a9190610ce3565b60405180910390f35b61014d60048036038101906101489190610bb9565b610525565b005b6101576107d3565b6040516101649190610d5d565b60405180910390f35b6101756107f7565b6040516101829190610caa565b60405180910390f35b60006101ad73c02aaa39b223fe8d0a0e5c4f27ead9083c756cc233308561080f565b6101ec73c02aaa39b223fe8d0a0e5c4f27ead9083c756cc27f000000000000000000000000000000000000000000000000000000000000000084610967565b600080600060405180610100016040528073c02aaa39b223fe8d0a0e5c4f27ead9083c756cc273ffffffffffffffffffffffffffffffffffffffff16815260200173c02aaa39b223fe8d0a0e5c4f27ead9083c756cc273ffffffffffffffffffffffffffffffffffffffff168152602001610bb862ffffff1681526020013373ffffffffffffffffffffffffffffffffffffffff1681526020014281526020018681526020018481526020018373ffffffffffffffffffffffffffffffffffffffff1681525090507f000000000000000000000000000000000000000000000000000000000000000073ffffffffffffffffffffffffffffffffffffffff1663414bf389826040518263ffffffff1660e01b815260040161030d9190610e56565b6020604051808303816000875af115801561032c573d6000803e3d6000fd5b505050506040513d601f19601f820116820180604052508101906103509190610e87565b9350505050919050565b60008060008373ffffffffffffffffffffffffffffffffffffffff1673ffffffffffffffffffffffffffffffffffffffff168152602001908152602001600020549050919050565b60008060003373ffffffffffffffffffffffffffffffffffffffff1673ffffffffffffffffffffffffffffffffffffffff1681526020019081526020016000205490506000811161041f576040517fd8c980eb00000000000000000000000000000000000000000000000000000000815260040160405180910390fd5b60008060003373ffffffffffffffffffffffffffffffffffffffff1673ffffffffffffffffffffffffffffffffffffffff16815260200190815260200160002081905550600160009054906101000a900473ffffffffffffffffffffffffffffffffffffffff1673ffffffffffffffffffffffffffffffffffffffff1663a9059cbb33836040518363ffffffff1660e01b81526004016104c0929190610eb4565b6020604051808303816000875af11580156104df573d6000803e3d6000fd5b505050506040513d601f19601f820116820180604052508101906105039190610f15565b5050565b73c02aaa39b223fe8d0a0e5c4f27ead9083c756cc281565b610bb881565b6105636040518060400160405280600f81526020017f43616c6c696e67206465706f7369740000000000000000000000000000000000815250610abc565b600081116105a6576040517f08c379a000000000000000000000000000000000000000000000000000000000815260040161059d90610fc5565b60405180910390fd5b80600160009054906101000a900473ffffffffffffffffffffffffffffffffffffffff1673ffffffffffffffffffffffffffffffffffffffff1663dd62ed3e33306040518363ffffffff1660e01b8152600401610604929190610fe5565b602060405180830381865afa158015610621573d6000803e3d6000fd5b505050506040513d601f19601f820116820180604052508101906106459190610e87565b1015610686576040517f08c379a000000000000000000000000000000000000000000000000000000000815260040161067d9061105a565b60405180910390fd5b6000620f42408261069791906110a9565b9050600160009054906101000a900473ffffffffffffffffffffffffffffffffffffffff1673ffffffffffffffffffffffffffffffffffffffff166323b872dd3330846040518463ffffffff1660e01b81526004016106f8939291906110eb565b6020604051808303816000875af1158015610717573d6000803e3d6000fd5b505050506040513d601f19601f8201168201806040525081019061073b9190610f15565b61077a576040517f08c379a00000000000000000000000000000000000000000000000000000000081526004016107719061116e565b60405180910390fd5b806000803373ffffffffffffffffffffffffffffffffffffffff1673ffffffffffffffffffffffffffffffffffffffff16815260200190815260200160002060008282546107c8919061118e565b925050819055505050565b7f000000000000000000000000000000000000000000000000000000000000000081565b73c02aaa39b223fe8d0a0e5c4f27ead9083c756cc281565b6000808573ffffffffffffffffffffffffffffffffffffffff166323b872dd60e01b868686604051602401610846939291906110eb565b604051602081830303815290604052907bffffffffffffffffffffffffffffffffffffffffffffffffffffffff19166020820180517bffffffffffffffffffffffffffffffffffffffffffffffffffffffff83818316178352505050506040516108b09190611233565b6000604051808303816000865af19150503d80600081146108ed576040519150601f19603f3d011682016040523d82523d6000602084013e6108f2565b606091505b5091509150818015610920575060008151148061091f57508080602001905181019061091e9190610f15565b5b5b61095f576040517f08c379a000000000000000000000000000000000000000000000000000000000815260040161095690611296565b60405180910390fd5b505050505050565b6000808473ffffffffffffffffffffffffffffffffffffffff1663095ea7b360e01b858560405160240161099c929190610eb4565b604051602081830303815290604052907bffffffffffffffffffffffffffffffffffffffffffffffffffffffff19166020820180517bffffffffffffffffffffffffffffffffffffffffffffffffffffffff8381831617835250505050604051610a069190611233565b6000604051808303816000865af19150503d8060008114610a43576040519150601f19603f3d011682016040523d82523d6000602084013e610a48565b606091505b5091509150818015610a765750600081511480610a75575080806020019051810190610a749190610f15565b5b5b610ab5576040517f08c379a0000000000000000000000000000000000000000000000000000000008152600401610aac90611302565b60405180910390fd5b5050505050565b610b5281604051602401610ad09190611377565b6040516020818303038152906040527f41304fac000000000000000000000000000000000000000000000000000000007bffffffffffffffffffffffffffffffffffffffffffffffffffffffff19166020820180517bffffffffffffffffffffffffffffffffffffffffffffffffffffffff8381831617835250505050610b55565b50565b60008151905060006a636f6e736f6c652e6c6f679050602083016000808483855afa5050505050565b600080fd5b6000819050919050565b610b9681610b83565b8114610ba157600080fd5b50565b600081359050610bb381610b8d565b92915050565b600060208284031215610bcf57610bce610b7e565b5b6000610bdd84828501610ba4565b91505092915050565b610bef81610b83565b82525050565b6000602082019050610c0a6000830184610be6565b92915050565b600073ffffffffffffffffffffffffffffffffffffffff82169050919050565b6000610c3b82610c10565b9050919050565b610c4b81610c30565b8114610c5657600080fd5b50565b600081359050610c6881610c42565b92915050565b600060208284031215610c8457610c83610b7e565b5b6000610c9284828501610c59565b91505092915050565b610ca481610c30565b82525050565b6000602082019050610cbf6000830184610c9b565b92915050565b600062ffffff82169050919050565b610cdd81610cc5565b82525050565b6000602082019050610cf86000830184610cd4565b92915050565b6000819050919050565b6000610d23610d1e610d1984610c10565b610cfe565b610c10565b9050919050565b6000610d3582610d08565b9050919050565b6000610d4782610d2a565b9050919050565b610d5781610d3c565b82525050565b6000602082019050610d726000830184610d4e565b92915050565b610d8181610c30565b82525050565b610d9081610cc5565b82525050565b610d9f81610b83565b82525050565b610dae81610c10565b82525050565b61010082016000820151610dcb6000850182610d78565b506020820151610dde6020850182610d78565b506040820151610df16040850182610d87565b506060820151610e046060850182610d78565b506080820151610e176080850182610d96565b5060a0820151610e2a60a0850182610d96565b5060c0820151610e3d60c0850182610d96565b5060e0820151610e5060e0850182610da5565b50505050565b600061010082019050610e6c6000830184610db4565b92915050565b600081519050610e8181610b8d565b92915050565b600060208284031215610e9d57610e9c610b7e565b5b6000610eab84828501610e72565b91505092915050565b6000604082019050610ec96000830185610c9b565b610ed66020830184610be6565b9392505050565b60008115159050919050565b610ef281610edd565b8114610efd57600080fd5b50565b600081519050610f0f81610ee9565b92915050565b600060208284031215610f2b57610f2a610b7e565b5b6000610f3984828501610f00565b91505092915050565b600082825260208201905092915050565b7f6465706f7369743a20416d6f756e74206d75737420626520677265617465722060008201527f7468616e207a65726f0000000000000000000000000000000000000000000000602082015250565b6000610faf602983610f42565b9150610fba82610f53565b604082019050919050565b60006020820190508181036000830152610fde81610fa2565b9050919050565b6000604082019050610ffa6000830185610c9b565b6110076020830184610c9b565b9392505050565b7f6465706f7369743a20496e73756666696369656e7420616c6c6f77616e636500600082015250565b6000611044601f83610f42565b915061104f8261100e565b602082019050919050565b6000602082019050818103600083015261107381611037565b9050919050565b7f4e487b7100000000000000000000000000000000000000000000000000000000600052601160045260246000fd5b60006110b482610b83565b91506110bf83610b83565b92508282026110cd81610b83565b915082820484148315176110e4576110e361107a565b5b5092915050565b60006060820190506111006000830186610c9b565b61110d6020830185610c9b565b61111a6040830184610be6565b949350505050565b7f6465706f7369743a207472616e7366657246726f6d206661696c656400000000600082015250565b6000611158601c83610f42565b915061116382611122565b602082019050919050565b600060208201905081810360008301526111878161114b565b9050919050565b600061119982610b83565b91506111a483610b83565b92508282019050808211156111bc576111bb61107a565b5b92915050565b600081519050919050565b600081905092915050565b60005b838110156111f65780820151818401526020810190506111db565b60008484015250505050565b600061120d826111c2565b61121781856111cd565b93506112278185602086016111d8565b80840191505092915050565b600061123f8284611202565b915081905092915050565b7f5354460000000000000000000000000000000000000000000000000000000000600082015250565b6000611280600383610f42565b915061128b8261124a565b602082019050919050565b600060208201905081810360008301526112af81611273565b9050919050565b7f5341000000000000000000000000000000000000000000000000000000000000600082015250565b60006112ec600283610f42565b91506112f7826112b6565b602082019050919050565b6000602082019050818103600083015261131b816112df565b9050919050565b600081519050919050565b6000601f19601f8301169050919050565b600061134982611322565b6113538185610f42565b93506113638185602086016111d8565b61136c8161132d565b840191505092915050565b60006020820190508181036000830152611391818461133e565b90509291505056fea2646970667358221220170d0323051cba780646fe4d0505ca4f1cd1cbc2d22eb32d4aa56b4b35350a4f64736f6c63430008110033",
  "devdoc": {
    "kind": "dev",
    "methods": {},
    "version": 1
  },
  "userdoc": {
    "kind": "user",
    "methods": {},
    "version": 1
  },
  "storageLayout": {
    "storage": [
      {
        "astId": 377,
        "contract": "contracts/Dca.sol:Dca",
        "label": "s_addressToAmountDeposited",
        "offset": 0,
        "slot": "0",
        "type": "t_mapping(t_address,t_uint256)"
      },
      {
        "astId": 380,
        "contract": "contracts/Dca.sol:Dca",
        "label": "s_usdc",
        "offset": 0,
        "slot": "1",
        "type": "t_contract(IERC20)77"
      }
    ],
    "types": {
      "t_address": {
        "encoding": "inplace",
        "label": "address",
        "numberOfBytes": "20"
      },
      "t_contract(IERC20)77": {
        "encoding": "inplace",
        "label": "contract IERC20",
        "numberOfBytes": "20"
      },
      "t_mapping(t_address,t_uint256)": {
        "encoding": "mapping",
        "key": "t_address",
        "label": "mapping(address => uint256)",
        "numberOfBytes": "32",
        "value": "t_uint256"
      },
      "t_uint256": {
        "encoding": "inplace",
        "label": "uint256",
        "numberOfBytes": "32"
      }
    }
  }
}