{
  "address": "0x2d13826359803522cCe7a4Cfa2c1b582303DD0B4",
  "abi": [
    {
      "inputs": [
        {
          "internalType": "address",
          "name": "_usdcAddress",
          "type": "address"
        },
        {
          "internalType": "uint256",
          "name": "_keepersUpdateInterval",
          "type": "uint256"
        },
        {
          "internalType": "address",
          "name": "_swapperAddress",
          "type": "address"
        }
      ],
      "stateMutability": "nonpayable",
      "type": "constructor"
    },
    {
      "inputs": [],
      "name": "Dca__UpkeepNotNeeded",
      "type": "error"
    },
    {
      "inputs": [],
      "name": "Dca__WithdrawError",
      "type": "error"
    },
    {
      "inputs": [],
      "name": "USDC_DECIMALS",
      "outputs": [
        {
          "internalType": "uint256",
          "name": "",
          "type": "uint256"
        }
      ],
      "stateMutability": "view",
      "type": "function"
    },
    {
      "inputs": [
        {
          "internalType": "bytes",
          "name": "",
          "type": "bytes"
        }
      ],
      "name": "checkUpkeep",
      "outputs": [
        {
          "internalType": "bool",
          "name": "upkeepNeeded",
          "type": "bool"
        },
        {
          "internalType": "bytes",
          "name": "",
          "type": "bytes"
        }
      ],
      "stateMutability": "view",
      "type": "function"
    },
    {
      "inputs": [
        {
          "internalType": "uint256",
          "name": "depositAmount",
          "type": "uint256"
        },
        {
          "internalType": "address",
          "name": "tokenToBuyAddress",
          "type": "address"
        },
        {
          "internalType": "uint256",
          "name": "amountToBuy",
          "type": "uint256"
        },
        {
          "internalType": "uint256",
          "name": "buyInterval",
          "type": "uint256"
        }
      ],
      "name": "deposit",
      "outputs": [],
      "stateMutability": "nonpayable",
      "type": "function"
    },
    {
      "inputs": [
        {
          "internalType": "address",
          "name": "investor",
          "type": "address"
        }
      ],
      "name": "getAmounToBuyForAddress",
      "outputs": [
        {
          "internalType": "uint256",
          "name": "",
          "type": "uint256"
        }
      ],
      "stateMutability": "view",
      "type": "function"
    },
    {
      "inputs": [
        {
          "internalType": "address",
          "name": "investor",
          "type": "address"
        }
      ],
      "name": "getAmountInvestedForAddress",
      "outputs": [
        {
          "internalType": "uint256",
          "name": "",
          "type": "uint256"
        }
      ],
      "stateMutability": "view",
      "type": "function"
    },
    {
      "inputs": [
        {
          "internalType": "address",
          "name": "investor",
          "type": "address"
        }
      ],
      "name": "getBuyIntervalForAddress",
      "outputs": [
        {
          "internalType": "uint256",
          "name": "",
          "type": "uint256"
        }
      ],
      "stateMutability": "view",
      "type": "function"
    },
    {
      "inputs": [],
      "name": "getInvestors",
      "outputs": [
        {
          "internalType": "address[]",
          "name": "",
          "type": "address[]"
        }
      ],
      "stateMutability": "view",
      "type": "function"
    },
    {
      "inputs": [],
      "name": "getKeepersUpdateInterval",
      "outputs": [
        {
          "internalType": "uint256",
          "name": "",
          "type": "uint256"
        }
      ],
      "stateMutability": "view",
      "type": "function"
    },
    {
      "inputs": [
        {
          "internalType": "address",
          "name": "investor",
          "type": "address"
        }
      ],
      "name": "getNextBuyTimestampForAddress",
      "outputs": [
        {
          "internalType": "uint256",
          "name": "",
          "type": "uint256"
        }
      ],
      "stateMutability": "view",
      "type": "function"
    },
    {
      "inputs": [
        {
          "internalType": "address",
          "name": "investor",
          "type": "address"
        }
      ],
      "name": "getTokenToBuyForAddress",
      "outputs": [
        {
          "internalType": "address",
          "name": "",
          "type": "address"
        }
      ],
      "stateMutability": "view",
      "type": "function"
    },
    {
      "inputs": [
        {
          "internalType": "address",
          "name": "investor",
          "type": "address"
        }
      ],
      "name": "isInvestor",
      "outputs": [
        {
          "internalType": "bool",
          "name": "",
          "type": "bool"
        }
      ],
      "stateMutability": "view",
      "type": "function"
    },
    {
      "inputs": [],
      "name": "keepersUpdateInterval",
      "outputs": [
        {
          "internalType": "uint256",
          "name": "",
          "type": "uint256"
        }
      ],
      "stateMutability": "view",
      "type": "function"
    },
    {
      "inputs": [],
      "name": "lastTimeStamp",
      "outputs": [
        {
          "internalType": "uint256",
          "name": "",
          "type": "uint256"
        }
      ],
      "stateMutability": "view",
      "type": "function"
    },
    {
      "inputs": [
        {
          "internalType": "bytes",
          "name": "",
          "type": "bytes"
        }
      ],
      "name": "performUpkeep",
      "outputs": [],
      "stateMutability": "nonpayable",
      "type": "function"
    },
    {
      "inputs": [],
      "name": "withdraw",
      "outputs": [],
      "stateMutability": "nonpayable",
      "type": "function"
    }
  ],
  "transactionHash": "0x1cea9e16f835b55ab5412b2fcfd25882a5b31cf348c81f47e3dc62cbe515bc40",
  "args": [
    "0xA0b86991c6218b36c1d19D4a2e9Eb0cE3606eB48",
    "60",
    "0xd0EC100F1252a53322051a95CF05c32f0C174354"
  ],
  "numDeployments": 1,
  "solcInputHash": "712e9d8b2c5862038a6fb4a156da641f",
  "bytecode": "0x60c06040523480156200001157600080fd5b5060405162002c4a38038062002c4a833981810160405281019062000037919062000345565b82600260006101000a81548173ffffffffffffffffffffffffffffffffffffffff021916908373ffffffffffffffffffffffffffffffffffffffff1602179055508160808181525050426003819055508073ffffffffffffffffffffffffffffffffffffffff1660a08173ffffffffffffffffffffffffffffffffffffffff1681525050600067ffffffffffffffff811115620000d957620000d8620003a1565b5b604051908082528060200260200182016040528015620001085781602001602082028036833780820191505090505b506001908051906020019062000120929190620001f2565b50600260009054906101000a900473ffffffffffffffffffffffffffffffffffffffff1673ffffffffffffffffffffffffffffffffffffffff1663095ea7b360a0517fffffffffffffffffffffffffffffffffffffffffffffffffffffffffffffffff6040518363ffffffff1660e01b8152600401620001a2929190620003f2565b6020604051808303816000875af1158015620001c2573d6000803e3d6000fd5b505050506040513d601f19601f82011682018060405250810190620001e891906200045c565b505050506200048e565b8280548282559060005260206000209081019282156200026e579160200282015b828111156200026d5782518260006101000a81548173ffffffffffffffffffffffffffffffffffffffff021916908373ffffffffffffffffffffffffffffffffffffffff1602179055509160200191906001019062000213565b5b5090506200027d919062000281565b5090565b5b808211156200029c57600081600090555060010162000282565b5090565b600080fd5b600073ffffffffffffffffffffffffffffffffffffffff82169050919050565b6000620002d282620002a5565b9050919050565b620002e481620002c5565b8114620002f057600080fd5b50565b6000815190506200030481620002d9565b92915050565b6000819050919050565b6200031f816200030a565b81146200032b57600080fd5b50565b6000815190506200033f8162000314565b92915050565b600080600060608486031215620003615762000360620002a0565b5b60006200037186828701620002f3565b935050602062000384868287016200032e565b92505060406200039786828701620002f3565b9150509250925092565b7f4e487b7100000000000000000000000000000000000000000000000000000000600052604160045260246000fd5b620003db81620002c5565b82525050565b620003ec816200030a565b82525050565b6000604082019050620004096000830185620003d0565b620004186020830184620003e1565b9392505050565b60008115159050919050565b62000436816200041f565b81146200044257600080fd5b50565b60008151905062000456816200042b565b92915050565b600060208284031215620004755762000474620002a0565b5b6000620004858482850162000445565b91505092915050565b60805160a051612788620004c2600039600061088e015260008181610aec01528181610b1401526111ad01526127886000f3fe608060405234801561001057600080fd5b50600436106100f55760003560e01c80636e04ff0d11610097578063b2f5a54c11610066578063b2f5a54c14610287578063c1419def146102a5578063cee2a9cf146102c3578063fa615781146102f3576100f5565b80636e04ff0d146101ec5780636f0372af1461021d5780637032494914610239578063aad9d8a014610269576100f5565b80633ccfd60b116100d35780633ccfd60b1461018a5780633f3b3b27146101945780634585e33b146101b25780635962ddac146101ce576100f5565b80631fa5dc46146100fa578063351b15241461012a578063373e537a1461015a575b600080fd5b610114600480360381019061010f919061197a565b610323565b60405161012191906119b6565b60405180910390f35b610144600480360381019061013f919061197a565b61038e565b60405161015191906119ea565b60405180910390f35b610174600480360381019061016f919061197a565b6103d9565b60405161018191906119ea565b60405180910390f35b610192610424565b005b61019c61064d565b6040516101a991906119ea565b60405180910390f35b6101cc60048036038101906101c79190611a6a565b610653565b005b6101d6610aea565b6040516101e391906119ea565b60405180910390f35b61020660048036038101906102019190611bf8565b610b0e565b604051610214929190611cdb565b60405180910390f35b61023760048036038101906102329190611d37565b610b49565b005b610253600480360381019061024e919061197a565b61115e565b60405161026091906119ea565b60405180910390f35b6102716111a9565b60405161027e91906119ea565b60405180910390f35b61028f6111d1565b60405161029c9190611e5c565b60405180910390f35b6102ad61125f565b6040516102ba91906119ea565b60405180910390f35b6102dd60048036038101906102d8919061197a565b611264565b6040516102ea9190611e7e565b60405180910390f35b61030d6004803603810190610308919061197a565b611320565b60405161031a91906119ea565b60405180910390f35b60008060008373ffffffffffffffffffffffffffffffffffffffff1673ffffffffffffffffffffffffffffffffffffffff16815260200190815260200160002060000160009054906101000a900473ffffffffffffffffffffffffffffffffffffffff169050919050565b60008060008373ffffffffffffffffffffffffffffffffffffffff1673ffffffffffffffffffffffffffffffffffffffff168152602001908152602001600020600401549050919050565b60008060008373ffffffffffffffffffffffffffffffffffffffff1673ffffffffffffffffffffffffffffffffffffffff168152602001908152602001600020600101549050919050565b60008060003373ffffffffffffffffffffffffffffffffffffffff1673ffffffffffffffffffffffffffffffffffffffff1681526020019081526020016000206040518060e00160405290816000820160009054906101000a900473ffffffffffffffffffffffffffffffffffffffff1673ffffffffffffffffffffffffffffffffffffffff1673ffffffffffffffffffffffffffffffffffffffff16815260200160018201548152602001600282015481526020016003820154815260200160048201548152602001600582015481526020016006820160009054906101000a900460ff161515151581525050905060008160800151905060008111610557576040517fd8c980eb00000000000000000000000000000000000000000000000000000000815260040160405180910390fd5b60008060003373ffffffffffffffffffffffffffffffffffffffff1673ffffffffffffffffffffffffffffffffffffffff168152602001908152602001600020600401819055506105a73361136b565b50600260009054906101000a900473ffffffffffffffffffffffffffffffffffffffff1673ffffffffffffffffffffffffffffffffffffffff1663a9059cbb33836040518363ffffffff1660e01b8152600401610605929190611e99565b6020604051808303816000875af1158015610624573d6000803e3d6000fd5b505050506040513d601f19601f820116820180604052508101906106489190611eee565b505050565b60035481565b600061066d60405180602001604052806000815250610b0e565b509050806106a7576040517f5fb3ae8100000000000000000000000000000000000000000000000000000000815260040160405180910390fd5b4260038190555060005b600180549050811015610ae4576000600182815481106106d4576106d3611f1b565b5b9060005260206000200160009054906101000a900473ffffffffffffffffffffffffffffffffffffffff16905061072360405180606001604052806027815260200161268b6027913982611653565b60008060008373ffffffffffffffffffffffffffffffffffffffff1673ffffffffffffffffffffffffffffffffffffffff1681526020019081526020016000206040518060e00160405290816000820160009054906101000a900473ffffffffffffffffffffffffffffffffffffffff1673ffffffffffffffffffffffffffffffffffffffff1673ffffffffffffffffffffffffffffffffffffffff16815260200160018201548152602001600282015481526020016003820154815260200160048201548152602001600582015481526020016006820160009054906101000a900460ff1615151515815250509050428160600151111561084d576108466040518060600160405280603c8152602001612717603c91398260600151426116ef565b5050610ad1565b60006108618260200151836080015161178e565b905061088a6040518060600160405280602b81526020016126b2602b91398360000151836117a7565b60007f000000000000000000000000000000000000000000000000000000000000000073ffffffffffffffffffffffffffffffffffffffff166388156e6583600260009054906101000a900473ffffffffffffffffffffffffffffffffffffffff168660000151886040518563ffffffff1660e01b81526004016109119493929190611f4a565b6020604051808303816000875af1158015610930573d6000803e3d6000fd5b505050506040513d601f19601f820116820180604052508101906109549190611fa4565b9050600081036109a55761099c6040518060400160405280600b81526020017f53776170206661696c6564000000000000000000000000000000000000000000815250611846565b50505050610ad1565b816000808673ffffffffffffffffffffffffffffffffffffffff1673ffffffffffffffffffffffffffffffffffffffff16815260200190815260200160002060040160008282546109f69190612000565b9250508190555060008060008673ffffffffffffffffffffffffffffffffffffffff1673ffffffffffffffffffffffffffffffffffffffff1681526020019081526020016000206004015411610a7657610a676040518060600160405280603a81526020016126dd603a9139611846565b610a708461136b565b50610acc565b826040015142610a869190612034565b6000808673ffffffffffffffffffffffffffffffffffffffff1673ffffffffffffffffffffffffffffffffffffffff168152602001908152602001600020600301819055505b505050505b8080610adc90612068565b9150506106b1565b50505050565b7f000000000000000000000000000000000000000000000000000000000000000081565b600060607f000000000000000000000000000000000000000000000000000000000000000060035442610b419190612000565b119150915091565b60008411610b8c576040517f08c379a0000000000000000000000000000000000000000000000000000000008152600401610b8390612133565b60405180910390fd5b83600260009054906101000a900473ffffffffffffffffffffffffffffffffffffffff1673ffffffffffffffffffffffffffffffffffffffff1663dd62ed3e33306040518363ffffffff1660e01b8152600401610bea929190612153565b602060405180830381865afa158015610c07573d6000803e3d6000fd5b505050506040513d601f19601f82011682018060405250810190610c2b9190611fa4565b1015610c6c576040517f08c379a0000000000000000000000000000000000000000000000000000000008152600401610c63906121c8565b60405180910390fd5b60006006600a610c7c919061231b565b85610c879190612366565b9050600260009054906101000a900473ffffffffffffffffffffffffffffffffffffffff1673ffffffffffffffffffffffffffffffffffffffff166323b872dd3330846040518463ffffffff1660e01b8152600401610ce8939291906123a8565b6020604051808303816000875af1158015610d07573d6000803e3d6000fd5b505050506040513d601f19601f82011682018060405250810190610d2b9190611eee565b610d6a576040517f08c379a0000000000000000000000000000000000000000000000000000000008152600401610d619061242b565b60405180910390fd5b60008060003373ffffffffffffffffffffffffffffffffffffffff1673ffffffffffffffffffffffffffffffffffffffff1681526020019081526020016000206040518060e00160405290816000820160009054906101000a900473ffffffffffffffffffffffffffffffffffffffff1673ffffffffffffffffffffffffffffffffffffffff1673ffffffffffffffffffffffffffffffffffffffff16815260200160018201548152602001600282015481526020016003820154815260200160048201548152602001600582015481526020016006820160009054906101000a900460ff16151515158152505090508060c00151610ec7576001339080600181540180825580915050600190039060005260206000200160009091909190916101000a81548173ffffffffffffffffffffffffffffffffffffffff021916908373ffffffffffffffffffffffffffffffffffffffff1602179055505b60008342610ed59190612034565b90506006600a610ee5919061231b565b85610ef09190612366565b9450600060018080549050610f059190612000565b90506000848460800151610f199190612034565b9050876000803373ffffffffffffffffffffffffffffffffffffffff1673ffffffffffffffffffffffffffffffffffffffff16815260200190815260200160002060000160006101000a81548173ffffffffffffffffffffffffffffffffffffffff021916908373ffffffffffffffffffffffffffffffffffffffff160217905550866000803373ffffffffffffffffffffffffffffffffffffffff1673ffffffffffffffffffffffffffffffffffffffff16815260200190815260200160002060010181905550856000803373ffffffffffffffffffffffffffffffffffffffff1673ffffffffffffffffffffffffffffffffffffffff16815260200190815260200160002060020181905550826000803373ffffffffffffffffffffffffffffffffffffffff1673ffffffffffffffffffffffffffffffffffffffff16815260200190815260200160002060030181905550806000803373ffffffffffffffffffffffffffffffffffffffff1673ffffffffffffffffffffffffffffffffffffffff16815260200190815260200160002060040181905550816000803373ffffffffffffffffffffffffffffffffffffffff1673ffffffffffffffffffffffffffffffffffffffff1681526020019081526020016000206005018190555060016000803373ffffffffffffffffffffffffffffffffffffffff1673ffffffffffffffffffffffffffffffffffffffff16815260200190815260200160002060060160006101000a81548160ff021916908315150217905550505050505050505050565b60008060008373ffffffffffffffffffffffffffffffffffffffff1673ffffffffffffffffffffffffffffffffffffffff168152602001908152602001600020600201549050919050565b60007f0000000000000000000000000000000000000000000000000000000000000000905090565b6060600180548060200260200160405190810160405280929190818152602001828054801561125557602002820191906000526020600020905b8160009054906101000a900473ffffffffffffffffffffffffffffffffffffffff1673ffffffffffffffffffffffffffffffffffffffff168152602001906001019080831161120b575b5050505050905090565b600681565b6000806000808473ffffffffffffffffffffffffffffffffffffffff1673ffffffffffffffffffffffffffffffffffffffff1681526020019081526020016000206005015490508273ffffffffffffffffffffffffffffffffffffffff16600182815481106112d6576112d5611f1b565b5b9060005260206000200160009054906101000a900473ffffffffffffffffffffffffffffffffffffffff1673ffffffffffffffffffffffffffffffffffffffff1614915050919050565b60008060008373ffffffffffffffffffffffffffffffffffffffff1673ffffffffffffffffffffffffffffffffffffffff168152602001908152602001600020600301549050919050565b6000806000808473ffffffffffffffffffffffffffffffffffffffff1673ffffffffffffffffffffffffffffffffffffffff1681526020019081526020016000206040518060e00160405290816000820160009054906101000a900473ffffffffffffffffffffffffffffffffffffffff1673ffffffffffffffffffffffffffffffffffffffff1673ffffffffffffffffffffffffffffffffffffffff16815260200160018201548152602001600282015481526020016003820154815260200160048201548152602001600582015481526020016006820160009054906101000a900460ff16151515158152505090508060c001516114a0576040517f08c379a000000000000000000000000000000000000000000000000000000000815260040161149790612497565b60405180910390fd5b6000816080015111156114e8576040517f08c379a00000000000000000000000000000000000000000000000000000000081526004016114df90612529565b60405180910390fd5b600180805490506114f99190612000565b8160a001511461160257600060018080805490506115179190612000565b8154811061152857611527611f1b565b5b9060005260206000200160009054906101000a900473ffffffffffffffffffffffffffffffffffffffff1690508060018360a001518154811061156e5761156d611f1b565b5b9060005260206000200160006101000a81548173ffffffffffffffffffffffffffffffffffffffff021916908373ffffffffffffffffffffffffffffffffffffffff1602179055508160a001516000808373ffffffffffffffffffffffffffffffffffffffff1673ffffffffffffffffffffffffffffffffffffffff16815260200190815260200160002060050181905550505b600180548061161457611613612549565b5b6001900381819060005260206000200160006101000a81549073ffffffffffffffffffffffffffffffffffffffff021916905590556001915050919050565b6116eb82826040516024016116699291906125bc565b6040516020818303038152906040527f319af333000000000000000000000000000000000000000000000000000000007bffffffffffffffffffffffffffffffffffffffffffffffffffffffff19166020820180517bffffffffffffffffffffffffffffffffffffffffffffffffffffffff83818316178352505050506118df565b5050565b611789838383604051602401611707939291906125ec565b6040516020818303038152906040527fca47c4eb000000000000000000000000000000000000000000000000000000007bffffffffffffffffffffffffffffffffffffffffffffffffffffffff19166020820180517bffffffffffffffffffffffffffffffffffffffffffffffffffffffff83818316178352505050506118df565b505050565b600081831061179d578161179f565b825b905092915050565b6118418383836040516024016117bf9392919061262a565b6040516020818303038152906040527f0d26b925000000000000000000000000000000000000000000000000000000007bffffffffffffffffffffffffffffffffffffffffffffffffffffffff19166020820180517bffffffffffffffffffffffffffffffffffffffffffffffffffffffff83818316178352505050506118df565b505050565b6118dc8160405160240161185a9190612668565b6040516020818303038152906040527f41304fac000000000000000000000000000000000000000000000000000000007bffffffffffffffffffffffffffffffffffffffffffffffffffffffff19166020820180517bffffffffffffffffffffffffffffffffffffffffffffffffffffffff83818316178352505050506118df565b50565b60008151905060006a636f6e736f6c652e6c6f679050602083016000808483855afa5050505050565b6000604051905090565b600080fd5b600080fd5b600073ffffffffffffffffffffffffffffffffffffffff82169050919050565b60006119478261191c565b9050919050565b6119578161193c565b811461196257600080fd5b50565b6000813590506119748161194e565b92915050565b6000602082840312156119905761198f611912565b5b600061199e84828501611965565b91505092915050565b6119b08161193c565b82525050565b60006020820190506119cb60008301846119a7565b92915050565b6000819050919050565b6119e4816119d1565b82525050565b60006020820190506119ff60008301846119db565b92915050565b600080fd5b600080fd5b600080fd5b60008083601f840112611a2a57611a29611a05565b5b8235905067ffffffffffffffff811115611a4757611a46611a0a565b5b602083019150836001820283011115611a6357611a62611a0f565b5b9250929050565b60008060208385031215611a8157611a80611912565b5b600083013567ffffffffffffffff811115611a9f57611a9e611917565b5b611aab85828601611a14565b92509250509250929050565b600080fd5b6000601f19601f8301169050919050565b7f4e487b7100000000000000000000000000000000000000000000000000000000600052604160045260246000fd5b611b0582611abc565b810181811067ffffffffffffffff82111715611b2457611b23611acd565b5b80604052505050565b6000611b37611908565b9050611b438282611afc565b919050565b600067ffffffffffffffff821115611b6357611b62611acd565b5b611b6c82611abc565b9050602081019050919050565b82818337600083830152505050565b6000611b9b611b9684611b48565b611b2d565b905082815260208101848484011115611bb757611bb6611ab7565b5b611bc2848285611b79565b509392505050565b600082601f830112611bdf57611bde611a05565b5b8135611bef848260208601611b88565b91505092915050565b600060208284031215611c0e57611c0d611912565b5b600082013567ffffffffffffffff811115611c2c57611c2b611917565b5b611c3884828501611bca565b91505092915050565b60008115159050919050565b611c5681611c41565b82525050565b600081519050919050565b600082825260208201905092915050565b60005b83811015611c96578082015181840152602081019050611c7b565b60008484015250505050565b6000611cad82611c5c565b611cb78185611c67565b9350611cc7818560208601611c78565b611cd081611abc565b840191505092915050565b6000604082019050611cf06000830185611c4d565b8181036020830152611d028184611ca2565b90509392505050565b611d14816119d1565b8114611d1f57600080fd5b50565b600081359050611d3181611d0b565b92915050565b60008060008060808587031215611d5157611d50611912565b5b6000611d5f87828801611d22565b9450506020611d7087828801611965565b9350506040611d8187828801611d22565b9250506060611d9287828801611d22565b91505092959194509250565b600081519050919050565b600082825260208201905092915050565b6000819050602082019050919050565b611dd38161193c565b82525050565b6000611de58383611dca565b60208301905092915050565b6000602082019050919050565b6000611e0982611d9e565b611e138185611da9565b9350611e1e83611dba565b8060005b83811015611e4f578151611e368882611dd9565b9750611e4183611df1565b925050600181019050611e22565b5085935050505092915050565b60006020820190508181036000830152611e768184611dfe565b905092915050565b6000602082019050611e936000830184611c4d565b92915050565b6000604082019050611eae60008301856119a7565b611ebb60208301846119db565b9392505050565b611ecb81611c41565b8114611ed657600080fd5b50565b600081519050611ee881611ec2565b92915050565b600060208284031215611f0457611f03611912565b5b6000611f1284828501611ed9565b91505092915050565b7f4e487b7100000000000000000000000000000000000000000000000000000000600052603260045260246000fd5b6000608082019050611f5f60008301876119db565b611f6c60208301866119a7565b611f7960408301856119a7565b611f8660608301846119a7565b95945050505050565b600081519050611f9e81611d0b565b92915050565b600060208284031215611fba57611fb9611912565b5b6000611fc884828501611f8f565b91505092915050565b7f4e487b7100000000000000000000000000000000000000000000000000000000600052601160045260246000fd5b600061200b826119d1565b9150612016836119d1565b925082820390508181111561202e5761202d611fd1565b5b92915050565b600061203f826119d1565b915061204a836119d1565b925082820190508082111561206257612061611fd1565b5b92915050565b6000612073826119d1565b91507fffffffffffffffffffffffffffffffffffffffffffffffffffffffffffffffff82036120a5576120a4611fd1565b5b600182019050919050565b600082825260208201905092915050565b7f6465706f7369743a20416d6f756e74206d75737420626520677265617465722060008201527f7468616e207a65726f0000000000000000000000000000000000000000000000602082015250565b600061211d6029836120b0565b9150612128826120c1565b604082019050919050565b6000602082019050818103600083015261214c81612110565b9050919050565b600060408201905061216860008301856119a7565b61217560208301846119a7565b9392505050565b7f6465706f7369743a20496e73756666696369656e7420616c6c6f77616e636500600082015250565b60006121b2601f836120b0565b91506121bd8261217c565b602082019050919050565b600060208201905081810360008301526121e1816121a5565b9050919050565b60008160011c9050919050565b6000808291508390505b600185111561223f5780860481111561221b5761221a611fd1565b5b600185161561222a5780820291505b8081029050612238856121e8565b94506121ff565b94509492505050565b6000826122585760019050612314565b816122665760009050612314565b816001811461227c5760028114612286576122b5565b6001915050612314565b60ff84111561229857612297611fd1565b5b8360020a9150848211156122af576122ae611fd1565b5b50612314565b5060208310610133831016604e8410600b84101617156122ea5782820a9050838111156122e5576122e4611fd1565b5b612314565b6122f784848460016121f5565b9250905081840481111561230e5761230d611fd1565b5b81810290505b9392505050565b6000612326826119d1565b9150612331836119d1565b925061235e7fffffffffffffffffffffffffffffffffffffffffffffffffffffffffffffffff8484612248565b905092915050565b6000612371826119d1565b915061237c836119d1565b925082820261238a816119d1565b915082820484148315176123a1576123a0611fd1565b5b5092915050565b60006060820190506123bd60008301866119a7565b6123ca60208301856119a7565b6123d760408301846119db565b949350505050565b7f6465706f7369743a207472616e7366657246726f6d206661696c656400000000600082015250565b6000612415601c836120b0565b9150612420826123df565b602082019050919050565b6000602082019050818103600083015261244481612408565b9050919050565b7f496e766573746f7220646f6573206e6f74206578697374000000000000000000600082015250565b60006124816017836120b0565b915061248c8261244b565b602082019050919050565b600060208201905081810360008301526124b081612474565b9050919050565b7f43616e6e6f742072656d6f766520616e20696e766573746f722077697468206160008201527f20706f7369746976652062616c616e6365000000000000000000000000000000602082015250565b60006125136031836120b0565b915061251e826124b7565b604082019050919050565b6000602082019050818103600083015261254281612506565b9050919050565b7f4e487b7100000000000000000000000000000000000000000000000000000000600052603160045260246000fd5b600081519050919050565b600061258e82612578565b61259881856120b0565b93506125a8818560208601611c78565b6125b181611abc565b840191505092915050565b600060408201905081810360008301526125d68185612583565b90506125e560208301846119a7565b9392505050565b600060608201905081810360008301526126068186612583565b905061261560208301856119db565b61262260408301846119db565b949350505050565b600060608201905081810360008301526126448186612583565b905061265360208301856119a7565b61266060408301846119db565b949350505050565b600060208201905081810360008301526126828184612583565b90509291505056fe436865636b2069662053776170206966206e65656420666f722061646472657373203a20256f2053776170205553444320666f7220546f6b656e203a20256f202c207769746820616d6f756e74203a20256f4e6f206d6f72652066756e6420746f20737761702c2072656d6f76696e6720616464726573732066726f6d20696e766573746f7273206c6973744e657874206275792074696d657374616d70206e6f742072656163686564203a20256f202c2063757272656e74207469656d7374616d70203a20256fa264697066735822122031b7d5ef35efbe6926db22129eebd73567c1a29e90e1f4c3dbe6acb73f2fc6d464736f6c63430008110033",
  "devdoc": {
    "kind": "dev",
    "methods": {},
    "version": 1
  },
  "userdoc": {
    "kind": "user",
    "methods": {},
    "version": 1
  },
  "storageLayout": {
    "storage": [
      {
        "astId": 2474,
        "contract": "contracts/Dca.sol:Dca",
        "label": "s_addressToInvestConfig",
        "offset": 0,
        "slot": "0",
        "type": "t_mapping(t_address,t_struct(InvestConfig)2492_storage)"
      },
      {
        "astId": 2477,
        "contract": "contracts/Dca.sol:Dca",
        "label": "s_investors",
        "offset": 0,
        "slot": "1",
        "type": "t_array(t_address)dyn_storage"
      },
      {
        "astId": 2495,
        "contract": "contracts/Dca.sol:Dca",
        "label": "s_usdc",
        "offset": 0,
        "slot": "2",
        "type": "t_contract(IERC20)722"
      },
      {
        "astId": 2499,
        "contract": "contracts/Dca.sol:Dca",
        "label": "lastTimeStamp",
        "offset": 0,
        "slot": "3",
        "type": "t_uint256"
      }
    ],
    "types": {
      "t_address": {
        "encoding": "inplace",
        "label": "address",
        "numberOfBytes": "20"
      },
      "t_array(t_address)dyn_storage": {
        "base": "t_address",
        "encoding": "dynamic_array",
        "label": "address[]",
        "numberOfBytes": "32"
      },
      "t_bool": {
        "encoding": "inplace",
        "label": "bool",
        "numberOfBytes": "1"
      },
      "t_contract(IERC20)722": {
        "encoding": "inplace",
        "label": "contract IERC20",
        "numberOfBytes": "20"
      },
      "t_mapping(t_address,t_struct(InvestConfig)2492_storage)": {
        "encoding": "mapping",
        "key": "t_address",
        "label": "mapping(address => struct Dca.InvestConfig)",
        "numberOfBytes": "32",
        "value": "t_struct(InvestConfig)2492_storage"
      },
      "t_struct(InvestConfig)2492_storage": {
        "encoding": "inplace",
        "label": "struct Dca.InvestConfig",
        "members": [
          {
            "astId": 2479,
            "contract": "contracts/Dca.sol:Dca",
            "label": "tokenToBuy",
            "offset": 0,
            "slot": "0",
            "type": "t_address"
          },
          {
            "astId": 2481,
            "contract": "contracts/Dca.sol:Dca",
            "label": "amountToBuy",
            "offset": 0,
            "slot": "1",
            "type": "t_uint256"
          },
          {
            "astId": 2483,
            "contract": "contracts/Dca.sol:Dca",
            "label": "buyInterval",
            "offset": 0,
            "slot": "2",
            "type": "t_uint256"
          },
          {
            "astId": 2485,
            "contract": "contracts/Dca.sol:Dca",
            "label": "nextBuyTimestamp",
            "offset": 0,
            "slot": "3",
            "type": "t_uint256"
          },
          {
            "astId": 2487,
            "contract": "contracts/Dca.sol:Dca",
            "label": "amountDeposited",
            "offset": 0,
            "slot": "4",
            "type": "t_uint256"
          },
          {
            "astId": 2489,
            "contract": "contracts/Dca.sol:Dca",
            "label": "index",
            "offset": 0,
            "slot": "5",
            "type": "t_uint256"
          },
          {
            "astId": 2491,
            "contract": "contracts/Dca.sol:Dca",
            "label": "exists",
            "offset": 0,
            "slot": "6",
            "type": "t_bool"
          }
        ],
        "numberOfBytes": "224"
      },
      "t_uint256": {
        "encoding": "inplace",
        "label": "uint256",
        "numberOfBytes": "32"
      }
    }
  }
}