{
  "address": "0xd0EC100F1252a53322051a95CF05c32f0C174354",
  "abi": [
    {
      "inputs": [
        {
          "internalType": "contract ISwapRouter",
          "name": "_swapRouter",
          "type": "address"
        }
      ],
      "stateMutability": "nonpayable",
      "type": "constructor"
    },
    {
      "anonymous": false,
      "inputs": [
        {
          "indexed": false,
          "internalType": "uint256",
          "name": "amountOut",
          "type": "uint256"
        }
      ],
      "name": "SwappedFor",
      "type": "event"
    },
    {
      "inputs": [],
      "name": "DAI",
      "outputs": [
        {
          "internalType": "address",
          "name": "",
          "type": "address"
        }
      ],
      "stateMutability": "view",
      "type": "function"
    },
    {
      "inputs": [],
      "name": "WETH9",
      "outputs": [
        {
          "internalType": "address",
          "name": "",
          "type": "address"
        }
      ],
      "stateMutability": "view",
      "type": "function"
    },
    {
      "inputs": [],
      "name": "feeTier",
      "outputs": [
        {
          "internalType": "uint24",
          "name": "",
          "type": "uint24"
        }
      ],
      "stateMutability": "view",
      "type": "function"
    },
    {
      "inputs": [
        {
          "internalType": "uint256",
          "name": "amountIn",
          "type": "uint256"
        }
      ],
      "name": "swap",
      "outputs": [
        {
          "internalType": "uint256",
          "name": "amountOut",
          "type": "uint256"
        }
      ],
      "stateMutability": "nonpayable",
      "type": "function"
    },
    {
      "inputs": [],
      "name": "swapRouter",
      "outputs": [
        {
          "internalType": "contract ISwapRouter",
          "name": "",
          "type": "address"
        }
      ],
      "stateMutability": "view",
      "type": "function"
    }
  ],
  "transactionHash": "0x58acb4faaa6502524c5233d039c374568b34561aeadc8177aab2c9ce13d8d435",
  "args": [
    "0xE592427A0AEce92De3Edee1F18E0157C05861564"
  ],
  "numDeployments": 1,
  "solcInputHash": "38ee42e430c2dd391f4fcd82b83c278e",
  "bytecode": "0x60a060405234801561001057600080fd5b50604051610dde380380610dde83398181016040528101906100329190610084565b8073ffffffffffffffffffffffffffffffffffffffff1660808173ffffffffffffffffffffffffffffffffffffffff1660601b8152505050610108565b60008151905061007e816100f1565b92915050565b60006020828403121561009657600080fd5b60006100a48482850161006f565b91505092915050565b60006100b8826100d1565b9050919050565b60006100ca826100ad565b9050919050565b600073ffffffffffffffffffffffffffffffffffffffff82169050919050565b6100fa816100bf565b811461010557600080fd5b50565b60805160601c610caa6101346000396000818161019d0152818161028c015261037c0152610caa6000f3fe608060405234801561001057600080fd5b50600436106100575760003560e01c80634aa4a4fc1461005c57806372f5d98a1461007a57806394b918de14610098578063c31c9c07146100c8578063e0bab4c4146100e6575b600080fd5b610064610104565b60405161007191906109fd565b60405180910390f35b61008261011c565b60405161008f9190610b1f565b60405180910390f35b6100b260048036038101906100ad9190610790565b610122565b6040516100bf9190610b3a565b60405180910390f35b6100d061037a565b6040516100dd9190610a78565b60405180910390f35b6100ee61039e565b6040516100fb91906109fd565b60405180910390f35b73c02aaa39b223fe8d0a0e5c4f27ead9083c756cc281565b610bb881565b60006101636040518060400160405280601981526020017f43616c6c696e672073616d706c65416464207769746820256f00000000000000815250836103b6565b61018373c02aaa39b223fe8d0a0e5c4f27ead9083c756cc2333085610452565b6101c273c02aaa39b223fe8d0a0e5c4f27ead9083c756cc27f0000000000000000000000000000000000000000000000000000000000000000846105aa565b600080600060405180610100016040528073c02aaa39b223fe8d0a0e5c4f27ead9083c756cc273ffffffffffffffffffffffffffffffffffffffff168152602001736b175474e89094c44da98b954eedeac495271d0f73ffffffffffffffffffffffffffffffffffffffff168152602001610bb862ffffff1681526020013373ffffffffffffffffffffffffffffffffffffffff1681526020014281526020018681526020018481526020018373ffffffffffffffffffffffffffffffffffffffff1681525090507f000000000000000000000000000000000000000000000000000000000000000073ffffffffffffffffffffffffffffffffffffffff1663414bf389826040518263ffffffff1660e01b81526004016102e39190610b03565b602060405180830381600087803b1580156102fd57600080fd5b505af1158015610311573d6000803e3d6000fd5b505050506040513d601f19601f8201168201806040525081019061033591906107b9565b93507f679d4c6eecd0bfa380374d3e0337ca89520c551b5032ed69cee4a7a1331e643c846040516103669190610b3a565b60405180910390a160029350505050919050565b7f000000000000000000000000000000000000000000000000000000000000000081565b736b175474e89094c44da98b954eedeac495271d0f81565b61044e82826040516024016103cc929190610a93565b6040516020818303038152906040527fb60e72cc000000000000000000000000000000000000000000000000000000007bffffffffffffffffffffffffffffffffffffffffffffffffffffffff19166020820180517bffffffffffffffffffffffffffffffffffffffffffffffffffffffff83818316178352505050506106ff565b5050565b6000808573ffffffffffffffffffffffffffffffffffffffff166323b872dd60e01b86868660405160240161048993929190610a18565b604051602081830303815290604052907bffffffffffffffffffffffffffffffffffffffffffffffffffffffff19166020820180517bffffffffffffffffffffffffffffffffffffffffffffffffffffffff83818316178352505050506040516104f391906109e6565b6000604051808303816000865af19150503d8060008114610530576040519150601f19603f3d011682016040523d82523d6000602084013e610535565b606091505b509150915081801561056357506000815114806105625750808060200190518101906105619190610767565b5b5b6105a2576040517f08c379a000000000000000000000000000000000000000000000000000000000815260040161059990610ae3565b60405180910390fd5b505050505050565b6000808473ffffffffffffffffffffffffffffffffffffffff1663095ea7b360e01b85856040516024016105df929190610a4f565b604051602081830303815290604052907bffffffffffffffffffffffffffffffffffffffffffffffffffffffff19166020820180517bffffffffffffffffffffffffffffffffffffffffffffffffffffffff838183161783525050505060405161064991906109e6565b6000604051808303816000865af19150503d8060008114610686576040519150601f19603f3d011682016040523d82523d6000602084013e61068b565b606091505b50915091508180156106b957506000815114806106b85750808060200190518101906106b79190610767565b5b5b6106f8576040517f08c379a00000000000000000000000000000000000000000000000000000000081526004016106ef90610ac3565b60405180910390fd5b5050505050565b60008151905060006a636f6e736f6c652e6c6f679050602083016000808483855afa5050505050565b60008151905061073781610c46565b92915050565b60008135905061074c81610c5d565b92915050565b60008151905061076181610c5d565b92915050565b60006020828403121561077957600080fd5b600061078784828501610728565b91505092915050565b6000602082840312156107a257600080fd5b60006107b08482850161073d565b91505092915050565b6000602082840312156107cb57600080fd5b60006107d984828501610752565b91505092915050565b6107eb81610b87565b82525050565b6107fa81610b87565b82525050565b600061080b82610b55565b6108158185610b6b565b9350610825818560208601610c02565b80840191505092915050565b61083a81610bde565b82525050565b600061084b82610b60565b6108558185610b76565b9350610865818560208601610c02565b61086e81610c35565b840191505092915050565b6000610886600283610b76565b91507f53410000000000000000000000000000000000000000000000000000000000006000830152602082019050919050565b60006108c6600383610b76565b91507f53544600000000000000000000000000000000000000000000000000000000006000830152602082019050919050565b6101008201600082015161091060008501826107e2565b50602082015161092360208501826107e2565b50604082015161093660408501826109aa565b50606082015161094960608501826107e2565b50608082015161095c60808501826109c8565b5060a082015161096f60a08501826109c8565b5060c082015161098260c08501826109c8565b5060e082015161099560e085018261099b565b50505050565b6109a481610ba5565b82525050565b6109b381610bc5565b82525050565b6109c281610bc5565b82525050565b6109d181610bd4565b82525050565b6109e081610bd4565b82525050565b60006109f28284610800565b915081905092915050565b6000602082019050610a1260008301846107f1565b92915050565b6000606082019050610a2d60008301866107f1565b610a3a60208301856107f1565b610a4760408301846109d7565b949350505050565b6000604082019050610a6460008301856107f1565b610a7160208301846109d7565b9392505050565b6000602082019050610a8d6000830184610831565b92915050565b60006040820190508181036000830152610aad8185610840565b9050610abc60208301846109d7565b9392505050565b60006020820190508181036000830152610adc81610879565b9050919050565b60006020820190508181036000830152610afc816108b9565b9050919050565b600061010082019050610b1960008301846108f9565b92915050565b6000602082019050610b3460008301846109b9565b92915050565b6000602082019050610b4f60008301846109d7565b92915050565b600081519050919050565b600081519050919050565b600081905092915050565b600082825260208201905092915050565b6000610b9282610ba5565b9050919050565b60008115159050919050565b600073ffffffffffffffffffffffffffffffffffffffff82169050919050565b600062ffffff82169050919050565b6000819050919050565b6000610be982610bf0565b9050919050565b6000610bfb82610ba5565b9050919050565b60005b83811015610c20578082015181840152602081019050610c05565b83811115610c2f576000848401525b50505050565b6000601f19601f8301169050919050565b610c4f81610b99565b8114610c5a57600080fd5b50565b610c6681610bd4565b8114610c7157600080fd5b5056fea2646970667358221220a435ec0697629b3802f2c0e3855d60eb48c2be742487fc71955115b86de5ac7964736f6c63430008000033",
  "devdoc": {
    "kind": "dev",
    "methods": {},
    "version": 1
  },
  "userdoc": {
    "kind": "user",
    "methods": {},
    "version": 1
  },
  "storageLayout": {
    "storage": [],
    "types": null
  }
}