{
  "address": "0xB7ca895F81F20e05A5eb11B05Cbaab3DAe5e23cd",
  "abi": [
    {
      "inputs": [
        {
          "internalType": "contract ISwapRouter",
          "name": "_swapRouter",
          "type": "address"
        }
      ],
      "stateMutability": "nonpayable",
      "type": "constructor"
    },
    {
      "anonymous": false,
      "inputs": [
        {
          "indexed": false,
          "internalType": "uint256",
          "name": "amountOut",
          "type": "uint256"
        }
      ],
      "name": "SwappedFor",
      "type": "event"
    },
    {
      "inputs": [],
      "name": "feeTier",
      "outputs": [
        {
          "internalType": "uint24",
          "name": "",
          "type": "uint24"
        }
      ],
      "stateMutability": "view",
      "type": "function"
    },
    {
      "inputs": [
        {
          "internalType": "uint256",
          "name": "amountIn",
          "type": "uint256"
        },
        {
          "internalType": "address",
          "name": "tokenA",
          "type": "address"
        },
        {
          "internalType": "address",
          "name": "tokenB",
          "type": "address"
        }
      ],
      "name": "swap",
      "outputs": [
        {
          "internalType": "uint256",
          "name": "amountOut",
          "type": "uint256"
        }
      ],
      "stateMutability": "nonpayable",
      "type": "function"
    },
    {
      "inputs": [],
      "name": "swapRouter",
      "outputs": [
        {
          "internalType": "contract ISwapRouter",
          "name": "",
          "type": "address"
        }
      ],
      "stateMutability": "view",
      "type": "function"
    }
  ],
  "transactionHash": "0x340d65e38dad07118d6c2f11abed7d15ad62f4ef150bcb79498f1f9afd35add5",
  "args": [
    "0xE592427A0AEce92De3Edee1F18E0157C05861564"
  ],
  "numDeployments": 1,
  "solcInputHash": "9dcbbae82815979ed3e7f7fadb3d05b4",
  "bytecode": "0x60a060405234801561001057600080fd5b50604051610d45380380610d4583398181016040528101906100329190610084565b8073ffffffffffffffffffffffffffffffffffffffff1660808173ffffffffffffffffffffffffffffffffffffffff1660601b8152505050610108565b60008151905061007e816100f1565b92915050565b60006020828403121561009657600080fd5b60006100a48482850161006f565b91505092915050565b60006100b8826100d1565b9050919050565b60006100ca826100ad565b9050919050565b600073ffffffffffffffffffffffffffffffffffffffff82169050919050565b6100fa816100bf565b811461010557600080fd5b50565b60805160601c610c1161013460003960008181610105015281816101cc01526102c40152610c116000f3fe608060405234801561001057600080fd5b50600436106100415760003560e01c80632b7f09231461004657806372f5d98a14610076578063c31c9c0714610094575b600080fd5b610060600480360381019061005b91906106fe565b6100b2565b60405161006d9190610a8a565b60405180910390f35b61007e6102bc565b60405161008b9190610a6f565b60405180910390f35b61009c6102c2565b6040516100a991906109c8565b60405180910390f35b60006100f36040518060400160405280601981526020017f43616c6c696e672073616d706c65416464207769746820256f00000000000000815250856102e6565b6100ff83333087610382565b61012a837f0000000000000000000000000000000000000000000000000000000000000000866104da565b60008060006040518061010001604052808773ffffffffffffffffffffffffffffffffffffffff1681526020018673ffffffffffffffffffffffffffffffffffffffff168152602001610bb862ffffff1681526020013373ffffffffffffffffffffffffffffffffffffffff1681526020014281526020018881526020018481526020018373ffffffffffffffffffffffffffffffffffffffff1681525090507f000000000000000000000000000000000000000000000000000000000000000073ffffffffffffffffffffffffffffffffffffffff1663414bf389826040518263ffffffff1660e01b81526004016102239190610a53565b602060405180830381600087803b15801561023d57600080fd5b505af1158015610251573d6000803e3d6000fd5b505050506040513d601f19601f8201168201806040525081019061027591906106d5565b93507f679d4c6eecd0bfa380374d3e0337ca89520c551b5032ed69cee4a7a1331e643c846040516102a69190610a8a565b60405180910390a1600293505050509392505050565b610bb881565b7f000000000000000000000000000000000000000000000000000000000000000081565b61037e82826040516024016102fc9291906109e3565b6040516020818303038152906040527fb60e72cc000000000000000000000000000000000000000000000000000000007bffffffffffffffffffffffffffffffffffffffffffffffffffffffff19166020820180517bffffffffffffffffffffffffffffffffffffffffffffffffffffffff838183161783525050505061062f565b5050565b6000808573ffffffffffffffffffffffffffffffffffffffff166323b872dd60e01b8686866040516024016103b993929190610968565b604051602081830303815290604052907bffffffffffffffffffffffffffffffffffffffffffffffffffffffff19166020820180517bffffffffffffffffffffffffffffffffffffffffffffffffffffffff83818316178352505050506040516104239190610951565b6000604051808303816000865af19150503d8060008114610460576040519150601f19603f3d011682016040523d82523d6000602084013e610465565b606091505b5091509150818015610493575060008151148061049257508080602001905181019061049191906106ac565b5b5b6104d2576040517f08c379a00000000000000000000000000000000000000000000000000000000081526004016104c990610a33565b60405180910390fd5b505050505050565b6000808473ffffffffffffffffffffffffffffffffffffffff1663095ea7b360e01b858560405160240161050f92919061099f565b604051602081830303815290604052907bffffffffffffffffffffffffffffffffffffffffffffffffffffffff19166020820180517bffffffffffffffffffffffffffffffffffffffffffffffffffffffff83818316178352505050506040516105799190610951565b6000604051808303816000865af19150503d80600081146105b6576040519150601f19603f3d011682016040523d82523d6000602084013e6105bb565b606091505b50915091508180156105e957506000815114806105e85750808060200190518101906105e791906106ac565b5b5b610628576040517f08c379a000000000000000000000000000000000000000000000000000000000815260040161061f90610a13565b60405180910390fd5b5050505050565b60008151905060006a636f6e736f6c652e6c6f679050602083016000808483855afa5050505050565b60008135905061066781610b96565b92915050565b60008151905061067c81610bad565b92915050565b60008135905061069181610bc4565b92915050565b6000815190506106a681610bc4565b92915050565b6000602082840312156106be57600080fd5b60006106cc8482850161066d565b91505092915050565b6000602082840312156106e757600080fd5b60006106f584828501610697565b91505092915050565b60008060006060848603121561071357600080fd5b600061072186828701610682565b935050602061073286828701610658565b925050604061074386828701610658565b9150509250925092565b61075681610ad7565b82525050565b61076581610ad7565b82525050565b600061077682610aa5565b6107808185610abb565b9350610790818560208601610b52565b80840191505092915050565b6107a581610b2e565b82525050565b60006107b682610ab0565b6107c08185610ac6565b93506107d0818560208601610b52565b6107d981610b85565b840191505092915050565b60006107f1600283610ac6565b91507f53410000000000000000000000000000000000000000000000000000000000006000830152602082019050919050565b6000610831600383610ac6565b91507f53544600000000000000000000000000000000000000000000000000000000006000830152602082019050919050565b6101008201600082015161087b600085018261074d565b50602082015161088e602085018261074d565b5060408201516108a16040850182610915565b5060608201516108b4606085018261074d565b5060808201516108c76080850182610933565b5060a08201516108da60a0850182610933565b5060c08201516108ed60c0850182610933565b5060e082015161090060e0850182610906565b50505050565b61090f81610af5565b82525050565b61091e81610b15565b82525050565b61092d81610b15565b82525050565b61093c81610b24565b82525050565b61094b81610b24565b82525050565b600061095d828461076b565b915081905092915050565b600060608201905061097d600083018661075c565b61098a602083018561075c565b6109976040830184610942565b949350505050565b60006040820190506109b4600083018561075c565b6109c16020830184610942565b9392505050565b60006020820190506109dd600083018461079c565b92915050565b600060408201905081810360008301526109fd81856107ab565b9050610a0c6020830184610942565b9392505050565b60006020820190508181036000830152610a2c816107e4565b9050919050565b60006020820190508181036000830152610a4c81610824565b9050919050565b600061010082019050610a696000830184610864565b92915050565b6000602082019050610a846000830184610924565b92915050565b6000602082019050610a9f6000830184610942565b92915050565b600081519050919050565b600081519050919050565b600081905092915050565b600082825260208201905092915050565b6000610ae282610af5565b9050919050565b60008115159050919050565b600073ffffffffffffffffffffffffffffffffffffffff82169050919050565b600062ffffff82169050919050565b6000819050919050565b6000610b3982610b40565b9050919050565b6000610b4b82610af5565b9050919050565b60005b83811015610b70578082015181840152602081019050610b55565b83811115610b7f576000848401525b50505050565b6000601f19601f8301169050919050565b610b9f81610ad7565b8114610baa57600080fd5b50565b610bb681610ae9565b8114610bc157600080fd5b50565b610bcd81610b24565b8114610bd857600080fd5b5056fea2646970667358221220546058095fde95043a90676d03ddcb7b0fa7ced4d003e124cd8ca79147994dcf64736f6c63430008000033",
  "devdoc": {
    "kind": "dev",
    "methods": {
      "constructor": {
        "details": "see https://docs.uniswap.org/contracts/v3/reference/deployments",
        "params": {
          "_swapRouter": "The contract address of the uniswap V3 router"
        }
      },
      "swap(uint256,address,address)": {
        "params": {
          "amountIn": "The amount of tokenA to swap",
          "tokenA": "token address to swap from",
          "tokenB": "token address to swap to"
        },
        "returns": {
          "amountOut": "The amount of tokenB received"
        }
      }
    },
    "version": 1
  },
  "userdoc": {
    "kind": "user",
    "methods": {
      "constructor": {
        "notice": "Creates a new SimpleSwap contract"
      },
      "swap(uint256,address,address)": {
        "notice": "Swaps the specified amount of tokenA for tokenB"
      }
    },
    "version": 1
  },
  "storageLayout": {
    "storage": [],
    "types": null
  }
}