{
  "address": "0xd0EC100F1252a53322051a95CF05c32f0C174354",
  "abi": [
    {
      "inputs": [
        {
          "internalType": "contract ISwapRouter",
          "name": "_swapRouter",
          "type": "address"
        }
      ],
      "stateMutability": "nonpayable",
      "type": "constructor"
    },
    {
      "anonymous": false,
      "inputs": [
        {
          "indexed": false,
          "internalType": "uint256",
          "name": "amountOut",
          "type": "uint256"
        }
      ],
      "name": "SwappedFor",
      "type": "event"
    },
    {
      "inputs": [],
      "name": "feeTier",
      "outputs": [
        {
          "internalType": "uint24",
          "name": "",
          "type": "uint24"
        }
      ],
      "stateMutability": "view",
      "type": "function"
    },
    {
      "inputs": [
        {
          "internalType": "uint256",
          "name": "amountIn",
          "type": "uint256"
        },
        {
          "internalType": "address",
          "name": "tokenA",
          "type": "address"
        },
        {
          "internalType": "address",
          "name": "tokenB",
          "type": "address"
        }
      ],
      "name": "swap",
      "outputs": [
        {
          "internalType": "uint256",
          "name": "amountOut",
          "type": "uint256"
        }
      ],
      "stateMutability": "nonpayable",
      "type": "function"
    },
    {
      "inputs": [],
      "name": "swapRouter",
      "outputs": [
        {
          "internalType": "contract ISwapRouter",
          "name": "",
          "type": "address"
        }
      ],
      "stateMutability": "view",
      "type": "function"
    }
  ],
  "transactionHash": "0x0bc38acf309e7176579b84994b942d1304d828ac79e1c020565e4db6f7811dc3",
  "args": [
    "0xE592427A0AEce92De3Edee1F18E0157C05861564"
  ],
  "numDeployments": 1,
  "solcInputHash": "2156a185a6afe6c7a0fb05e6949f1051",
  "bytecode": "0x60a06040523480156200001157600080fd5b5060405162001294380380620012948339818101604052810190620000379190620000f0565b8073ffffffffffffffffffffffffffffffffffffffff1660808173ffffffffffffffffffffffffffffffffffffffff16815250505062000122565b600080fd5b600073ffffffffffffffffffffffffffffffffffffffff82169050919050565b6000620000a48262000077565b9050919050565b6000620000b88262000097565b9050919050565b620000ca81620000ab565b8114620000d657600080fd5b50565b600081519050620000ea81620000bf565b92915050565b60006020828403121562000109576200010862000072565b5b60006200011984828501620000d9565b91505092915050565b6080516111486200014c6000396000818161035f01528181610426015261050f01526111486000f3fe608060405234801561001057600080fd5b50600436106100415760003560e01c80632b7f09231461004657806372f5d98a14610076578063c31c9c0714610094575b600080fd5b610060600480360381019061005b91906109de565b6100b2565b60405161006d9190610a40565b60405180910390f35b61007e610507565b60405161008b9190610a79565b60405180910390f35b61009c61050d565b6040516100a99190610af3565b60405180910390f35b60006100f36040518060400160405280601981526020017f43616c6c696e672073616d706c65416464207769746820256f0000000000000081525085610531565b60008411610136576040517f08c379a000000000000000000000000000000000000000000000000000000000815260040161012d90610b6b565b60405180910390fd5b6101d36040518060600160405280602a81526020016110e9602a913933858673ffffffffffffffffffffffffffffffffffffffff166370a08231336040518263ffffffff1660e01b815260040161018d9190610b9a565b602060405180830381865afa1580156101aa573d6000803e3d6000fd5b505050506040513d601f19601f820116820180604052508101906101ce9190610bca565b6105cd565b838373ffffffffffffffffffffffffffffffffffffffff166370a08231336040518263ffffffff1660e01b815260040161020d9190610b9a565b602060405180830381865afa15801561022a573d6000803e3d6000fd5b505050506040513d601f19601f8201168201806040525081019061024e9190610bca565b101561028f576040517f08c379a000000000000000000000000000000000000000000000000000000000815260040161028690610c43565b60405180910390fd5b838373ffffffffffffffffffffffffffffffffffffffff1663dd62ed3e33306040518363ffffffff1660e01b81526004016102cb929190610c63565b602060405180830381865afa1580156102e8573d6000803e3d6000fd5b505050506040513d601f19601f8201168201806040525081019061030c9190610bca565b101561034d576040517f08c379a000000000000000000000000000000000000000000000000000000000815260040161034490610cd8565b60405180910390fd5b6103598333308761066f565b610384837f0000000000000000000000000000000000000000000000000000000000000000866107c7565b60008060006040518061010001604052808773ffffffffffffffffffffffffffffffffffffffff1681526020018673ffffffffffffffffffffffffffffffffffffffff168152602001610bb862ffffff1681526020013373ffffffffffffffffffffffffffffffffffffffff1681526020014281526020018881526020018481526020018373ffffffffffffffffffffffffffffffffffffffff1681525090507f000000000000000000000000000000000000000000000000000000000000000073ffffffffffffffffffffffffffffffffffffffff1663414bf389826040518263ffffffff1660e01b815260040161047d9190610dd6565b6020604051808303816000875af115801561049c573d6000803e3d6000fd5b505050506040513d601f19601f820116820180604052508101906104c09190610bca565b93507f679d4c6eecd0bfa380374d3e0337ca89520c551b5032ed69cee4a7a1331e643c846040516104f19190610a40565b60405180910390a1600293505050509392505050565b610bb881565b7f000000000000000000000000000000000000000000000000000000000000000081565b6105c98282604051602401610547929190610e71565b6040516020818303038152906040527fb60e72cc000000000000000000000000000000000000000000000000000000007bffffffffffffffffffffffffffffffffffffffffffffffffffffffff19166020820180517bffffffffffffffffffffffffffffffffffffffffffffffffffffffff838183161783525050505061091c565b5050565b610669848484846040516024016105e79493929190610ea1565b6040516020818303038152906040527f8ef3f399000000000000000000000000000000000000000000000000000000007bffffffffffffffffffffffffffffffffffffffffffffffffffffffff19166020820180517bffffffffffffffffffffffffffffffffffffffffffffffffffffffff838183161783525050505061091c565b50505050565b6000808573ffffffffffffffffffffffffffffffffffffffff166323b872dd60e01b8686866040516024016106a693929190610eed565b604051602081830303815290604052907bffffffffffffffffffffffffffffffffffffffffffffffffffffffff19166020820180517bffffffffffffffffffffffffffffffffffffffffffffffffffffffff83818316178352505050506040516107109190610f6b565b6000604051808303816000865af19150503d806000811461074d576040519150601f19603f3d011682016040523d82523d6000602084013e610752565b606091505b5091509150818015610780575060008151148061077f57508080602001905181019061077e9190610fba565b5b5b6107bf576040517f08c379a00000000000000000000000000000000000000000000000000000000081526004016107b690611033565b60405180910390fd5b505050505050565b6000808473ffffffffffffffffffffffffffffffffffffffff1663095ea7b360e01b85856040516024016107fc929190611053565b604051602081830303815290604052907bffffffffffffffffffffffffffffffffffffffffffffffffffffffff19166020820180517bffffffffffffffffffffffffffffffffffffffffffffffffffffffff83818316178352505050506040516108669190610f6b565b6000604051808303816000865af19150503d80600081146108a3576040519150601f19603f3d011682016040523d82523d6000602084013e6108a8565b606091505b50915091508180156108d657506000815114806108d55750808060200190518101906108d49190610fba565b5b5b610915576040517f08c379a000000000000000000000000000000000000000000000000000000000815260040161090c906110c8565b60405180910390fd5b5050505050565b60008151905060006a636f6e736f6c652e6c6f679050602083016000808483855afa5050505050565b600080fd5b6000819050919050565b61095d8161094a565b811461096857600080fd5b50565b60008135905061097a81610954565b92915050565b600073ffffffffffffffffffffffffffffffffffffffff82169050919050565b60006109ab82610980565b9050919050565b6109bb816109a0565b81146109c657600080fd5b50565b6000813590506109d8816109b2565b92915050565b6000806000606084860312156109f7576109f6610945565b5b6000610a058682870161096b565b9350506020610a16868287016109c9565b9250506040610a27868287016109c9565b9150509250925092565b610a3a8161094a565b82525050565b6000602082019050610a556000830184610a31565b92915050565b600062ffffff82169050919050565b610a7381610a5b565b82525050565b6000602082019050610a8e6000830184610a6a565b92915050565b6000819050919050565b6000610ab9610ab4610aaf84610980565b610a94565b610980565b9050919050565b6000610acb82610a9e565b9050919050565b6000610add82610ac0565b9050919050565b610aed81610ad2565b82525050565b6000602082019050610b086000830184610ae4565b92915050565b600082825260208201905092915050565b7f616d6f756e74496e206d7573742062652067726561746572207468616e203000600082015250565b6000610b55601f83610b0e565b9150610b6082610b1f565b602082019050919050565b60006020820190508181036000830152610b8481610b48565b9050919050565b610b94816109a0565b82525050565b6000602082019050610baf6000830184610b8b565b92915050565b600081519050610bc481610954565b92915050565b600060208284031215610be057610bdf610945565b5b6000610bee84828501610bb5565b91505092915050565b7f537761703a20496e73756666696369656e742062616c616e6365000000000000600082015250565b6000610c2d601a83610b0e565b9150610c3882610bf7565b602082019050919050565b60006020820190508181036000830152610c5c81610c20565b9050919050565b6000604082019050610c786000830185610b8b565b610c856020830184610b8b565b9392505050565b7f537761703a20496e73756666696369656e7420616c6c6f77616e636500000000600082015250565b6000610cc2601c83610b0e565b9150610ccd82610c8c565b602082019050919050565b60006020820190508181036000830152610cf181610cb5565b9050919050565b610d01816109a0565b82525050565b610d1081610a5b565b82525050565b610d1f8161094a565b82525050565b610d2e81610980565b82525050565b61010082016000820151610d4b6000850182610cf8565b506020820151610d5e6020850182610cf8565b506040820151610d716040850182610d07565b506060820151610d846060850182610cf8565b506080820151610d976080850182610d16565b5060a0820151610daa60a0850182610d16565b5060c0820151610dbd60c0850182610d16565b5060e0820151610dd060e0850182610d25565b50505050565b600061010082019050610dec6000830184610d34565b92915050565b600081519050919050565b60005b83811015610e1b578082015181840152602081019050610e00565b60008484015250505050565b6000601f19601f8301169050919050565b6000610e4382610df2565b610e4d8185610b0e565b9350610e5d818560208601610dfd565b610e6681610e27565b840191505092915050565b60006040820190508181036000830152610e8b8185610e38565b9050610e9a6020830184610a31565b9392505050565b60006080820190508181036000830152610ebb8187610e38565b9050610eca6020830186610b8b565b610ed76040830185610b8b565b610ee46060830184610a31565b95945050505050565b6000606082019050610f026000830186610b8b565b610f0f6020830185610b8b565b610f1c6040830184610a31565b949350505050565b600081519050919050565b600081905092915050565b6000610f4582610f24565b610f4f8185610f2f565b9350610f5f818560208601610dfd565b80840191505092915050565b6000610f778284610f3a565b915081905092915050565b60008115159050919050565b610f9781610f82565b8114610fa257600080fd5b50565b600081519050610fb481610f8e565b92915050565b600060208284031215610fd057610fcf610945565b5b6000610fde84828501610fa5565b91505092915050565b7f5354460000000000000000000000000000000000000000000000000000000000600082015250565b600061101d600383610b0e565b915061102882610fe7565b602082019050919050565b6000602082019050818103600083015261104c81611010565b9050919050565b60006040820190506110686000830185610b8b565b6110756020830184610a31565b9392505050565b7f5341000000000000000000000000000000000000000000000000000000000000600082015250565b60006110b2600283610b0e565b91506110bd8261107c565b602082019050919050565b600060208201905081810360008301526110e1816110a5565b905091905056fe6d73672e73656e646572203a20256f203b20746f6b656e41203a20256f2c2062616c616e63653a20256fa26469706673582212200dd84e0ebae205d30bcad604c26972b7e46bc139fd97539bfc7b2034ca9147ad64736f6c63430008110033",
  "devdoc": {
    "kind": "dev",
    "methods": {
      "constructor": {
        "details": "see https://docs.uniswap.org/contracts/v3/reference/deployments",
        "params": {
          "_swapRouter": "The contract address of the uniswap V3 router"
        }
      },
      "swap(uint256,address,address)": {
        "params": {
          "amountIn": "The amount of tokenA to swap",
          "tokenA": "token address to swap from",
          "tokenB": "token address to swap to"
        },
        "returns": {
          "amountOut": "The amount of tokenB received"
        }
      }
    },
    "version": 1
  },
  "userdoc": {
    "kind": "user",
    "methods": {
      "constructor": {
        "notice": "Creates a new SimpleSwap contract"
      },
      "swap(uint256,address,address)": {
        "notice": "Swaps the specified amount of tokenA for tokenB"
      }
    },
    "version": 1
  },
  "storageLayout": {
    "storage": [],
    "types": null
  }
}