{
  "address": "0xB7ca895F81F20e05A5eb11B05Cbaab3DAe5e23cd",
  "abi": [
    {
      "inputs": [
        {
          "internalType": "uint256",
          "name": "amountIn",
          "type": "uint256"
        }
      ],
      "name": "someTest",
      "outputs": [],
      "stateMutability": "nonpayable",
      "type": "function"
    }
  ],
  "transactionHash": "0x131ffeb43574a16bdc178e45b8d077dcb2a3fb6dbe7b1496108b5f434eb6127d",
  "args": [],
  "numDeployments": 1,
  "solcInputHash": "9ea279aba0a513a5b7a6853f0009b402",
  "bytecode": "0x608060405234801561001057600080fd5b5061029f806100206000396000f3fe608060405234801561001057600080fd5b506004361061002b5760003560e01c8063313bd8dd14610030575b600080fd5b61004a6004803603810190610045919061018a565b61004c565b005b61008a6040518060400160405280601681526020017f43616c6c696e67207377617057455448466f724441490000000000000000000081525061008d565b50565b610123816040516024016100a19190610247565b6040516020818303038152906040527f41304fac000000000000000000000000000000000000000000000000000000007bffffffffffffffffffffffffffffffffffffffffffffffffffffffff19166020820180517bffffffffffffffffffffffffffffffffffffffffffffffffffffffff8381831617835250505050610126565b50565b60008151905060006a636f6e736f6c652e6c6f679050602083016000808483855afa5050505050565b600080fd5b6000819050919050565b61016781610154565b811461017257600080fd5b50565b6000813590506101848161015e565b92915050565b6000602082840312156101a05761019f61014f565b5b60006101ae84828501610175565b91505092915050565b600081519050919050565b600082825260208201905092915050565b60005b838110156101f15780820151818401526020810190506101d6565b60008484015250505050565b6000601f19601f8301169050919050565b6000610219826101b7565b61022381856101c2565b93506102338185602086016101d3565b61023c816101fd565b840191505092915050565b60006020820190508181036000830152610261818461020e565b90509291505056fea26469706673582212207fea5208e17b09bb31f774e67e72eea6169038e420933266859a33bf70c2563164736f6c63430008110033",
  "devdoc": {
    "kind": "dev",
    "methods": {},
    "version": 1
  },
  "userdoc": {
    "kind": "user",
    "methods": {},
    "version": 1
  },
  "storageLayout": {
    "storage": [],
    "types": null
  }
}