{
  "address": "0xd0EC100F1252a53322051a95CF05c32f0C174354",
  "abi": [
    {
      "inputs": [
        {
          "internalType": "contract ISwapRouter",
          "name": "_swapRouter",
          "type": "address"
        },
        {
          "internalType": "contract IUniswapV3Factory",
          "name": "_uniswapV3Factory",
          "type": "address"
        }
      ],
      "stateMutability": "nonpayable",
      "type": "constructor"
    },
    {
      "anonymous": false,
      "inputs": [
        {
          "indexed": false,
          "internalType": "uint256",
          "name": "amountOut",
          "type": "uint256"
        }
      ],
      "name": "SwappedFor",
      "type": "event"
    },
    {
      "inputs": [],
      "name": "FEE_TIER",
      "outputs": [
        {
          "internalType": "uint24",
          "name": "",
          "type": "uint24"
        }
      ],
      "stateMutability": "view",
      "type": "function"
    },
    {
      "inputs": [
        {
          "internalType": "address",
          "name": "tokenA",
          "type": "address"
        },
        {
          "internalType": "address",
          "name": "tokenB",
          "type": "address"
        }
      ],
      "name": "getTokenBPriceInTokenA",
      "outputs": [
        {
          "internalType": "uint256",
          "name": "",
          "type": "uint256"
        }
      ],
      "stateMutability": "view",
      "type": "function"
    },
    {
      "inputs": [
        {
          "internalType": "uint256",
          "name": "amountIn",
          "type": "uint256"
        },
        {
          "internalType": "address",
          "name": "tokenA",
          "type": "address"
        },
        {
          "internalType": "address",
          "name": "tokenB",
          "type": "address"
        },
        {
          "internalType": "address",
          "name": "recipient",
          "type": "address"
        }
      ],
      "name": "swap",
      "outputs": [
        {
          "internalType": "uint256",
          "name": "amountOut",
          "type": "uint256"
        }
      ],
      "stateMutability": "nonpayable",
      "type": "function"
    },
    {
      "inputs": [],
      "name": "swapRouter",
      "outputs": [
        {
          "internalType": "contract ISwapRouter",
          "name": "",
          "type": "address"
        }
      ],
      "stateMutability": "view",
      "type": "function"
    },
    {
      "inputs": [],
      "name": "uniswapV3Factory",
      "outputs": [
        {
          "internalType": "contract IUniswapV3Factory",
          "name": "",
          "type": "address"
        }
      ],
      "stateMutability": "view",
      "type": "function"
    }
  ],
  "transactionHash": "0x7db713f210dedb442d02d7ba458dbfadf391ece9bc9b362ed80afedd11a1524d",
  "args": [
    "0xE592427A0AEce92De3Edee1F18E0157C05861564",
    "0x1F98431c8aD98523631AE4a59f267346ea31F984"
  ],
  "numDeployments": 1,
  "solcInputHash": "712e9d8b2c5862038a6fb4a156da641f",
  "bytecode": "0x60c06040523480156200001157600080fd5b506040516200172b3803806200172b83398181016040528101906200003791906200016a565b8173ffffffffffffffffffffffffffffffffffffffff1660808173ffffffffffffffffffffffffffffffffffffffff16815250508073ffffffffffffffffffffffffffffffffffffffff1660a08173ffffffffffffffffffffffffffffffffffffffff16815250505050620001b1565b600080fd5b600073ffffffffffffffffffffffffffffffffffffffff82169050919050565b6000620000d982620000ac565b9050919050565b6000620000ed82620000cc565b9050919050565b620000ff81620000e0565b81146200010b57600080fd5b50565b6000815190506200011f81620000f4565b92915050565b60006200013282620000cc565b9050919050565b620001448162000125565b81146200015057600080fd5b50565b600081519050620001648162000139565b92915050565b60008060408385031215620001845762000183620000a7565b5b600062000194858286016200010e565b9250506020620001a78582860162000153565b9150509250929050565b60805160a05161153f620001ec6000396000818161011e01526105580152600081816103ae0152818161047501526106cc015261153f6000f3fe608060405234801561001057600080fd5b50600436106100575760003560e01c80634c69a6c91461005c5780635b5491821461007a57806388156e65146100985780639cb3049e146100c8578063c31c9c07146100f8575b600080fd5b610064610116565b6040516100719190610a84565b60405180910390f35b61008261011c565b60405161008f9190610b1e565b60405180910390f35b6100b260048036038101906100ad9190610bb2565b610140565b6040516100bf9190610c28565b60405180910390f35b6100e260048036038101906100dd9190610c43565b610553565b6040516100ef9190610c28565b60405180910390f35b6101006106ca565b60405161010d9190610ca4565b60405180910390f35b610bb881565b7f000000000000000000000000000000000000000000000000000000000000000081565b60006101df6040518060600160405280603c81526020016114ce603c913933868773ffffffffffffffffffffffffffffffffffffffff166370a08231336040518263ffffffff1660e01b81526004016101999190610cce565b602060405180830381865afa1580156101b6573d6000803e3d6000fd5b505050506040513d601f19601f820116820180604052508101906101da9190610cfe565b6106ee565b60008511610222576040517f08c379a000000000000000000000000000000000000000000000000000000000815260040161021990610d88565b60405180910390fd5b848473ffffffffffffffffffffffffffffffffffffffff166370a08231336040518263ffffffff1660e01b815260040161025c9190610cce565b602060405180830381865afa158015610279573d6000803e3d6000fd5b505050506040513d601f19601f8201168201806040525081019061029d9190610cfe565b10156102de576040517f08c379a00000000000000000000000000000000000000000000000000000000081526004016102d590610df4565b60405180910390fd5b848473ffffffffffffffffffffffffffffffffffffffff1663dd62ed3e33306040518363ffffffff1660e01b815260040161031a929190610e14565b602060405180830381865afa158015610337573d6000803e3d6000fd5b505050506040513d601f19601f8201168201806040525081019061035b9190610cfe565b101561039c576040517f08c379a000000000000000000000000000000000000000000000000000000000815260040161039390610e89565b60405180910390fd5b6103a884333088610790565b6103d3847f0000000000000000000000000000000000000000000000000000000000000000876108e8565b60008060006040518061010001604052808873ffffffffffffffffffffffffffffffffffffffff1681526020018773ffffffffffffffffffffffffffffffffffffffff168152602001610bb862ffffff1681526020018673ffffffffffffffffffffffffffffffffffffffff1681526020014281526020018981526020018481526020018373ffffffffffffffffffffffffffffffffffffffff1681525090507f000000000000000000000000000000000000000000000000000000000000000073ffffffffffffffffffffffffffffffffffffffff1663414bf389826040518263ffffffff1660e01b81526004016104cc9190610f87565b6020604051808303816000875af11580156104eb573d6000803e3d6000fd5b505050506040513d601f19601f8201168201806040525081019061050f9190610cfe565b93507f679d4c6eecd0bfa380374d3e0337ca89520c551b5032ed69cee4a7a1331e643c846040516105409190610c28565b60405180910390a1505050949350505050565b6000807f000000000000000000000000000000000000000000000000000000000000000073ffffffffffffffffffffffffffffffffffffffff16631698ee828585610bb86040518463ffffffff1660e01b81526004016105b593929190610fa3565b602060405180830381865afa1580156105d2573d6000803e3d6000fd5b505050506040513d601f19601f820116820180604052508101906105f69190610fef565b905060008173ffffffffffffffffffffffffffffffffffffffff16633850c7bd6040518163ffffffff1660e01b815260040160e060405180830381865afa158015610645573d6000803e3d6000fd5b505050506040513d601f19601f82011682018060405250810190610669919061112c565b505050505050905060c0670de0b6b3a76400008273ffffffffffffffffffffffffffffffffffffffff168373ffffffffffffffffffffffffffffffffffffffff166106b491906111fd565b6106be91906111fd565b901c9250505092915050565b7f000000000000000000000000000000000000000000000000000000000000000081565b61078a8484848460405160240161070894939291906112be565b6040516020818303038152906040527f8ef3f399000000000000000000000000000000000000000000000000000000007bffffffffffffffffffffffffffffffffffffffffffffffffffffffff19166020820180517bffffffffffffffffffffffffffffffffffffffffffffffffffffffff8381831617835250505050610a3d565b50505050565b6000808573ffffffffffffffffffffffffffffffffffffffff166323b872dd60e01b8686866040516024016107c79392919061130a565b604051602081830303815290604052907bffffffffffffffffffffffffffffffffffffffffffffffffffffffff19166020820180517bffffffffffffffffffffffffffffffffffffffffffffffffffffffff83818316178352505050506040516108319190611388565b6000604051808303816000865af19150503d806000811461086e576040519150601f19603f3d011682016040523d82523d6000602084013e610873565b606091505b50915091508180156108a157506000815114806108a057508080602001905181019061089f919061139f565b5b5b6108e0576040517f08c379a00000000000000000000000000000000000000000000000000000000081526004016108d790611418565b60405180910390fd5b505050505050565b6000808473ffffffffffffffffffffffffffffffffffffffff1663095ea7b360e01b858560405160240161091d929190611438565b604051602081830303815290604052907bffffffffffffffffffffffffffffffffffffffffffffffffffffffff19166020820180517bffffffffffffffffffffffffffffffffffffffffffffffffffffffff83818316178352505050506040516109879190611388565b6000604051808303816000865af19150503d80600081146109c4576040519150601f19603f3d011682016040523d82523d6000602084013e6109c9565b606091505b50915091508180156109f757506000815114806109f65750808060200190518101906109f5919061139f565b5b5b610a36576040517f08c379a0000000000000000000000000000000000000000000000000000000008152600401610a2d906114ad565b60405180910390fd5b5050505050565b60008151905060006a636f6e736f6c652e6c6f679050602083016000808483855afa5050505050565b600062ffffff82169050919050565b610a7e81610a66565b82525050565b6000602082019050610a996000830184610a75565b92915050565b600073ffffffffffffffffffffffffffffffffffffffff82169050919050565b6000819050919050565b6000610ae4610adf610ada84610a9f565b610abf565b610a9f565b9050919050565b6000610af682610ac9565b9050919050565b6000610b0882610aeb565b9050919050565b610b1881610afd565b82525050565b6000602082019050610b336000830184610b0f565b92915050565b600080fd5b6000819050919050565b610b5181610b3e565b8114610b5c57600080fd5b50565b600081359050610b6e81610b48565b92915050565b6000610b7f82610a9f565b9050919050565b610b8f81610b74565b8114610b9a57600080fd5b50565b600081359050610bac81610b86565b92915050565b60008060008060808587031215610bcc57610bcb610b39565b5b6000610bda87828801610b5f565b9450506020610beb87828801610b9d565b9350506040610bfc87828801610b9d565b9250506060610c0d87828801610b9d565b91505092959194509250565b610c2281610b3e565b82525050565b6000602082019050610c3d6000830184610c19565b92915050565b60008060408385031215610c5a57610c59610b39565b5b6000610c6885828601610b9d565b9250506020610c7985828601610b9d565b9150509250929050565b6000610c8e82610aeb565b9050919050565b610c9e81610c83565b82525050565b6000602082019050610cb96000830184610c95565b92915050565b610cc881610b74565b82525050565b6000602082019050610ce36000830184610cbf565b92915050565b600081519050610cf881610b48565b92915050565b600060208284031215610d1457610d13610b39565b5b6000610d2284828501610ce9565b91505092915050565b600082825260208201905092915050565b7f616d6f756e74496e206d7573742062652067726561746572207468616e203000600082015250565b6000610d72601f83610d2b565b9150610d7d82610d3c565b602082019050919050565b60006020820190508181036000830152610da181610d65565b9050919050565b7f537761703a20496e73756666696369656e742062616c616e6365000000000000600082015250565b6000610dde601a83610d2b565b9150610de982610da8565b602082019050919050565b60006020820190508181036000830152610e0d81610dd1565b9050919050565b6000604082019050610e296000830185610cbf565b610e366020830184610cbf565b9392505050565b7f537761703a20496e73756666696369656e7420616c6c6f77616e636500000000600082015250565b6000610e73601c83610d2b565b9150610e7e82610e3d565b602082019050919050565b60006020820190508181036000830152610ea281610e66565b9050919050565b610eb281610b74565b82525050565b610ec181610a66565b82525050565b610ed081610b3e565b82525050565b610edf81610a9f565b82525050565b61010082016000820151610efc6000850182610ea9565b506020820151610f0f6020850182610ea9565b506040820151610f226040850182610eb8565b506060820151610f356060850182610ea9565b506080820151610f486080850182610ec7565b5060a0820151610f5b60a0850182610ec7565b5060c0820151610f6e60c0850182610ec7565b5060e0820151610f8160e0850182610ed6565b50505050565b600061010082019050610f9d6000830184610ee5565b92915050565b6000606082019050610fb86000830186610cbf565b610fc56020830185610cbf565b610fd26040830184610a75565b949350505050565b600081519050610fe981610b86565b92915050565b60006020828403121561100557611004610b39565b5b600061101384828501610fda565b91505092915050565b61102581610a9f565b811461103057600080fd5b50565b6000815190506110428161101c565b92915050565b60008160020b9050919050565b61105e81611048565b811461106957600080fd5b50565b60008151905061107b81611055565b92915050565b600061ffff82169050919050565b61109881611081565b81146110a357600080fd5b50565b6000815190506110b58161108f565b92915050565b600060ff82169050919050565b6110d1816110bb565b81146110dc57600080fd5b50565b6000815190506110ee816110c8565b92915050565b60008115159050919050565b611109816110f4565b811461111457600080fd5b50565b60008151905061112681611100565b92915050565b600080600080600080600060e0888a03121561114b5761114a610b39565b5b60006111598a828b01611033565b975050602061116a8a828b0161106c565b965050604061117b8a828b016110a6565b955050606061118c8a828b016110a6565b945050608061119d8a828b016110a6565b93505060a06111ae8a828b016110df565b92505060c06111bf8a828b01611117565b91505092959891949750929550565b7f4e487b7100000000000000000000000000000000000000000000000000000000600052601160045260246000fd5b600061120882610b3e565b915061121383610b3e565b925082820261122181610b3e565b91508282048414831517611238576112376111ce565b5b5092915050565b600081519050919050565b60005b8381101561126857808201518184015260208101905061124d565b60008484015250505050565b6000601f19601f8301169050919050565b60006112908261123f565b61129a8185610d2b565b93506112aa81856020860161124a565b6112b381611274565b840191505092915050565b600060808201905081810360008301526112d88187611285565b90506112e76020830186610cbf565b6112f46040830185610cbf565b6113016060830184610c19565b95945050505050565b600060608201905061131f6000830186610cbf565b61132c6020830185610cbf565b6113396040830184610c19565b949350505050565b600081519050919050565b600081905092915050565b600061136282611341565b61136c818561134c565b935061137c81856020860161124a565b80840191505092915050565b60006113948284611357565b915081905092915050565b6000602082840312156113b5576113b4610b39565b5b60006113c384828501611117565b91505092915050565b7f5354460000000000000000000000000000000000000000000000000000000000600082015250565b6000611402600383610d2b565b915061140d826113cc565b602082019050919050565b60006020820190508181036000830152611431816113f5565b9050919050565b600060408201905061144d6000830185610cbf565b61145a6020830184610c19565b9392505050565b7f5341000000000000000000000000000000000000000000000000000000000000600082015250565b6000611497600283610d2b565b91506114a282611461565b602082019050919050565b600060208201905081810360008301526114c68161148a565b905091905056fe43616c6c696e6720737761702077697468206d73672e73656e646572203a20256f203b20746f6b656e41203a20256f2c2062616c616e63653a20256fa2646970667358221220df1b1502f72a18328b7f9b81e11c13bb71e97fba1af96f0d0418ad3f748d79a364736f6c63430008110033",
  "devdoc": {
    "kind": "dev",
    "methods": {
      "constructor": {
        "details": "see https://docs.uniswap.org/contracts/v3/reference/deployments",
        "params": {
          "_swapRouter": "The contract address of the uniswap V3 router"
        }
      },
      "swap(uint256,address,address,address)": {
        "params": {
          "amountIn": "The amount of tokenA to swap",
          "tokenA": "token address to swap from",
          "tokenB": "token address to swap to"
        },
        "returns": {
          "amountOut": "The amount of tokenB received"
        }
      }
    },
    "version": 1
  },
  "userdoc": {
    "kind": "user",
    "methods": {
      "constructor": {
        "notice": "Creates a new SimpleSwap contract"
      },
      "swap(uint256,address,address,address)": {
        "notice": "Swaps the specified amount of tokenA for tokenB"
      }
    },
    "version": 1
  },
  "storageLayout": {
    "storage": [],
    "types": null
  }
}