{
  "address": "0xAc40343B2549A7caDAb5A1a42e6B73137746f502",
  "abi": [
    {
      "inputs": [
        {
          "internalType": "address",
          "name": "usdcAddress",
          "type": "address"
        },
        {
          "internalType": "uint256",
          "name": "_keepersUpdateInterval",
          "type": "uint256"
        }
      ],
      "stateMutability": "nonpayable",
      "type": "constructor"
    },
    {
      "inputs": [],
      "name": "Dca__UpkeepNotNeeded",
      "type": "error"
    },
    {
      "inputs": [],
      "name": "Dca__WithdrawError",
      "type": "error"
    },
    {
      "inputs": [
        {
          "internalType": "bytes",
          "name": "",
          "type": "bytes"
        }
      ],
      "name": "checkUpkeep",
      "outputs": [
        {
          "internalType": "bool",
          "name": "upkeepNeeded",
          "type": "bool"
        },
        {
          "internalType": "bytes",
          "name": "",
          "type": "bytes"
        }
      ],
      "stateMutability": "view",
      "type": "function"
    },
    {
      "inputs": [],
      "name": "counter",
      "outputs": [
        {
          "internalType": "uint256",
          "name": "",
          "type": "uint256"
        }
      ],
      "stateMutability": "view",
      "type": "function"
    },
    {
      "inputs": [
        {
          "internalType": "uint256",
          "name": "depositAmount",
          "type": "uint256"
        }
      ],
      "name": "deposit",
      "outputs": [],
      "stateMutability": "nonpayable",
      "type": "function"
    },
    {
      "inputs": [
        {
          "internalType": "address",
          "name": "investor",
          "type": "address"
        }
      ],
      "name": "getAmountInvestedForAddress",
      "outputs": [
        {
          "internalType": "uint256",
          "name": "",
          "type": "uint256"
        }
      ],
      "stateMutability": "view",
      "type": "function"
    },
    {
      "inputs": [],
      "name": "getCounter",
      "outputs": [
        {
          "internalType": "uint256",
          "name": "",
          "type": "uint256"
        }
      ],
      "stateMutability": "view",
      "type": "function"
    },
    {
      "inputs": [],
      "name": "getKeepersUpdateInterval",
      "outputs": [
        {
          "internalType": "uint256",
          "name": "",
          "type": "uint256"
        }
      ],
      "stateMutability": "view",
      "type": "function"
    },
    {
      "inputs": [],
      "name": "keepersUpdateInterval",
      "outputs": [
        {
          "internalType": "uint256",
          "name": "",
          "type": "uint256"
        }
      ],
      "stateMutability": "view",
      "type": "function"
    },
    {
      "inputs": [],
      "name": "lastTimeStamp",
      "outputs": [
        {
          "internalType": "uint256",
          "name": "",
          "type": "uint256"
        }
      ],
      "stateMutability": "view",
      "type": "function"
    },
    {
      "inputs": [
        {
          "internalType": "bytes",
          "name": "",
          "type": "bytes"
        }
      ],
      "name": "performUpkeep",
      "outputs": [],
      "stateMutability": "nonpayable",
      "type": "function"
    },
    {
      "inputs": [],
      "name": "withdraw",
      "outputs": [],
      "stateMutability": "nonpayable",
      "type": "function"
    }
  ],
  "transactionHash": "0xe3a662b8d5012652672cea46f352b9869635ec00ba2b7ed8be0c29fbb4e54e49",
  "args": [
    "0x07865c6E87B9F70255377e024ace6630C1Eaa37F",
    "60"
  ],
  "numDeployments": 3,
  "solcInputHash": "e2f3f3c5aaf4b1e0d6d6cb597a296800",
  "bytecode": "0x60a06040523480156200001157600080fd5b506040516200120d3803806200120d83398181016040528101906200003791906200013c565b81600160006101000a81548173ffffffffffffffffffffffffffffffffffffffff021916908373ffffffffffffffffffffffffffffffffffffffff1602179055508060808181525050426002819055506000600381905550505062000183565b600080fd5b600073ffffffffffffffffffffffffffffffffffffffff82169050919050565b6000620000c9826200009c565b9050919050565b620000db81620000bc565b8114620000e757600080fd5b50565b600081519050620000fb81620000d0565b92915050565b6000819050919050565b620001168162000101565b81146200012257600080fd5b50565b60008151905062000136816200010b565b92915050565b6000806040838503121562000156576200015562000097565b5b60006200016685828601620000ea565b9250506020620001798582860162000125565b9150509250929050565b608051611060620001ad6000396000818161040601528181610434015261047701526110606000f3fe608060405234801561001057600080fd5b506004361061009e5760003560e01c806361bc221a1161006657806361bc221a146101355780636e04ff0d146101535780638ada066e14610184578063aad9d8a0146101a2578063b6b55f25146101c05761009e565b8063351b1524146100a35780633ccfd60b146100d35780633f3b3b27146100dd5780634585e33b146100fb5780635962ddac14610117575b600080fd5b6100bd60048036038101906100b8919061087d565b6101dc565b6040516100ca91906108c3565b60405180910390f35b6100db610224565b005b6100e5610389565b6040516100f291906108c3565b60405180910390f35b61011560048036038101906101109190610943565b61038f565b005b61011f610404565b60405161012c91906108c3565b60405180910390f35b61013d610428565b60405161014a91906108c3565b60405180910390f35b61016d60048036038101906101689190610ad1565b61042e565b60405161017b929190610bb4565b60405180910390f35b61018c610469565b60405161019991906108c3565b60405180910390f35b6101aa610473565b6040516101b791906108c3565b60405180910390f35b6101da60048036038101906101d59190610c10565b61049b565b005b60008060008373ffffffffffffffffffffffffffffffffffffffff1673ffffffffffffffffffffffffffffffffffffffff168152602001908152602001600020549050919050565b60008060003373ffffffffffffffffffffffffffffffffffffffff1673ffffffffffffffffffffffffffffffffffffffff168152602001908152602001600020549050600081116102a1576040517fd8c980eb00000000000000000000000000000000000000000000000000000000815260040160405180910390fd5b60008060003373ffffffffffffffffffffffffffffffffffffffff1673ffffffffffffffffffffffffffffffffffffffff16815260200190815260200160002081905550600160009054906101000a900473ffffffffffffffffffffffffffffffffffffffff1673ffffffffffffffffffffffffffffffffffffffff1663a9059cbb33836040518363ffffffff1660e01b8152600401610342929190610c4c565b6020604051808303816000875af1158015610361573d6000803e3d6000fd5b505050506040513d601f19601f820116820180604052508101906103859190610ca1565b5050565b60025481565b60006103a96040518060200160405280600081525061042e565b509050806103e3576040517f5fb3ae8100000000000000000000000000000000000000000000000000000000815260040160405180910390fd5b4260028190555060016003546103f99190610cfd565b600381905550505050565b7f000000000000000000000000000000000000000000000000000000000000000081565b60035481565b600060607f0000000000000000000000000000000000000000000000000000000000000000600254426104619190610d31565b119150915091565b6000600354905090565b60007f0000000000000000000000000000000000000000000000000000000000000000905090565b6104d96040518060400160405280600f81526020017f43616c6c696e67206465706f7369740000000000000000000000000000000000815250610749565b6000811161051c576040517f08c379a000000000000000000000000000000000000000000000000000000000815260040161051390610de8565b60405180910390fd5b80600160009054906101000a900473ffffffffffffffffffffffffffffffffffffffff1673ffffffffffffffffffffffffffffffffffffffff1663dd62ed3e33306040518363ffffffff1660e01b815260040161057a929190610e08565b602060405180830381865afa158015610597573d6000803e3d6000fd5b505050506040513d601f19601f820116820180604052508101906105bb9190610e46565b10156105fc576040517f08c379a00000000000000000000000000000000000000000000000000000000081526004016105f390610ebf565b60405180910390fd5b6000620f42408261060d9190610edf565b9050600160009054906101000a900473ffffffffffffffffffffffffffffffffffffffff1673ffffffffffffffffffffffffffffffffffffffff166323b872dd3330846040518463ffffffff1660e01b815260040161066e93929190610f21565b6020604051808303816000875af115801561068d573d6000803e3d6000fd5b505050506040513d601f19601f820116820180604052508101906106b19190610ca1565b6106f0576040517f08c379a00000000000000000000000000000000000000000000000000000000081526004016106e790610fa4565b60405180910390fd5b806000803373ffffffffffffffffffffffffffffffffffffffff1673ffffffffffffffffffffffffffffffffffffffff168152602001908152602001600020600082825461073e9190610cfd565b925050819055505050565b6107df8160405160240161075d9190611008565b6040516020818303038152906040527f41304fac000000000000000000000000000000000000000000000000000000007bffffffffffffffffffffffffffffffffffffffffffffffffffffffff19166020820180517bffffffffffffffffffffffffffffffffffffffffffffffffffffffff83818316178352505050506107e2565b50565b60008151905060006a636f6e736f6c652e6c6f679050602083016000808483855afa5050505050565b6000604051905090565b600080fd5b600080fd5b600073ffffffffffffffffffffffffffffffffffffffff82169050919050565b600061084a8261081f565b9050919050565b61085a8161083f565b811461086557600080fd5b50565b60008135905061087781610851565b92915050565b60006020828403121561089357610892610815565b5b60006108a184828501610868565b91505092915050565b6000819050919050565b6108bd816108aa565b82525050565b60006020820190506108d860008301846108b4565b92915050565b600080fd5b600080fd5b600080fd5b60008083601f840112610903576109026108de565b5b8235905067ffffffffffffffff8111156109205761091f6108e3565b5b60208301915083600182028301111561093c5761093b6108e8565b5b9250929050565b6000806020838503121561095a57610959610815565b5b600083013567ffffffffffffffff8111156109785761097761081a565b5b610984858286016108ed565b92509250509250929050565b600080fd5b6000601f19601f8301169050919050565b7f4e487b7100000000000000000000000000000000000000000000000000000000600052604160045260246000fd5b6109de82610995565b810181811067ffffffffffffffff821117156109fd576109fc6109a6565b5b80604052505050565b6000610a1061080b565b9050610a1c82826109d5565b919050565b600067ffffffffffffffff821115610a3c57610a3b6109a6565b5b610a4582610995565b9050602081019050919050565b82818337600083830152505050565b6000610a74610a6f84610a21565b610a06565b905082815260208101848484011115610a9057610a8f610990565b5b610a9b848285610a52565b509392505050565b600082601f830112610ab857610ab76108de565b5b8135610ac8848260208601610a61565b91505092915050565b600060208284031215610ae757610ae6610815565b5b600082013567ffffffffffffffff811115610b0557610b0461081a565b5b610b1184828501610aa3565b91505092915050565b60008115159050919050565b610b2f81610b1a565b82525050565b600081519050919050565b600082825260208201905092915050565b60005b83811015610b6f578082015181840152602081019050610b54565b60008484015250505050565b6000610b8682610b35565b610b908185610b40565b9350610ba0818560208601610b51565b610ba981610995565b840191505092915050565b6000604082019050610bc96000830185610b26565b8181036020830152610bdb8184610b7b565b90509392505050565b610bed816108aa565b8114610bf857600080fd5b50565b600081359050610c0a81610be4565b92915050565b600060208284031215610c2657610c25610815565b5b6000610c3484828501610bfb565b91505092915050565b610c468161083f565b82525050565b6000604082019050610c616000830185610c3d565b610c6e60208301846108b4565b9392505050565b610c7e81610b1a565b8114610c8957600080fd5b50565b600081519050610c9b81610c75565b92915050565b600060208284031215610cb757610cb6610815565b5b6000610cc584828501610c8c565b91505092915050565b7f4e487b7100000000000000000000000000000000000000000000000000000000600052601160045260246000fd5b6000610d08826108aa565b9150610d13836108aa565b9250828201905080821115610d2b57610d2a610cce565b5b92915050565b6000610d3c826108aa565b9150610d47836108aa565b9250828203905081811115610d5f57610d5e610cce565b5b92915050565b600082825260208201905092915050565b7f6465706f7369743a20416d6f756e74206d75737420626520677265617465722060008201527f7468616e207a65726f0000000000000000000000000000000000000000000000602082015250565b6000610dd2602983610d65565b9150610ddd82610d76565b604082019050919050565b60006020820190508181036000830152610e0181610dc5565b9050919050565b6000604082019050610e1d6000830185610c3d565b610e2a6020830184610c3d565b9392505050565b600081519050610e4081610be4565b92915050565b600060208284031215610e5c57610e5b610815565b5b6000610e6a84828501610e31565b91505092915050565b7f6465706f7369743a20496e73756666696369656e7420616c6c6f77616e636500600082015250565b6000610ea9601f83610d65565b9150610eb482610e73565b602082019050919050565b60006020820190508181036000830152610ed881610e9c565b9050919050565b6000610eea826108aa565b9150610ef5836108aa565b9250828202610f03816108aa565b91508282048414831517610f1a57610f19610cce565b5b5092915050565b6000606082019050610f366000830186610c3d565b610f436020830185610c3d565b610f5060408301846108b4565b949350505050565b7f6465706f7369743a207472616e7366657246726f6d206661696c656400000000600082015250565b6000610f8e601c83610d65565b9150610f9982610f58565b602082019050919050565b60006020820190508181036000830152610fbd81610f81565b9050919050565b600081519050919050565b6000610fda82610fc4565b610fe48185610d65565b9350610ff4818560208601610b51565b610ffd81610995565b840191505092915050565b600060208201905081810360008301526110228184610fcf565b90509291505056fea26469706673582212204703ea1c158c5da3b99dc6752097204363cfb3d741b6d133c0e356a6d852e27a64736f6c63430008110033",
  "devdoc": {
    "kind": "dev",
    "methods": {},
    "version": 1
  },
  "userdoc": {
    "kind": "user",
    "methods": {},
    "version": 1
  },
  "storageLayout": {
    "storage": [
      {
        "astId": 438,
        "contract": "contracts/Dca.sol:Dca",
        "label": "s_addressToAmountDeposited",
        "offset": 0,
        "slot": "0",
        "type": "t_mapping(t_address,t_uint256)"
      },
      {
        "astId": 441,
        "contract": "contracts/Dca.sol:Dca",
        "label": "s_usdc",
        "offset": 0,
        "slot": "1",
        "type": "t_contract(IERC20)135"
      },
      {
        "astId": 445,
        "contract": "contracts/Dca.sol:Dca",
        "label": "lastTimeStamp",
        "offset": 0,
        "slot": "2",
        "type": "t_uint256"
      },
      {
        "astId": 447,
        "contract": "contracts/Dca.sol:Dca",
        "label": "counter",
        "offset": 0,
        "slot": "3",
        "type": "t_uint256"
      }
    ],
    "types": {
      "t_address": {
        "encoding": "inplace",
        "label": "address",
        "numberOfBytes": "20"
      },
      "t_contract(IERC20)135": {
        "encoding": "inplace",
        "label": "contract IERC20",
        "numberOfBytes": "20"
      },
      "t_mapping(t_address,t_uint256)": {
        "encoding": "mapping",
        "key": "t_address",
        "label": "mapping(address => uint256)",
        "numberOfBytes": "32",
        "value": "t_uint256"
      },
      "t_uint256": {
        "encoding": "inplace",
        "label": "uint256",
        "numberOfBytes": "32"
      }
    }
  }
}