{
  "address": "0x327719B4bD50357d773d35DCD0a92E16c55c8Dc9",
  "abi": [
    {
      "inputs": [
        {
          "internalType": "contract ISwapRouter",
          "name": "_swapRouter",
          "type": "address"
        },
        {
          "internalType": "contract IUniswapV3Factory",
          "name": "_uniswapV3Factory",
          "type": "address"
        }
      ],
      "stateMutability": "nonpayable",
      "type": "constructor"
    },
    {
      "anonymous": false,
      "inputs": [
        {
          "indexed": false,
          "internalType": "uint256",
          "name": "amountOut",
          "type": "uint256"
        }
      ],
      "name": "SwappedFor",
      "type": "event"
    },
    {
      "inputs": [],
      "name": "FEE_TIER",
      "outputs": [
        {
          "internalType": "uint24",
          "name": "",
          "type": "uint24"
        }
      ],
      "stateMutability": "view",
      "type": "function"
    },
    {
      "inputs": [
        {
          "internalType": "uint256",
          "name": "amountIn",
          "type": "uint256"
        },
        {
          "internalType": "address",
          "name": "tokenA",
          "type": "address"
        },
        {
          "internalType": "address",
          "name": "tokenB",
          "type": "address"
        },
        {
          "internalType": "uint256",
          "name": "maxSlippageBps",
          "type": "uint256"
        }
      ],
      "name": "getMinAmountOut",
      "outputs": [
        {
          "internalType": "uint256",
          "name": "",
          "type": "uint256"
        }
      ],
      "stateMutability": "view",
      "type": "function"
    },
    {
      "inputs": [
        {
          "internalType": "address",
          "name": "tokenA",
          "type": "address"
        },
        {
          "internalType": "address",
          "name": "tokenB",
          "type": "address"
        }
      ],
      "name": "getTokenAPriceInTokenB",
      "outputs": [
        {
          "internalType": "uint256",
          "name": "",
          "type": "uint256"
        }
      ],
      "stateMutability": "view",
      "type": "function"
    },
    {
      "inputs": [
        {
          "internalType": "address",
          "name": "tokenA",
          "type": "address"
        },
        {
          "internalType": "address",
          "name": "tokenB",
          "type": "address"
        }
      ],
      "name": "getTokenBPriceInTokenA",
      "outputs": [
        {
          "internalType": "uint256",
          "name": "",
          "type": "uint256"
        }
      ],
      "stateMutability": "view",
      "type": "function"
    },
    {
      "inputs": [
        {
          "internalType": "uint256",
          "name": "amountIn",
          "type": "uint256"
        },
        {
          "internalType": "address",
          "name": "tokenA",
          "type": "address"
        },
        {
          "internalType": "address",
          "name": "tokenB",
          "type": "address"
        },
        {
          "internalType": "address",
          "name": "recipient",
          "type": "address"
        },
        {
          "internalType": "uint256",
          "name": "maxSlippageBps",
          "type": "uint256"
        }
      ],
      "name": "swap",
      "outputs": [
        {
          "internalType": "uint256",
          "name": "amountOut",
          "type": "uint256"
        }
      ],
      "stateMutability": "nonpayable",
      "type": "function"
    },
    {
      "inputs": [],
      "name": "swapRouter",
      "outputs": [
        {
          "internalType": "contract ISwapRouter",
          "name": "",
          "type": "address"
        }
      ],
      "stateMutability": "view",
      "type": "function"
    },
    {
      "inputs": [],
      "name": "uniswapV3Factory",
      "outputs": [
        {
          "internalType": "contract IUniswapV3Factory",
          "name": "",
          "type": "address"
        }
      ],
      "stateMutability": "view",
      "type": "function"
    }
  ],
  "transactionHash": "0xe725bc515d6a026b7344d34b5d8d122457851727ee880a0f2e1da1ee867dabb2",
  "args": [
    "0xE592427A0AEce92De3Edee1F18E0157C05861564",
    "0x1F98431c8aD98523631AE4a59f267346ea31F984"
  ],
  "numDeployments": 1,
  "solcInputHash": "5b0e6ee9d83008ca08b654d2cdf24d65",
  "bytecode": "0x60c06040523480156200001157600080fd5b50604051620020263803806200202683398181016040528101906200003791906200016a565b8173ffffffffffffffffffffffffffffffffffffffff1660808173ffffffffffffffffffffffffffffffffffffffff16815250508073ffffffffffffffffffffffffffffffffffffffff1660a08173ffffffffffffffffffffffffffffffffffffffff16815250505050620001b1565b600080fd5b600073ffffffffffffffffffffffffffffffffffffffff82169050919050565b6000620000d982620000ac565b9050919050565b6000620000ed82620000cc565b9050919050565b620000ff81620000e0565b81146200010b57600080fd5b50565b6000815190506200011f81620000f4565b92915050565b60006200013282620000cc565b9050919050565b620001448162000125565b81146200015057600080fd5b50565b600081519050620001648162000139565b92915050565b60008060408385031215620001845762000183620000a7565b5b600062000194858286016200010e565b9250506020620001a78582860162000153565b9150509250929050565b60805160a051611e33620001f3600039600081816105c3015281816108bc01526108e301526000818161040a015281816104df0152610b3d0152611e336000f3fe608060405234801561001057600080fd5b506004361061007d5760003560e01c80635b5491821161005b5780635b549182146101005780639cb3049e1461011e578063c31c9c071461014e578063eb5b4a201461016c5761007d565b806310e2df9b146100825780631749e5a6146100b25780634c69a6c9146100e2575b600080fd5b61009c60048036038101906100979190611094565b61019c565b6040516100a9919061111e565b60405180910390f35b6100cc60048036038101906100c79190611139565b6105be565b6040516100d9919061111e565b60405180910390f35b6100ea6108b4565b6040516100f79190611197565b60405180910390f35b6101086108ba565b6040516101159190611211565b60405180910390f35b61013860048036038101906101339190611139565b6108de565b604051610145919061111e565b60405180910390f35b610156610b3b565b604051610163919061124d565b60405180910390f35b61018660048036038101906101819190611268565b610b5f565b604051610193919061111e565b60405180910390f35b600061023b6040518060600160405280603c8152602001611d98603c913933878873ffffffffffffffffffffffffffffffffffffffff166370a08231336040518263ffffffff1660e01b81526004016101f591906112de565b602060405180830381865afa158015610212573d6000803e3d6000fd5b505050506040513d601f19601f82011682018060405250810190610236919061130e565b610be7565b6000861161027e576040517f08c379a000000000000000000000000000000000000000000000000000000000815260040161027590611398565b60405180910390fd5b858573ffffffffffffffffffffffffffffffffffffffff166370a08231336040518263ffffffff1660e01b81526004016102b891906112de565b602060405180830381865afa1580156102d5573d6000803e3d6000fd5b505050506040513d601f19601f820116820180604052508101906102f9919061130e565b101561033a576040517f08c379a000000000000000000000000000000000000000000000000000000000815260040161033190611404565b60405180910390fd5b858573ffffffffffffffffffffffffffffffffffffffff1663dd62ed3e33306040518363ffffffff1660e01b8152600401610376929190611424565b602060405180830381865afa158015610393573d6000803e3d6000fd5b505050506040513d601f19601f820116820180604052508101906103b7919061130e565b10156103f8576040517f08c379a00000000000000000000000000000000000000000000000000000000081526004016103ef90611499565b60405180910390fd5b61040485333089610c89565b61042f857f000000000000000000000000000000000000000000000000000000000000000088610de1565b600061043d87878786610b5f565b90506000806040518061010001604052808973ffffffffffffffffffffffffffffffffffffffff1681526020018873ffffffffffffffffffffffffffffffffffffffff168152602001610bb862ffffff1681526020018773ffffffffffffffffffffffffffffffffffffffff1681526020014281526020018a81526020018481526020018373ffffffffffffffffffffffffffffffffffffffff1681525090507f000000000000000000000000000000000000000000000000000000000000000073ffffffffffffffffffffffffffffffffffffffff1663414bf389826040518263ffffffff1660e01b81526004016105369190611597565b6020604051808303816000875af1158015610555573d6000803e3d6000fd5b505050506040513d601f19601f82011682018060405250810190610579919061130e565b93507f679d4c6eecd0bfa380374d3e0337ca89520c551b5032ed69cee4a7a1331e643c846040516105aa919061111e565b60405180910390a150505095945050505050565b6000807f000000000000000000000000000000000000000000000000000000000000000073ffffffffffffffffffffffffffffffffffffffff16631698ee828585610bb86040518463ffffffff1660e01b8152600401610620939291906115b3565b602060405180830381865afa15801561063d573d6000803e3d6000fd5b505050506040513d601f19601f8201168201806040525081019061066191906115ff565b905060008173ffffffffffffffffffffffffffffffffffffffff16633850c7bd6040518163ffffffff1660e01b815260040160e060405180830381865afa1580156106b0573d6000803e3d6000fd5b505050506040513d601f19601f820116820180604052508101906106d4919061173c565b505050505050905060008573ffffffffffffffffffffffffffffffffffffffff1663313ce5676040518163ffffffff1660e01b8152600401602060405180830381865afa158015610729573d6000803e3d6000fd5b505050506040513d601f19601f8201168201806040525081019061074d91906117de565b60ff16905060008573ffffffffffffffffffffffffffffffffffffffff1663313ce5676040518163ffffffff1660e01b8152600401602060405180830381865afa15801561079f573d6000803e3d6000fd5b505050506040513d601f19601f820116820180604052508101906107c391906117de565b60ff16905060006c010000000000000000000000009050600083600a6107e9919061196d565b90506000828673ffffffffffffffffffffffffffffffffffffffff161115610840576002838773ffffffffffffffffffffffffffffffffffffffff1661082f91906119e7565b6108399190611a18565b9050610871565b60028673ffffffffffffffffffffffffffffffffffffffff168461086491906119e7565b61086e9190611a18565b90505b6000858561087f9190611a63565b600a61088b919061196d565b838361089791906119e7565b6108a19190611a97565b9050809850505050505050505092915050565b610bb881565b7f000000000000000000000000000000000000000000000000000000000000000081565b6000807f000000000000000000000000000000000000000000000000000000000000000073ffffffffffffffffffffffffffffffffffffffff16631698ee828585610bb86040518463ffffffff1660e01b8152600401610940939291906115b3565b602060405180830381865afa15801561095d573d6000803e3d6000fd5b505050506040513d601f19601f8201168201806040525081019061098191906115ff565b905060008173ffffffffffffffffffffffffffffffffffffffff16633850c7bd6040518163ffffffff1660e01b815260040160e060405180830381865afa1580156109d0573d6000803e3d6000fd5b505050506040513d601f19601f820116820180604052508101906109f4919061173c565b505050505050905060008473ffffffffffffffffffffffffffffffffffffffff1663313ce5676040518163ffffffff1660e01b8152600401602060405180830381865afa158015610a49573d6000803e3d6000fd5b505050506040513d601f19601f82011682018060405250810190610a6d91906117de565b60ff16905060006c010000000000000000000000009050600082600a610a93919061196d565b90506000828573ffffffffffffffffffffffffffffffffffffffff161115610aea576002838673ffffffffffffffffffffffffffffffffffffffff16610ad991906119e7565b610ae39190611a18565b9050610b1b565b60028573ffffffffffffffffffffffffffffffffffffffff1684610b0e91906119e7565b610b189190611a18565b90505b60008183610b2991906119e7565b90508097505050505050505092915050565b7f000000000000000000000000000000000000000000000000000000000000000081565b6000610b836040518060600160405280602a8152602001611dd4602a913986610f36565b6000610b8f85856105be565b90506000836103e8610ba19190611a63565b905060006103e8828985610bb59190611a97565b610bbf9190611a97565b610bc991906119e7565b9050620f424081610bda91906119e7565b9350505050949350505050565b610c8384848484604051602401610c019493929190611b58565b6040516020818303038152906040527f8ef3f399000000000000000000000000000000000000000000000000000000007bffffffffffffffffffffffffffffffffffffffffffffffffffffffff19166020820180517bffffffffffffffffffffffffffffffffffffffffffffffffffffffff8381831617835250505050610fd2565b50505050565b6000808573ffffffffffffffffffffffffffffffffffffffff166323b872dd60e01b868686604051602401610cc093929190611ba4565b604051602081830303815290604052907bffffffffffffffffffffffffffffffffffffffffffffffffffffffff19166020820180517bffffffffffffffffffffffffffffffffffffffffffffffffffffffff8381831617835250505050604051610d2a9190611c22565b6000604051808303816000865af19150503d8060008114610d67576040519150601f19603f3d011682016040523d82523d6000602084013e610d6c565b606091505b5091509150818015610d9a5750600081511480610d99575080806020019051810190610d989190611c39565b5b5b610dd9576040517f08c379a0000000000000000000000000000000000000000000000000000000008152600401610dd090611cb2565b60405180910390fd5b505050505050565b6000808473ffffffffffffffffffffffffffffffffffffffff1663095ea7b360e01b8585604051602401610e16929190611cd2565b604051602081830303815290604052907bffffffffffffffffffffffffffffffffffffffffffffffffffffffff19166020820180517bffffffffffffffffffffffffffffffffffffffffffffffffffffffff8381831617835250505050604051610e809190611c22565b6000604051808303816000865af19150503d8060008114610ebd576040519150601f19603f3d011682016040523d82523d6000602084013e610ec2565b606091505b5091509150818015610ef05750600081511480610eef575080806020019051810190610eee9190611c39565b5b5b610f2f576040517f08c379a0000000000000000000000000000000000000000000000000000000008152600401610f2690611d47565b60405180910390fd5b5050505050565b610fce8282604051602401610f4c929190611d67565b6040516020818303038152906040527fb60e72cc000000000000000000000000000000000000000000000000000000007bffffffffffffffffffffffffffffffffffffffffffffffffffffffff19166020820180517bffffffffffffffffffffffffffffffffffffffffffffffffffffffff8381831617835250505050610fd2565b5050565b60008151905060006a636f6e736f6c652e6c6f679050602083016000808483855afa5050505050565b600080fd5b6000819050919050565b61101381611000565b811461101e57600080fd5b50565b6000813590506110308161100a565b92915050565b600073ffffffffffffffffffffffffffffffffffffffff82169050919050565b600061106182611036565b9050919050565b61107181611056565b811461107c57600080fd5b50565b60008135905061108e81611068565b92915050565b600080600080600060a086880312156110b0576110af610ffb565b5b60006110be88828901611021565b95505060206110cf8882890161107f565b94505060406110e08882890161107f565b93505060606110f18882890161107f565b925050608061110288828901611021565b9150509295509295909350565b61111881611000565b82525050565b6000602082019050611133600083018461110f565b92915050565b600080604083850312156111505761114f610ffb565b5b600061115e8582860161107f565b925050602061116f8582860161107f565b9150509250929050565b600062ffffff82169050919050565b61119181611179565b82525050565b60006020820190506111ac6000830184611188565b92915050565b6000819050919050565b60006111d76111d26111cd84611036565b6111b2565b611036565b9050919050565b60006111e9826111bc565b9050919050565b60006111fb826111de565b9050919050565b61120b816111f0565b82525050565b60006020820190506112266000830184611202565b92915050565b6000611237826111de565b9050919050565b6112478161122c565b82525050565b6000602082019050611262600083018461123e565b92915050565b6000806000806080858703121561128257611281610ffb565b5b600061129087828801611021565b94505060206112a18782880161107f565b93505060406112b28782880161107f565b92505060606112c387828801611021565b91505092959194509250565b6112d881611056565b82525050565b60006020820190506112f360008301846112cf565b92915050565b6000815190506113088161100a565b92915050565b60006020828403121561132457611323610ffb565b5b6000611332848285016112f9565b91505092915050565b600082825260208201905092915050565b7f616d6f756e74496e206d7573742062652067726561746572207468616e203000600082015250565b6000611382601f8361133b565b915061138d8261134c565b602082019050919050565b600060208201905081810360008301526113b181611375565b9050919050565b7f537761703a20496e73756666696369656e742062616c616e6365000000000000600082015250565b60006113ee601a8361133b565b91506113f9826113b8565b602082019050919050565b6000602082019050818103600083015261141d816113e1565b9050919050565b600060408201905061143960008301856112cf565b61144660208301846112cf565b9392505050565b7f537761703a20496e73756666696369656e7420616c6c6f77616e636500000000600082015250565b6000611483601c8361133b565b915061148e8261144d565b602082019050919050565b600060208201905081810360008301526114b281611476565b9050919050565b6114c281611056565b82525050565b6114d181611179565b82525050565b6114e081611000565b82525050565b6114ef81611036565b82525050565b6101008201600082015161150c60008501826114b9565b50602082015161151f60208501826114b9565b50604082015161153260408501826114c8565b50606082015161154560608501826114b9565b50608082015161155860808501826114d7565b5060a082015161156b60a08501826114d7565b5060c082015161157e60c08501826114d7565b5060e082015161159160e08501826114e6565b50505050565b6000610100820190506115ad60008301846114f5565b92915050565b60006060820190506115c860008301866112cf565b6115d560208301856112cf565b6115e26040830184611188565b949350505050565b6000815190506115f981611068565b92915050565b60006020828403121561161557611614610ffb565b5b6000611623848285016115ea565b91505092915050565b61163581611036565b811461164057600080fd5b50565b6000815190506116528161162c565b92915050565b60008160020b9050919050565b61166e81611658565b811461167957600080fd5b50565b60008151905061168b81611665565b92915050565b600061ffff82169050919050565b6116a881611691565b81146116b357600080fd5b50565b6000815190506116c58161169f565b92915050565b600060ff82169050919050565b6116e1816116cb565b81146116ec57600080fd5b50565b6000815190506116fe816116d8565b92915050565b60008115159050919050565b61171981611704565b811461172457600080fd5b50565b60008151905061173681611710565b92915050565b600080600080600080600060e0888a03121561175b5761175a610ffb565b5b60006117698a828b01611643565b975050602061177a8a828b0161167c565b965050604061178b8a828b016116b6565b955050606061179c8a828b016116b6565b94505060806117ad8a828b016116b6565b93505060a06117be8a828b016116ef565b92505060c06117cf8a828b01611727565b91505092959891949750929550565b6000602082840312156117f4576117f3610ffb565b5b6000611802848285016116ef565b91505092915050565b7f4e487b7100000000000000000000000000000000000000000000000000000000600052601160045260246000fd5b60008160011c9050919050565b6000808291508390505b60018511156118915780860481111561186d5761186c61180b565b5b600185161561187c5780820291505b808102905061188a8561183a565b9450611851565b94509492505050565b6000826118aa5760019050611966565b816118b85760009050611966565b81600181146118ce57600281146118d857611907565b6001915050611966565b60ff8411156118ea576118e961180b565b5b8360020a9150848211156119015761190061180b565b5b50611966565b5060208310610133831016604e8410600b841016171561193c5782820a9050838111156119375761193661180b565b5b611966565b6119498484846001611847565b925090508184048111156119605761195f61180b565b5b81810290505b9392505050565b600061197882611000565b915061198383611000565b92506119b07fffffffffffffffffffffffffffffffffffffffffffffffffffffffffffffffff848461189a565b905092915050565b7f4e487b7100000000000000000000000000000000000000000000000000000000600052601260045260246000fd5b60006119f282611000565b91506119fd83611000565b925082611a0d57611a0c6119b8565b5b828204905092915050565b6000611a2382611000565b9150611a2e836116cb565b9250611a5b7fffffffffffffffffffffffffffffffffffffffffffffffffffffffffffffffff848461189a565b905092915050565b6000611a6e82611000565b9150611a7983611000565b9250828203905081811115611a9157611a9061180b565b5b92915050565b6000611aa282611000565b9150611aad83611000565b9250828202611abb81611000565b91508282048414831517611ad257611ad161180b565b5b5092915050565b600081519050919050565b60005b83811015611b02578082015181840152602081019050611ae7565b60008484015250505050565b6000601f19601f8301169050919050565b6000611b2a82611ad9565b611b34818561133b565b9350611b44818560208601611ae4565b611b4d81611b0e565b840191505092915050565b60006080820190508181036000830152611b728187611b1f565b9050611b8160208301866112cf565b611b8e60408301856112cf565b611b9b606083018461110f565b95945050505050565b6000606082019050611bb960008301866112cf565b611bc660208301856112cf565b611bd3604083018461110f565b949350505050565b600081519050919050565b600081905092915050565b6000611bfc82611bdb565b611c068185611be6565b9350611c16818560208601611ae4565b80840191505092915050565b6000611c2e8284611bf1565b915081905092915050565b600060208284031215611c4f57611c4e610ffb565b5b6000611c5d84828501611727565b91505092915050565b7f5354460000000000000000000000000000000000000000000000000000000000600082015250565b6000611c9c60038361133b565b9150611ca782611c66565b602082019050919050565b60006020820190508181036000830152611ccb81611c8f565b9050919050565b6000604082019050611ce760008301856112cf565b611cf4602083018461110f565b9392505050565b7f5341000000000000000000000000000000000000000000000000000000000000600082015250565b6000611d3160028361133b565b9150611d3c82611cfb565b602082019050919050565b60006020820190508181036000830152611d6081611d24565b9050919050565b60006040820190508181036000830152611d818185611b1f565b9050611d90602083018461110f565b939250505056fe43616c6c696e6720737761702077697468206d73672e73656e646572203a20256f203b20746f6b656e41203a20256f2c2062616c616e63653a20256f43616c6c696e67206765744d696e416d6f756e744f7574207769746820616d6f756e74496e203a20256fa2646970667358221220a06352d12cc618d12ae8796e8ad68f962a87a6404152469e694477898f3b859b64736f6c63430008110033",
  "devdoc": {
    "kind": "dev",
    "methods": {
      "constructor": {
        "details": "see https://docs.uniswap.org/contracts/v3/reference/deployments",
        "params": {
          "_swapRouter": "The contract address of the uniswap V3 router"
        }
      },
      "getMinAmountOut(uint256,address,address,uint256)": {
        "params": {
          "amountIn": "The amount of tokenA to Swap",
          "maxSlippageBps": "The maximum slippage in bps",
          "tokenA": "token address to swap from",
          "tokenB": "token address to swap to"
        }
      },
      "getTokenAPriceInTokenB(address,address)": {
        "details": "Inverse of getTokenBPriceInTokenA (tokenAPriceInTokenB = p)p = (sqrtPriceX96 / Q96) ** 2",
        "params": {
          "tokenA": "token address to swap from",
          "tokenB": "token address to swap to"
        },
        "returns": {
          "_0": "The price of tokenA in tokenB"
        }
      },
      "getTokenBPriceInTokenA(address,address)": {
        "details": "We get the price from sqrtPriceX96 : https://docs.uniswap.org/sdk/v3/guides/fetching-pricesWe use the following formula to get the price :p = (sqrtPriceX96 / Q96) ** 2=> tokenBPriceInTokenA = 1 / p=> tokenBPriceInTokenA = 10 ** (decimalsTokenB) / ((sqrtPriceX96/q96) ** 2)",
        "params": {
          "tokenA": "token address to swap from",
          "tokenB": "token address to swap to"
        },
        "returns": {
          "_0": "The price of tokenB in tokenA"
        }
      },
      "swap(uint256,address,address,address,uint256)": {
        "params": {
          "amountIn": "The amount of tokenA to swap",
          "tokenA": "token address to swap from",
          "tokenB": "token address to swap to"
        },
        "returns": {
          "amountOut": "The amount of tokenB received"
        }
      }
    },
    "version": 1
  },
  "userdoc": {
    "kind": "user",
    "methods": {
      "constructor": {
        "notice": "Creates a new SimpleSwap contract"
      },
      "getMinAmountOut(uint256,address,address,uint256)": {
        "notice": "Returns the minimum amount of tokenB to receive for the specified amount of tokenA"
      },
      "getTokenAPriceInTokenB(address,address)": {
        "notice": "Returns the price of tokenA in tokenB"
      },
      "getTokenBPriceInTokenA(address,address)": {
        "notice": "Returns the price of tokenB in tokenA"
      },
      "swap(uint256,address,address,address,uint256)": {
        "notice": "Swaps the specified amount of tokenA for tokenB"
      }
    },
    "version": 1
  },
  "storageLayout": {
    "storage": [],
    "types": null
  }
}